{
  "_format": "hh-sol-artifact-1",
  "contractName": "ArenaCore",
  "sourceName": "src/ArenaCore.sol",
  "abi": [
    {
      "inputs": [
        {
          "internalType": "address",
          "name": "_defaultToken",
          "type": "address"
        }
      ],
      "stateMutability": "nonpayable",
      "type": "constructor"
    },
    {
      "inputs": [
        {
          "internalType": "address",
          "name": "sender",
          "type": "address"
        },
        {
          "internalType": "uint256",
          "name": "tokenId",
          "type": "uint256"
        },
        {
          "internalType": "address",
          "name": "owner",
          "type": "address"
        }
      ],
      "name": "ERC721IncorrectOwner",
      "type": "error"
    },
    {
      "inputs": [
        {
          "internalType": "address",
          "name": "operator",
          "type": "address"
        },
        {
          "internalType": "uint256",
          "name": "tokenId",
          "type": "uint256"
        }
      ],
      "name": "ERC721InsufficientApproval",
      "type": "error"
    },
    {
      "inputs": [
        {
          "internalType": "address",
          "name": "approver",
          "type": "address"
        }
      ],
      "name": "ERC721InvalidApprover",
      "type": "error"
    },
    {
      "inputs": [
        {
          "internalType": "address",
          "name": "operator",
          "type": "address"
        }
      ],
      "name": "ERC721InvalidOperator",
      "type": "error"
    },
    {
      "inputs": [
        {
          "internalType": "address",
          "name": "owner",
          "type": "address"
        }
      ],
      "name": "ERC721InvalidOwner",
      "type": "error"
    },
    {
      "inputs": [
        {
          "internalType": "address",
          "name": "receiver",
          "type": "address"
        }
      ],
      "name": "ERC721InvalidReceiver",
      "type": "error"
    },
    {
      "inputs": [
        {
          "internalType": "address",
          "name": "sender",
          "type": "address"
        }
      ],
      "name": "ERC721InvalidSender",
      "type": "error"
    },
    {
      "inputs": [
        {
          "internalType": "uint256",
          "name": "tokenId",
          "type": "uint256"
        }
      ],
      "name": "ERC721NonexistentToken",
      "type": "error"
    },
    {
      "inputs": [],
      "name": "EnforcedPause",
      "type": "error"
    },
    {
      "inputs": [],
      "name": "ExpectedPause",
      "type": "error"
    },
    {
      "inputs": [
        {
          "internalType": "address",
          "name": "owner",
          "type": "address"
        }
      ],
      "name": "OwnableInvalidOwner",
      "type": "error"
    },
    {
      "inputs": [
        {
          "internalType": "address",
          "name": "account",
          "type": "address"
        }
      ],
      "name": "OwnableUnauthorizedAccount",
      "type": "error"
    },
    {
      "inputs": [],
      "name": "ReentrancyGuardReentrantCall",
      "type": "error"
    },
    {
      "inputs": [
        {
          "internalType": "address",
          "name": "token",
          "type": "address"
        }
      ],
      "name": "SafeERC20FailedOperation",
      "type": "error"
    },
    {
      "inputs": [
        {
          "internalType": "uint256",
          "name": "value",
          "type": "uint256"
        },
        {
          "internalType": "uint256",
          "name": "length",
          "type": "uint256"
        }
      ],
      "name": "StringsInsufficientHexLength",
      "type": "error"
    },
    {
      "anonymous": false,
      "inputs": [
        {
          "indexed": true,
          "internalType": "uint256",
          "name": "taskId",
          "type": "uint256"
        },
        {
          "indexed": true,
          "internalType": "address",
          "name": "agent",
          "type": "address"
        },
        {
          "indexed": false,
          "internalType": "uint256",
          "name": "stake",
          "type": "uint256"
        },
        {
          "indexed": false,
          "internalType": "uint256",
          "name": "price",
          "type": "uint256"
        }
      ],
      "name": "AgentAssigned",
      "type": "event"
    },
    {
      "anonymous": false,
      "inputs": [
        {
          "indexed": true,
          "internalType": "address",
          "name": "agent",
          "type": "address"
        },
        {
          "indexed": false,
          "internalType": "uint256",
          "name": "cooldownEnd",
          "type": "uint256"
        }
      ],
      "name": "AgentSlashCooldownApplied",
      "type": "event"
    },
    {
      "anonymous": false,
      "inputs": [
        {
          "indexed": true,
          "internalType": "uint256",
          "name": "taskId",
          "type": "uint256"
        },
        {
          "indexed": true,
          "internalType": "address",
          "name": "agent",
          "type": "address"
        },
        {
          "indexed": false,
          "internalType": "uint256",
          "name": "amount",
          "type": "uint256"
        },
        {
          "indexed": false,
          "internalType": "enum ArenaCore.SlashSeverity",
          "name": "severity",
          "type": "uint8"
        }
      ],
      "name": "AgentSlashed",
      "type": "event"
    },
    {
      "anonymous": false,
      "inputs": [
        {
          "indexed": true,
          "internalType": "address",
          "name": "verifier",
          "type": "address"
        },
        {
          "indexed": false,
          "internalType": "string",
          "name": "reason",
          "type": "string"
        },
        {
          "indexed": false,
          "internalType": "uint256",
          "name": "value",
          "type": "uint256"
        },
        {
          "indexed": false,
          "internalType": "uint256",
          "name": "threshold",
          "type": "uint256"
        }
      ],
      "name": "AnomalyDetected",
      "type": "event"
    },
    {
      "anonymous": false,
      "inputs": [
        {
          "indexed": true,
          "internalType": "address",
          "name": "owner",
          "type": "address"
        },
        {
          "indexed": true,
          "internalType": "address",
          "name": "approved",
          "type": "address"
        },
        {
          "indexed": true,
          "internalType": "uint256",
          "name": "tokenId",
          "type": "uint256"
        }
      ],
      "name": "Approval",
      "type": "event"
    },
    {
      "anonymous": false,
      "inputs": [
        {
          "indexed": true,
          "internalType": "address",
          "name": "owner",
          "type": "address"
        },
        {
          "indexed": true,
          "internalType": "address",
          "name": "operator",
          "type": "address"
        },
        {
          "indexed": false,
          "internalType": "bool",
          "name": "approved",
          "type": "bool"
        }
      ],
      "name": "ApprovalForAll",
      "type": "event"
    },
    {
      "anonymous": false,
      "inputs": [
        {
          "indexed": true,
          "internalType": "uint256",
          "name": "disputeId",
          "type": "uint256"
        },
        {
          "indexed": false,
          "internalType": "uint256",
          "name": "requestId",
          "type": "uint256"
        }
      ],
      "name": "ArbitrationVRFRequested",
      "type": "event"
    },
    {
      "anonymous": false,
      "inputs": [
        {
          "indexed": true,
          "internalType": "uint256",
          "name": "disputeId",
          "type": "uint256"
        },
        {
          "indexed": true,
          "internalType": "address",
          "name": "arbitrator",
          "type": "address"
        },
        {
          "indexed": false,
          "internalType": "uint256",
          "name": "amount",
          "type": "uint256"
        }
      ],
      "name": "ArbitratorSlashed",
      "type": "event"
    },
    {
      "anonymous": false,
      "inputs": [
        {
          "indexed": true,
          "internalType": "uint256",
          "name": "disputeId",
          "type": "uint256"
        },
        {
          "indexed": true,
          "internalType": "address",
          "name": "arbitrator",
          "type": "address"
        },
        {
          "indexed": false,
          "internalType": "uint256",
          "name": "stake",
          "type": "uint256"
        }
      ],
      "name": "ArbitratorStaked",
      "type": "event"
    },
    {
      "anonymous": false,
      "inputs": [
        {
          "indexed": true,
          "internalType": "uint256",
          "name": "disputeId",
          "type": "uint256"
        },
        {
          "indexed": true,
          "internalType": "address",
          "name": "arbitrator",
          "type": "address"
        },
        {
          "indexed": false,
          "internalType": "uint256",
          "name": "slashAmount",
          "type": "uint256"
        }
      ],
      "name": "ArbitratorTimedOut",
      "type": "event"
    },
    {
      "anonymous": false,
      "inputs": [
        {
          "indexed": true,
          "internalType": "uint256",
          "name": "disputeId",
          "type": "uint256"
        },
        {
          "indexed": true,
          "internalType": "address",
          "name": "arbitrator",
          "type": "address"
        },
        {
          "indexed": false,
          "internalType": "enum ArenaCore.ArbitratorVote",
          "name": "vote",
          "type": "uint8"
        }
      ],
      "name": "ArbitratorVoteSubmitted",
      "type": "event"
    },
    {
      "anonymous": false,
      "inputs": [
        {
          "indexed": true,
          "internalType": "uint256",
          "name": "disputeId",
          "type": "uint256"
        },
        {
          "indexed": false,
          "internalType": "address[]",
          "name": "arbitrators",
          "type": "address[]"
        }
      ],
      "name": "ArbitratorsSelected",
      "type": "event"
    },
    {
      "anonymous": false,
      "inputs": [
        {
          "indexed": true,
          "internalType": "uint256",
          "name": "taskId",
          "type": "uint256"
        },
        {
          "indexed": true,
          "internalType": "address",
          "name": "agent",
          "type": "address"
        },
        {
          "indexed": false,
          "internalType": "bytes32",
          "name": "commitHash",
          "type": "bytes32"
        }
      ],
      "name": "BidCommitted",
      "type": "event"
    },
    {
      "anonymous": false,
      "inputs": [
        {
          "indexed": true,
          "internalType": "uint256",
          "name": "taskId",
          "type": "uint256"
        },
        {
          "indexed": true,
          "internalType": "address",
          "name": "agent",
          "type": "address"
        },
        {
          "indexed": false,
          "internalType": "uint256",
          "name": "stake",
          "type": "uint256"
        },
        {
          "indexed": false,
          "internalType": "uint256",
          "name": "price",
          "type": "uint256"
        },
        {
          "indexed": false,
          "internalType": "uint256",
          "name": "eta",
          "type": "uint256"
        }
      ],
      "name": "BidRevealed",
      "type": "event"
    },
    {
      "anonymous": false,
      "inputs": [
        {
          "indexed": true,
          "internalType": "uint256",
          "name": "taskId",
          "type": "uint256"
        },
        {
          "indexed": false,
          "internalType": "enum ArenaCore.SettlementChain",
          "name": "preferredChain",
          "type": "uint8"
        },
        {
          "indexed": false,
          "internalType": "enum ArenaCore.SettlementChain",
          "name": "recommendedChain",
          "type": "uint8"
        },
        {
          "indexed": false,
          "internalType": "uint8",
          "name": "speedPriority",
          "type": "uint8"
        },
        {
          "indexed": false,
          "internalType": "uint8",
          "name": "securityPriority",
          "type": "uint8"
        },
        {
          "indexed": false,
          "internalType": "uint8",
          "name": "costPriority",
          "type": "uint8"
        }
      ],
      "name": "ChainPreferenceSet",
      "type": "event"
    },
    {
      "anonymous": false,
      "inputs": [
        {
          "indexed": false,
          "internalType": "uint256",
          "name": "low",
          "type": "uint256"
        },
        {
          "indexed": false,
          "internalType": "uint256",
          "name": "high",
          "type": "uint256"
        },
        {
          "indexed": false,
          "internalType": "uint256",
          "name": "deadlineThreshold",
          "type": "uint256"
        }
      ],
      "name": "ChainThresholdsUpdated",
      "type": "event"
    },
    {
      "anonymous": false,
      "inputs": [
        {
          "indexed": true,
          "internalType": "uint256",
          "name": "contractId",
          "type": "uint256"
        },
        {
          "indexed": true,
          "internalType": "uint8",
          "name": "checkpointIndex",
          "type": "uint8"
        },
        {
          "indexed": false,
          "internalType": "enum ArenaCore.CheckpointStatus",
          "name": "status",
          "type": "uint8"
        },
        {
          "indexed": false,
          "internalType": "uint256",
          "name": "payoutAmount",
          "type": "uint256"
        },
        {
          "indexed": false,
          "internalType": "uint256",
          "name": "slashAmount",
          "type": "uint256"
        }
      ],
      "name": "CheckpointEvaluated",
      "type": "event"
    },
    {
      "anonymous": false,
      "inputs": [
        {
          "indexed": true,
          "internalType": "uint256",
          "name": "contractId",
          "type": "uint256"
        },
        {
          "indexed": true,
          "internalType": "uint8",
          "name": "checkpointIndex",
          "type": "uint8"
        }
      ],
      "name": "CheckpointMissed",
      "type": "event"
    },
    {
      "anonymous": false,
      "inputs": [
        {
          "indexed": true,
          "internalType": "uint256",
          "name": "contractId",
          "type": "uint256"
        },
        {
          "indexed": true,
          "internalType": "uint8",
          "name": "checkpointIndex",
          "type": "uint8"
        },
        {
          "indexed": true,
          "internalType": "address",
          "name": "agent",
          "type": "address"
        },
        {
          "indexed": false,
          "internalType": "bytes32",
          "name": "outputHash",
          "type": "bytes32"
        }
      ],
      "name": "CheckpointSubmitted",
      "type": "event"
    },
    {
      "anonymous": false,
      "inputs": [
        {
          "indexed": true,
          "internalType": "uint256",
          "name": "contractId",
          "type": "uint256"
        },
        {
          "indexed": true,
          "internalType": "uint8",
          "name": "checkpointIndex",
          "type": "uint8"
        },
        {
          "indexed": true,
          "internalType": "address",
          "name": "verifier",
          "type": "address"
        },
        {
          "indexed": false,
          "internalType": "uint256",
          "name": "stake",
          "type": "uint256"
        }
      ],
      "name": "CheckpointVerifierAssigned",
      "type": "event"
    },
    {
      "anonymous": false,
      "inputs": [
        {
          "indexed": true,
          "internalType": "uint256",
          "name": "contractId",
          "type": "uint256"
        },
        {
          "indexed": true,
          "internalType": "address",
          "name": "agent",
          "type": "address"
        },
        {
          "indexed": false,
          "internalType": "uint256",
          "name": "stake",
          "type": "uint256"
        },
        {
          "indexed": false,
          "internalType": "uint256",
          "name": "price",
          "type": "uint256"
        }
      ],
      "name": "ContinuousAgentAssigned",
      "type": "event"
    },
    {
      "anonymous": false,
      "inputs": [
        {
          "indexed": true,
          "internalType": "uint256",
          "name": "contractId",
          "type": "uint256"
        },
        {
          "indexed": true,
          "internalType": "address",
          "name": "bidder",
          "type": "address"
        },
        {
          "indexed": false,
          "internalType": "bytes32",
          "name": "commitHash",
          "type": "bytes32"
        }
      ],
      "name": "ContinuousBidCommitted",
      "type": "event"
    },
    {
      "anonymous": false,
      "inputs": [
        {
          "indexed": true,
          "internalType": "uint256",
          "name": "contractId",
          "type": "uint256"
        },
        {
          "indexed": true,
          "internalType": "address",
          "name": "bidder",
          "type": "address"
        },
        {
          "indexed": false,
          "internalType": "uint256",
          "name": "stake",
          "type": "uint256"
        },
        {
          "indexed": false,
          "internalType": "uint256",
          "name": "price",
          "type": "uint256"
        },
        {
          "indexed": false,
          "internalType": "uint256",
          "name": "eta",
          "type": "uint256"
        }
      ],
      "name": "ContinuousBidRevealed",
      "type": "event"
    },
    {
      "anonymous": false,
      "inputs": [
        {
          "indexed": true,
          "internalType": "uint256",
          "name": "contractId",
          "type": "uint256"
        },
        {
          "indexed": false,
          "internalType": "uint256",
          "name": "totalPaid",
          "type": "uint256"
        },
        {
          "indexed": false,
          "internalType": "uint256",
          "name": "totalSlashed",
          "type": "uint256"
        },
        {
          "indexed": false,
          "internalType": "uint256",
          "name": "stakeReturned",
          "type": "uint256"
        }
      ],
      "name": "ContinuousContractCompleted",
      "type": "event"
    },
    {
      "anonymous": false,
      "inputs": [
        {
          "indexed": true,
          "internalType": "uint256",
          "name": "contractId",
          "type": "uint256"
        },
        {
          "indexed": true,
          "internalType": "address",
          "name": "poster",
          "type": "address"
        },
        {
          "indexed": false,
          "internalType": "address",
          "name": "token",
          "type": "address"
        },
        {
          "indexed": false,
          "internalType": "uint256",
          "name": "totalBounty",
          "type": "uint256"
        },
        {
          "indexed": false,
          "internalType": "uint256",
          "name": "duration",
          "type": "uint256"
        },
        {
          "indexed": false,
          "internalType": "uint256",
          "name": "checkpointInterval",
          "type": "uint256"
        },
        {
          "indexed": false,
          "internalType": "uint8",
          "name": "totalCheckpoints",
          "type": "uint8"
        }
      ],
      "name": "ContinuousContractCreated",
      "type": "event"
    },
    {
      "anonymous": false,
      "inputs": [
        {
          "indexed": true,
          "internalType": "uint256",
          "name": "contractId",
          "type": "uint256"
        },
        {
          "indexed": false,
          "internalType": "string",
          "name": "reason",
          "type": "string"
        }
      ],
      "name": "ContinuousContractTerminated",
      "type": "event"
    },
    {
      "anonymous": false,
      "inputs": [
        {
          "indexed": true,
          "internalType": "uint256",
          "name": "taskId",
          "type": "uint256"
        },
        {
          "indexed": true,
          "internalType": "address",
          "name": "agent",
          "type": "address"
        },
        {
          "indexed": false,
          "internalType": "uint256",
          "name": "ownStake",
          "type": "uint256"
        },
        {
          "indexed": false,
          "internalType": "uint256",
          "name": "delegatedStake",
          "type": "uint256"
        }
      ],
      "name": "DelegatedBidRevealed",
      "type": "event"
    },
    {
      "anonymous": false,
      "inputs": [
        {
          "indexed": true,
          "internalType": "address",
          "name": "agent",
          "type": "address"
        },
        {
          "indexed": false,
          "internalType": "address",
          "name": "token",
          "type": "address"
        },
        {
          "indexed": false,
          "internalType": "uint256",
          "name": "revenueShareBps",
          "type": "uint256"
        }
      ],
      "name": "DelegationPoolOpened",
      "type": "event"
    },
    {
      "anonymous": false,
      "inputs": [
        {
          "indexed": true,
          "internalType": "address",
          "name": "agent",
          "type": "address"
        },
        {
          "indexed": true,
          "internalType": "address",
          "name": "delegator",
          "type": "address"
        },
        {
          "indexed": false,
          "internalType": "uint256",
          "name": "amount",
          "type": "uint256"
        }
      ],
      "name": "DelegationWithdrawn",
      "type": "event"
    },
    {
      "anonymous": false,
      "inputs": [
        {
          "indexed": true,
          "internalType": "uint256",
          "name": "taskId",
          "type": "uint256"
        },
        {
          "indexed": true,
          "internalType": "address",
          "name": "delegator",
          "type": "address"
        },
        {
          "indexed": false,
          "internalType": "uint256",
          "name": "stakeReturn",
          "type": "uint256"
        },
        {
          "indexed": false,
          "internalType": "uint256",
          "name": "lossAmount",
          "type": "uint256"
        }
      ],
      "name": "DelegatorLossesClaimed",
      "type": "event"
    },
    {
      "anonymous": false,
      "inputs": [
        {
          "indexed": true,
          "internalType": "address",
          "name": "agent",
          "type": "address"
        },
        {
          "indexed": false,
          "internalType": "uint256",
          "name": "newShareBps",
          "type": "uint256"
        }
      ],
      "name": "DelegatorRevenueShareUpdated",
      "type": "event"
    },
    {
      "anonymous": false,
      "inputs": [
        {
          "indexed": true,
          "internalType": "uint256",
          "name": "taskId",
          "type": "uint256"
        },
        {
          "indexed": true,
          "internalType": "address",
          "name": "delegator",
          "type": "address"
        },
        {
          "indexed": false,
          "internalType": "uint256",
          "name": "rewardAmount",
          "type": "uint256"
        },
        {
          "indexed": false,
          "internalType": "uint256",
          "name": "stakeReturn",
          "type": "uint256"
        }
      ],
      "name": "DelegatorRewardsClaimed",
      "type": "event"
    },
    {
      "anonymous": false,
      "inputs": [
        {
          "indexed": true,
          "internalType": "uint256",
          "name": "disputeId",
          "type": "uint256"
        },
        {
          "indexed": false,
          "internalType": "string",
          "name": "reason",
          "type": "string"
        }
      ],
      "name": "DisputeExpired",
      "type": "event"
    },
    {
      "anonymous": false,
      "inputs": [
        {
          "indexed": true,
          "internalType": "uint256",
          "name": "disputeId",
          "type": "uint256"
        },
        {
          "indexed": false,
          "internalType": "uint256",
          "name": "toProtocol",
          "type": "uint256"
        },
        {
          "indexed": false,
          "internalType": "uint256",
          "name": "toArbitrators",
          "type": "uint256"
        }
      ],
      "name": "DisputeFeeDistributed",
      "type": "event"
    },
    {
      "anonymous": false,
      "inputs": [
        {
          "indexed": true,
          "internalType": "uint256",
          "name": "disputeId",
          "type": "uint256"
        },
        {
          "indexed": false,
          "internalType": "enum ArenaCore.DisputeType",
          "name": "disputeType",
          "type": "uint8"
        },
        {
          "indexed": true,
          "internalType": "uint256",
          "name": "taskOrContractId",
          "type": "uint256"
        },
        {
          "indexed": true,
          "internalType": "address",
          "name": "disputant",
          "type": "address"
        },
        {
          "indexed": false,
          "internalType": "uint256",
          "name": "disputeFee",
          "type": "uint256"
        }
      ],
      "name": "DisputeRaised",
      "type": "event"
    },
    {
      "anonymous": false,
      "inputs": [
        {
          "indexed": true,
          "internalType": "uint256",
          "name": "disputeId",
          "type": "uint256"
        },
        {
          "indexed": false,
          "internalType": "bool",
          "name": "inFavorOfAgent",
          "type": "bool"
        },
        {
          "indexed": false,
          "internalType": "uint8",
          "name": "votesForAgent",
          "type": "uint8"
        },
        {
          "indexed": false,
          "internalType": "uint8",
          "name": "votesForPoster",
          "type": "uint8"
        }
      ],
      "name": "DisputeResolved",
      "type": "event"
    },
    {
      "anonymous": false,
      "inputs": [
        {
          "indexed": true,
          "internalType": "uint256",
          "name": "taskId",
          "type": "uint256"
        }
      ],
      "name": "HoneypotCreated",
      "type": "event"
    },
    {
      "anonymous": false,
      "inputs": [
        {
          "indexed": true,
          "internalType": "uint256",
          "name": "taskId",
          "type": "uint256"
        },
        {
          "indexed": true,
          "internalType": "address",
          "name": "agent",
          "type": "address"
        },
        {
          "indexed": false,
          "internalType": "bool",
          "name": "passed",
          "type": "bool"
        }
      ],
      "name": "HoneypotSettled",
      "type": "event"
    },
    {
      "anonymous": false,
      "inputs": [
        {
          "indexed": true,
          "internalType": "uint256",
          "name": "policyId",
          "type": "uint256"
        },
        {
          "indexed": true,
          "internalType": "uint256",
          "name": "taskId",
          "type": "uint256"
        },
        {
          "indexed": true,
          "internalType": "address",
          "name": "insured",
          "type": "address"
        },
        {
          "indexed": false,
          "internalType": "uint256",
          "name": "claimedAmount",
          "type": "uint256"
        }
      ],
      "name": "InsuranceClaimed",
      "type": "event"
    },
    {
      "anonymous": false,
      "inputs": [
        {
          "indexed": true,
          "internalType": "uint256",
          "name": "offerId",
          "type": "uint256"
        }
      ],
      "name": "InsuranceOfferCancelled",
      "type": "event"
    },
    {
      "anonymous": false,
      "inputs": [
        {
          "indexed": true,
          "internalType": "uint256",
          "name": "offerId",
          "type": "uint256"
        },
        {
          "indexed": true,
          "internalType": "address",
          "name": "insurer",
          "type": "address"
        },
        {
          "indexed": true,
          "internalType": "uint256",
          "name": "taskId",
          "type": "uint256"
        },
        {
          "indexed": false,
          "internalType": "uint256",
          "name": "coverageBps",
          "type": "uint256"
        },
        {
          "indexed": false,
          "internalType": "uint256",
          "name": "premiumBps",
          "type": "uint256"
        },
        {
          "indexed": false,
          "internalType": "uint256",
          "name": "maxCoverage",
          "type": "uint256"
        },
        {
          "indexed": false,
          "internalType": "uint256",
          "name": "premium",
          "type": "uint256"
        }
      ],
      "name": "InsuranceOffered",
      "type": "event"
    },
    {
      "anonymous": false,
      "inputs": [
        {
          "indexed": true,
          "internalType": "uint256",
          "name": "policyId",
          "type": "uint256"
        },
        {
          "indexed": true,
          "internalType": "uint256",
          "name": "taskId",
          "type": "uint256"
        },
        {
          "indexed": true,
          "internalType": "address",
          "name": "insured",
          "type": "address"
        },
        {
          "indexed": false,
          "internalType": "address",
          "name": "insurer",
          "type": "address"
        },
        {
          "indexed": false,
          "internalType": "uint256",
          "name": "maxCoverage",
          "type": "uint256"
        },
        {
          "indexed": false,
          "internalType": "uint256",
          "name": "premiumPaid",
          "type": "uint256"
        }
      ],
      "name": "InsurancePurchased",
      "type": "event"
    },
    {
      "anonymous": false,
      "inputs": [
        {
          "indexed": true,
          "internalType": "uint256",
          "name": "policyId",
          "type": "uint256"
        },
        {
          "indexed": true,
          "internalType": "uint256",
          "name": "taskId",
          "type": "uint256"
        },
        {
          "indexed": true,
          "internalType": "address",
          "name": "insurer",
          "type": "address"
        },
        {
          "indexed": false,
          "internalType": "uint256",
          "name": "returnedCapital",
          "type": "uint256"
        }
      ],
      "name": "InsuranceSettled",
      "type": "event"
    },
    {
      "anonymous": false,
      "inputs": [
        {
          "indexed": false,
          "internalType": "uint256",
          "name": "_tokenId",
          "type": "uint256"
        }
      ],
      "name": "MetadataUpdate",
      "type": "event"
    },
    {
      "anonymous": false,
      "inputs": [
        {
          "indexed": true,
          "internalType": "address",
          "name": "previousOwner",
          "type": "address"
        },
        {
          "indexed": true,
          "internalType": "address",
          "name": "newOwner",
          "type": "address"
        }
      ],
      "name": "OwnershipTransferred",
      "type": "event"
    },
    {
      "anonymous": false,
      "inputs": [
        {
          "indexed": false,
          "internalType": "address",
          "name": "account",
          "type": "address"
        }
      ],
      "name": "Paused",
      "type": "event"
    },
    {
      "anonymous": false,
      "inputs": [
        {
          "indexed": true,
          "internalType": "uint256",
          "name": "taskId",
          "type": "uint256"
        },
        {
          "indexed": false,
          "internalType": "uint256",
          "name": "amount",
          "type": "uint256"
        }
      ],
      "name": "ProtocolFeeCollected",
      "type": "event"
    },
    {
      "anonymous": false,
      "inputs": [
        {
          "indexed": true,
          "internalType": "address",
          "name": "agent",
          "type": "address"
        },
        {
          "indexed": true,
          "internalType": "uint256",
          "name": "tokenId",
          "type": "uint256"
        }
      ],
      "name": "ReputationNFTBurned",
      "type": "event"
    },
    {
      "anonymous": false,
      "inputs": [
        {
          "indexed": true,
          "internalType": "address",
          "name": "agent",
          "type": "address"
        },
        {
          "indexed": true,
          "internalType": "uint256",
          "name": "tokenId",
          "type": "uint256"
        }
      ],
      "name": "ReputationNFTMinted",
      "type": "event"
    },
    {
      "anonymous": false,
      "inputs": [
        {
          "indexed": true,
          "internalType": "uint256",
          "name": "taskId",
          "type": "uint256"
        },
        {
          "indexed": true,
          "internalType": "address",
          "name": "agent",
          "type": "address"
        },
        {
          "indexed": false,
          "internalType": "uint256",
          "name": "amount",
          "type": "uint256"
        }
      ],
      "name": "SlashBondClaimed",
      "type": "event"
    },
    {
      "anonymous": false,
      "inputs": [
        {
          "indexed": true,
          "internalType": "uint256",
          "name": "taskId",
          "type": "uint256"
        },
        {
          "indexed": true,
          "internalType": "address",
          "name": "agent",
          "type": "address"
        },
        {
          "indexed": false,
          "internalType": "uint256",
          "name": "slashedAmount",
          "type": "uint256"
        },
        {
          "indexed": false,
          "internalType": "enum ArenaCore.SlashSeverity",
          "name": "severity",
          "type": "uint8"
        }
      ],
      "name": "SlashBondForfeited",
      "type": "event"
    },
    {
      "anonymous": false,
      "inputs": [
        {
          "indexed": true,
          "internalType": "address",
          "name": "agent",
          "type": "address"
        },
        {
          "indexed": true,
          "internalType": "address",
          "name": "delegator",
          "type": "address"
        },
        {
          "indexed": false,
          "internalType": "uint256",
          "name": "amount",
          "type": "uint256"
        }
      ],
      "name": "StakeDelegated",
      "type": "event"
    },
    {
      "anonymous": false,
      "inputs": [
        {
          "indexed": true,
          "internalType": "uint256",
          "name": "syndicateId",
          "type": "uint256"
        },
        {
          "indexed": true,
          "internalType": "uint256",
          "name": "taskId",
          "type": "uint256"
        },
        {
          "indexed": false,
          "internalType": "bytes32",
          "name": "commitHash",
          "type": "bytes32"
        }
      ],
      "name": "SyndicateBidCommitted",
      "type": "event"
    },
    {
      "anonymous": false,
      "inputs": [
        {
          "indexed": true,
          "internalType": "uint256",
          "name": "syndicateId",
          "type": "uint256"
        },
        {
          "indexed": true,
          "internalType": "uint256",
          "name": "taskId",
          "type": "uint256"
        },
        {
          "indexed": false,
          "internalType": "uint256",
          "name": "stake",
          "type": "uint256"
        },
        {
          "indexed": false,
          "internalType": "uint256",
          "name": "price",
          "type": "uint256"
        }
      ],
      "name": "SyndicateBidRevealed",
      "type": "event"
    },
    {
      "anonymous": false,
      "inputs": [
        {
          "indexed": true,
          "internalType": "uint256",
          "name": "syndicateId",
          "type": "uint256"
        },
        {
          "indexed": true,
          "internalType": "address",
          "name": "manager",
          "type": "address"
        },
        {
          "indexed": false,
          "internalType": "string",
          "name": "name",
          "type": "string"
        }
      ],
      "name": "SyndicateCreated",
      "type": "event"
    },
    {
      "anonymous": false,
      "inputs": [
        {
          "indexed": true,
          "internalType": "uint256",
          "name": "syndicateId",
          "type": "uint256"
        }
      ],
      "name": "SyndicateDissolved",
      "type": "event"
    },
    {
      "anonymous": false,
      "inputs": [
        {
          "indexed": true,
          "internalType": "uint256",
          "name": "syndicateId",
          "type": "uint256"
        },
        {
          "indexed": true,
          "internalType": "address",
          "name": "member",
          "type": "address"
        },
        {
          "indexed": false,
          "internalType": "uint256",
          "name": "contribution",
          "type": "uint256"
        }
      ],
      "name": "SyndicateJoined",
      "type": "event"
    },
    {
      "anonymous": false,
      "inputs": [
        {
          "indexed": true,
          "internalType": "uint256",
          "name": "syndicateId",
          "type": "uint256"
        },
        {
          "indexed": true,
          "internalType": "address",
          "name": "member",
          "type": "address"
        },
        {
          "indexed": false,
          "internalType": "uint256",
          "name": "contributionReturned",
          "type": "uint256"
        }
      ],
      "name": "SyndicateLeft",
      "type": "event"
    },
    {
      "anonymous": false,
      "inputs": [
        {
          "indexed": true,
          "internalType": "uint256",
          "name": "syndicateId",
          "type": "uint256"
        },
        {
          "indexed": true,
          "internalType": "uint256",
          "name": "taskId",
          "type": "uint256"
        },
        {
          "indexed": false,
          "internalType": "uint256",
          "name": "totalLoss",
          "type": "uint256"
        }
      ],
      "name": "SyndicateLossesDistributed",
      "type": "event"
    },
    {
      "anonymous": false,
      "inputs": [
        {
          "indexed": true,
          "internalType": "uint256",
          "name": "syndicateId",
          "type": "uint256"
        },
        {
          "indexed": true,
          "internalType": "uint256",
          "name": "taskId",
          "type": "uint256"
        },
        {
          "indexed": false,
          "internalType": "uint256",
          "name": "totalPayout",
          "type": "uint256"
        }
      ],
      "name": "SyndicateRewardsDistributed",
      "type": "event"
    },
    {
      "anonymous": false,
      "inputs": [
        {
          "indexed": true,
          "internalType": "uint256",
          "name": "taskId",
          "type": "uint256"
        }
      ],
      "name": "TaskCancelled",
      "type": "event"
    },
    {
      "anonymous": false,
      "inputs": [
        {
          "indexed": true,
          "internalType": "uint256",
          "name": "taskId",
          "type": "uint256"
        },
        {
          "indexed": true,
          "internalType": "address",
          "name": "agent",
          "type": "address"
        },
        {
          "indexed": false,
          "internalType": "uint256",
          "name": "payout",
          "type": "uint256"
        }
      ],
      "name": "TaskCompleted",
      "type": "event"
    },
    {
      "anonymous": false,
      "inputs": [
        {
          "indexed": true,
          "internalType": "uint256",
          "name": "taskId",
          "type": "uint256"
        },
        {
          "indexed": true,
          "internalType": "address",
          "name": "poster",
          "type": "address"
        },
        {
          "indexed": false,
          "internalType": "uint256",
          "name": "bounty",
          "type": "uint256"
        },
        {
          "indexed": false,
          "internalType": "string",
          "name": "taskType",
          "type": "string"
        },
        {
          "indexed": false,
          "internalType": "uint256",
          "name": "deadline",
          "type": "uint256"
        },
        {
          "indexed": false,
          "internalType": "uint8",
          "name": "requiredVerifiers",
          "type": "uint8"
        }
      ],
      "name": "TaskCreated",
      "type": "event"
    },
    {
      "anonymous": false,
      "inputs": [
        {
          "indexed": true,
          "internalType": "uint256",
          "name": "taskId",
          "type": "uint256"
        },
        {
          "indexed": true,
          "internalType": "address",
          "name": "agent",
          "type": "address"
        },
        {
          "indexed": false,
          "internalType": "bytes32",
          "name": "outputHash",
          "type": "bytes32"
        }
      ],
      "name": "TaskDelivered",
      "type": "event"
    },
    {
      "anonymous": false,
      "inputs": [
        {
          "indexed": true,
          "internalType": "uint256",
          "name": "taskId",
          "type": "uint256"
        },
        {
          "indexed": true,
          "internalType": "address",
          "name": "disputant",
          "type": "address"
        }
      ],
      "name": "TaskDisputed",
      "type": "event"
    },
    {
      "anonymous": false,
      "inputs": [
        {
          "indexed": true,
          "internalType": "address",
          "name": "from",
          "type": "address"
        },
        {
          "indexed": true,
          "internalType": "address",
          "name": "to",
          "type": "address"
        },
        {
          "indexed": true,
          "internalType": "uint256",
          "name": "tokenId",
          "type": "uint256"
        }
      ],
      "name": "Transfer",
      "type": "event"
    },
    {
      "anonymous": false,
      "inputs": [
        {
          "indexed": false,
          "internalType": "address",
          "name": "account",
          "type": "address"
        }
      ],
      "name": "Unpaused",
      "type": "event"
    },
    {
      "anonymous": false,
      "inputs": [
        {
          "indexed": true,
          "internalType": "address",
          "name": "coordinator",
          "type": "address"
        },
        {
          "indexed": false,
          "internalType": "uint256",
          "name": "subscriptionId",
          "type": "uint256"
        },
        {
          "indexed": false,
          "internalType": "uint32",
          "name": "callbackGasLimit",
          "type": "uint32"
        },
        {
          "indexed": false,
          "internalType": "uint16",
          "name": "requestConfirmations",
          "type": "uint16"
        },
        {
          "indexed": false,
          "internalType": "uint256",
          "name": "minVerifierStake",
          "type": "uint256"
        }
      ],
      "name": "VRFConfigured",
      "type": "event"
    },
    {
      "anonymous": false,
      "inputs": [
        {
          "indexed": true,
          "internalType": "uint256",
          "name": "taskId",
          "type": "uint256"
        },
        {
          "indexed": false,
          "internalType": "uint256",
          "name": "requestId",
          "type": "uint256"
        }
      ],
      "name": "VRFVerifierAssignmentRequested",
      "type": "event"
    },
    {
      "anonymous": false,
      "inputs": [
        {
          "indexed": true,
          "internalType": "uint256",
          "name": "taskId",
          "type": "uint256"
        },
        {
          "indexed": false,
          "internalType": "address[]",
          "name": "verifiers",
          "type": "address[]"
        }
      ],
      "name": "VRFVerifiersAssigned",
      "type": "event"
    },
    {
      "anonymous": false,
      "inputs": [
        {
          "indexed": true,
          "internalType": "uint256",
          "name": "taskId",
          "type": "uint256"
        },
        {
          "indexed": true,
          "internalType": "address",
          "name": "verifier",
          "type": "address"
        },
        {
          "indexed": false,
          "internalType": "enum ArenaCore.VerifierVote",
          "name": "vote",
          "type": "uint8"
        }
      ],
      "name": "VerificationSubmitted",
      "type": "event"
    },
    {
      "anonymous": false,
      "inputs": [
        {
          "indexed": true,
          "internalType": "uint256",
          "name": "taskId",
          "type": "uint256"
        },
        {
          "indexed": true,
          "internalType": "address",
          "name": "verifier",
          "type": "address"
        },
        {
          "indexed": false,
          "internalType": "uint256",
          "name": "stake",
          "type": "uint256"
        }
      ],
      "name": "VerifierAssigned",
      "type": "event"
    },
    {
      "anonymous": false,
      "inputs": [
        {
          "indexed": true,
          "internalType": "address",
          "name": "verifier",
          "type": "address"
        },
        {
          "indexed": false,
          "internalType": "uint256",
          "name": "anomalyCount",
          "type": "uint256"
        }
      ],
      "name": "VerifierAutoBanned",
      "type": "event"
    },
    {
      "anonymous": false,
      "inputs": [
        {
          "indexed": true,
          "internalType": "address",
          "name": "verifier",
          "type": "address"
        },
        {
          "indexed": false,
          "internalType": "uint256",
          "name": "anomalyCount",
          "type": "uint256"
        }
      ],
      "name": "VerifierAutoFlagged",
      "type": "event"
    },
    {
      "anonymous": false,
      "inputs": [
        {
          "indexed": false,
          "internalType": "uint256",
          "name": "newCooldownPeriod",
          "type": "uint256"
        }
      ],
      "name": "VerifierCooldownUpdated",
      "type": "event"
    },
    {
      "anonymous": false,
      "inputs": [
        {
          "indexed": true,
          "internalType": "address",
          "name": "verifier",
          "type": "address"
        },
        {
          "indexed": false,
          "internalType": "uint256",
          "name": "stakeReturned",
          "type": "uint256"
        }
      ],
      "name": "VerifierDeregistered",
      "type": "event"
    },
    {
      "anonymous": false,
      "inputs": [
        {
          "indexed": true,
          "internalType": "address",
          "name": "verifier",
          "type": "address"
        },
        {
          "indexed": false,
          "internalType": "uint256",
          "name": "stake",
          "type": "uint256"
        }
      ],
      "name": "VerifierRegistered",
      "type": "event"
    },
    {
      "anonymous": false,
      "inputs": [
        {
          "indexed": true,
          "internalType": "uint256",
          "name": "taskId",
          "type": "uint256"
        },
        {
          "indexed": true,
          "internalType": "address",
          "name": "verifier",
          "type": "address"
        },
        {
          "indexed": false,
          "internalType": "uint256",
          "name": "amount",
          "type": "uint256"
        }
      ],
      "name": "VerifierSlashed",
      "type": "event"
    },
    {
      "anonymous": false,
      "inputs": [
        {
          "indexed": true,
          "internalType": "uint256",
          "name": "taskId",
          "type": "uint256"
        },
        {
          "indexed": true,
          "internalType": "address",
          "name": "verifier",
          "type": "address"
        },
        {
          "indexed": false,
          "internalType": "uint256",
          "name": "slashAmount",
          "type": "uint256"
        }
      ],
      "name": "VerifierTimedOut",
      "type": "event"
    },
    {
      "inputs": [],
      "name": "ANOMALY_APPROVAL_THRESHOLD_BPS",
      "outputs": [
        {
          "internalType": "uint256",
          "name": "",
          "type": "uint256"
        }
      ],
      "stateMutability": "view",
      "type": "function"
    },
    {
      "inputs": [],
      "name": "ANOMALY_BAN_THRESHOLD",
      "outputs": [
        {
          "internalType": "uint256",
          "name": "",
          "type": "uint256"
        }
      ],
      "stateMutability": "view",
      "type": "function"
    },
    {
      "inputs": [],
      "name": "ANOMALY_MIN_VOTES",
      "outputs": [
        {
          "internalType": "uint256",
          "name": "",
          "type": "uint256"
        }
      ],
      "stateMutability": "view",
      "type": "function"
    },
    {
      "inputs": [],
      "name": "ANOMALY_PAIR_THRESHOLD_BPS",
      "outputs": [
        {
          "internalType": "uint256",
          "name": "",
          "type": "uint256"
        }
      ],
      "stateMutability": "view",
      "type": "function"
    },
    {
      "inputs": [],
      "name": "ARBITRATION_COUNCIL_SIZE",
      "outputs": [
        {
          "internalType": "uint256",
          "name": "",
          "type": "uint256"
        }
      ],
      "stateMutability": "view",
      "type": "function"
    },
    {
      "inputs": [],
      "name": "ARBITRATION_LOSER_SLASH_BPS",
      "outputs": [
        {
          "internalType": "uint256",
          "name": "",
          "type": "uint256"
        }
      ],
      "stateMutability": "view",
      "type": "function"
    },
    {
      "inputs": [],
      "name": "ARBITRATION_STAKE_MULTIPLIER",
      "outputs": [
        {
          "internalType": "uint256",
          "name": "",
          "type": "uint256"
        }
      ],
      "stateMutability": "view",
      "type": "function"
    },
    {
      "inputs": [],
      "name": "ARBITRATION_TIMEOUT",
      "outputs": [
        {
          "internalType": "uint256",
          "name": "",
          "type": "uint256"
        }
      ],
      "stateMutability": "view",
      "type": "function"
    },
    {
      "inputs": [],
      "name": "ARBITRATION_TIMEOUT_SLASH_BPS",
      "outputs": [
        {
          "internalType": "uint256",
          "name": "",
          "type": "uint256"
        }
      ],
      "stateMutability": "view",
      "type": "function"
    },
    {
      "inputs": [],
      "name": "BPS_DENOMINATOR",
      "outputs": [
        {
          "internalType": "uint256",
          "name": "",
          "type": "uint256"
        }
      ],
      "stateMutability": "view",
      "type": "function"
    },
    {
      "inputs": [],
      "name": "CHECKPOINT_EVAL_WINDOW",
      "outputs": [
        {
          "internalType": "uint256",
          "name": "",
          "type": "uint256"
        }
      ],
      "stateMutability": "view",
      "type": "function"
    },
    {
      "inputs": [],
      "name": "CHECKPOINT_FAIL_SLASH_BPS",
      "outputs": [
        {
          "internalType": "uint256",
          "name": "",
          "type": "uint256"
        }
      ],
      "stateMutability": "view",
      "type": "function"
    },
    {
      "inputs": [],
      "name": "CHECKPOINT_GRACE_PERIOD",
      "outputs": [
        {
          "internalType": "uint256",
          "name": "",
          "type": "uint256"
        }
      ],
      "stateMutability": "view",
      "type": "function"
    },
    {
      "inputs": [],
      "name": "CHECKPOINT_MISS_SLASH_BPS",
      "outputs": [
        {
          "internalType": "uint256",
          "name": "",
          "type": "uint256"
        }
      ],
      "stateMutability": "view",
      "type": "function"
    },
    {
      "inputs": [],
      "name": "CHECKPOINT_PASS_BONUS_BPS",
      "outputs": [
        {
          "internalType": "uint256",
          "name": "",
          "type": "uint256"
        }
      ],
      "stateMutability": "view",
      "type": "function"
    },
    {
      "inputs": [],
      "name": "CONTINUOUS_30_DAYS",
      "outputs": [
        {
          "internalType": "uint256",
          "name": "",
          "type": "uint256"
        }
      ],
      "stateMutability": "view",
      "type": "function"
    },
    {
      "inputs": [],
      "name": "CONTINUOUS_60_DAYS",
      "outputs": [
        {
          "internalType": "uint256",
          "name": "",
          "type": "uint256"
        }
      ],
      "stateMutability": "view",
      "type": "function"
    },
    {
      "inputs": [],
      "name": "CONTINUOUS_90_DAYS",
      "outputs": [
        {
          "internalType": "uint256",
          "name": "",
          "type": "uint256"
        }
      ],
      "stateMutability": "view",
      "type": "function"
    },
    {
      "inputs": [],
      "name": "CONTINUOUS_STAKE_THRESHOLD_BPS",
      "outputs": [
        {
          "internalType": "uint256",
          "name": "",
          "type": "uint256"
        }
      ],
      "stateMutability": "view",
      "type": "function"
    },
    {
      "inputs": [],
      "name": "DEFAULT_MAX_FAILURES",
      "outputs": [
        {
          "internalType": "uint256",
          "name": "",
          "type": "uint256"
        }
      ],
      "stateMutability": "view",
      "type": "function"
    },
    {
      "inputs": [],
      "name": "DELEGATION_MAX_DELEGATORS",
      "outputs": [
        {
          "internalType": "uint256",
          "name": "",
          "type": "uint256"
        }
      ],
      "stateMutability": "view",
      "type": "function"
    },
    {
      "inputs": [],
      "name": "DELEGATION_MAX_REVENUE_SHARE_BPS",
      "outputs": [
        {
          "internalType": "uint256",
          "name": "",
          "type": "uint256"
        }
      ],
      "stateMutability": "view",
      "type": "function"
    },
    {
      "inputs": [],
      "name": "DELEGATION_MIN_REVENUE_SHARE_BPS",
      "outputs": [
        {
          "internalType": "uint256",
          "name": "",
          "type": "uint256"
        }
      ],
      "stateMutability": "view",
      "type": "function"
    },
    {
      "inputs": [],
      "name": "DISPUTE_FEE_BPS",
      "outputs": [
        {
          "internalType": "uint256",
          "name": "",
          "type": "uint256"
        }
      ],
      "stateMutability": "view",
      "type": "function"
    },
    {
      "inputs": [],
      "name": "INSURANCE_DEFAULT_SLASH_RATE",
      "outputs": [
        {
          "internalType": "uint256",
          "name": "",
          "type": "uint256"
        }
      ],
      "stateMutability": "view",
      "type": "function"
    },
    {
      "inputs": [],
      "name": "INSURANCE_MAX_COVERAGE_BPS",
      "outputs": [
        {
          "internalType": "uint256",
          "name": "",
          "type": "uint256"
        }
      ],
      "stateMutability": "view",
      "type": "function"
    },
    {
      "inputs": [],
      "name": "INSURANCE_MIN_HISTORY",
      "outputs": [
        {
          "internalType": "uint256",
          "name": "",
          "type": "uint256"
        }
      ],
      "stateMutability": "view",
      "type": "function"
    },
    {
      "inputs": [],
      "name": "INSURANCE_MIN_PREMIUM_BPS",
      "outputs": [
        {
          "internalType": "uint256",
          "name": "",
          "type": "uint256"
        }
      ],
      "stateMutability": "view",
      "type": "function"
    },
    {
      "inputs": [],
      "name": "INSURANCE_PROTOCOL_FEE_BPS",
      "outputs": [
        {
          "internalType": "uint256",
          "name": "",
          "type": "uint256"
        }
      ],
      "stateMutability": "view",
      "type": "function"
    },
    {
      "inputs": [],
      "name": "MAX_ACTIVE_BIDS",
      "outputs": [
        {
          "internalType": "uint256",
          "name": "",
          "type": "uint256"
        }
      ],
      "stateMutability": "view",
      "type": "function"
    },
    {
      "inputs": [],
      "name": "MAX_ACTIVE_CONTINUOUS",
      "outputs": [
        {
          "internalType": "uint256",
          "name": "",
          "type": "uint256"
        }
      ],
      "stateMutability": "view",
      "type": "function"
    },
    {
      "inputs": [],
      "name": "MAX_BIDDERS",
      "outputs": [
        {
          "internalType": "uint256",
          "name": "",
          "type": "uint256"
        }
      ],
      "stateMutability": "view",
      "type": "function"
    },
    {
      "inputs": [],
      "name": "MAX_CHECKPOINT_INTERVAL",
      "outputs": [
        {
          "internalType": "uint256",
          "name": "",
          "type": "uint256"
        }
      ],
      "stateMutability": "view",
      "type": "function"
    },
    {
      "inputs": [],
      "name": "MAX_VERIFIERS",
      "outputs": [
        {
          "internalType": "uint256",
          "name": "",
          "type": "uint256"
        }
      ],
      "stateMutability": "view",
      "type": "function"
    },
    {
      "inputs": [],
      "name": "MIN_ARBITRATOR_REPUTATION",
      "outputs": [
        {
          "internalType": "uint256",
          "name": "",
          "type": "uint256"
        }
      ],
      "stateMutability": "view",
      "type": "function"
    },
    {
      "inputs": [],
      "name": "MIN_CHECKPOINT_INTERVAL",
      "outputs": [
        {
          "internalType": "uint256",
          "name": "",
          "type": "uint256"
        }
      ],
      "stateMutability": "view",
      "type": "function"
    },
    {
      "inputs": [],
      "name": "MIN_STAKE_RATIO",
      "outputs": [
        {
          "internalType": "uint256",
          "name": "",
          "type": "uint256"
        }
      ],
      "stateMutability": "view",
      "type": "function"
    },
    {
      "inputs": [],
      "name": "PROTOCOL_FEE_BPS",
      "outputs": [
        {
          "internalType": "uint256",
          "name": "",
          "type": "uint256"
        }
      ],
      "stateMutability": "view",
      "type": "function"
    },
    {
      "inputs": [],
      "name": "SLASH_BOND_BPS",
      "outputs": [
        {
          "internalType": "uint256",
          "name": "",
          "type": "uint256"
        }
      ],
      "stateMutability": "view",
      "type": "function"
    },
    {
      "inputs": [],
      "name": "SLASH_COOLDOWN",
      "outputs": [
        {
          "internalType": "uint256",
          "name": "",
          "type": "uint256"
        }
      ],
      "stateMutability": "view",
      "type": "function"
    },
    {
      "inputs": [],
      "name": "SLASH_CRITICAL",
      "outputs": [
        {
          "internalType": "uint256",
          "name": "",
          "type": "uint256"
        }
      ],
      "stateMutability": "view",
      "type": "function"
    },
    {
      "inputs": [],
      "name": "SLASH_EXECUTION",
      "outputs": [
        {
          "internalType": "uint256",
          "name": "",
          "type": "uint256"
        }
      ],
      "stateMutability": "view",
      "type": "function"
    },
    {
      "inputs": [],
      "name": "SLASH_LATE",
      "outputs": [
        {
          "internalType": "uint256",
          "name": "",
          "type": "uint256"
        }
      ],
      "stateMutability": "view",
      "type": "function"
    },
    {
      "inputs": [],
      "name": "SLASH_MATERIAL",
      "outputs": [
        {
          "internalType": "uint256",
          "name": "",
          "type": "uint256"
        }
      ],
      "stateMutability": "view",
      "type": "function"
    },
    {
      "inputs": [],
      "name": "SLASH_MINOR",
      "outputs": [
        {
          "internalType": "uint256",
          "name": "",
          "type": "uint256"
        }
      ],
      "stateMutability": "view",
      "type": "function"
    },
    {
      "inputs": [],
      "name": "SLASH_REVENUE_BPS",
      "outputs": [
        {
          "internalType": "uint256",
          "name": "",
          "type": "uint256"
        }
      ],
      "stateMutability": "view",
      "type": "function"
    },
    {
      "inputs": [],
      "name": "SYNDICATE_MAX_MEMBERS",
      "outputs": [
        {
          "internalType": "uint256",
          "name": "",
          "type": "uint256"
        }
      ],
      "stateMutability": "view",
      "type": "function"
    },
    {
      "inputs": [],
      "name": "SYNDICATE_MIN_MEMBERS",
      "outputs": [
        {
          "internalType": "uint256",
          "name": "",
          "type": "uint256"
        }
      ],
      "stateMutability": "view",
      "type": "function"
    },
    {
      "inputs": [],
      "name": "VERIFIER_TIMEOUT",
      "outputs": [
        {
          "internalType": "uint256",
          "name": "",
          "type": "uint256"
        }
      ],
      "stateMutability": "view",
      "type": "function"
    },
    {
      "inputs": [],
      "name": "VERIFIER_TIMEOUT_SLASH_BPS",
      "outputs": [
        {
          "internalType": "uint256",
          "name": "",
          "type": "uint256"
        }
      ],
      "stateMutability": "view",
      "type": "function"
    },
    {
      "inputs": [
        {
          "internalType": "address",
          "name": "",
          "type": "address"
        }
      ],
      "name": "agentActiveBids",
      "outputs": [
        {
          "internalType": "uint256",
          "name": "",
          "type": "uint256"
        }
      ],
      "stateMutability": "view",
      "type": "function"
    },
    {
      "inputs": [
        {
          "internalType": "address",
          "name": "",
          "type": "address"
        }
      ],
      "name": "agentActiveContinuous",
      "outputs": [
        {
          "internalType": "uint256",
          "name": "",
          "type": "uint256"
        }
      ],
      "stateMutability": "view",
      "type": "function"
    },
    {
      "inputs": [
        {
          "internalType": "address",
          "name": "",
          "type": "address"
        }
      ],
      "name": "agentActiveStake",
      "outputs": [
        {
          "internalType": "uint256",
          "name": "",
          "type": "uint256"
        }
      ],
      "stateMutability": "view",
      "type": "function"
    },
    {
      "inputs": [
        {
          "internalType": "address",
          "name": "",
          "type": "address"
        }
      ],
      "name": "agentBanned",
      "outputs": [
        {
          "internalType": "bool",
          "name": "",
          "type": "bool"
        }
      ],
      "stateMutability": "view",
      "type": "function"
    },
    {
      "inputs": [
        {
          "internalType": "address",
          "name": "",
          "type": "address"
        },
        {
          "internalType": "uint256",
          "name": "",
          "type": "uint256"
        }
      ],
      "name": "agentDelegatorList",
      "outputs": [
        {
          "internalType": "address",
          "name": "",
          "type": "address"
        }
      ],
      "stateMutability": "view",
      "type": "function"
    },
    {
      "inputs": [
        {
          "internalType": "address",
          "name": "",
          "type": "address"
        }
      ],
      "name": "agentReputation",
      "outputs": [
        {
          "internalType": "uint256",
          "name": "",
          "type": "uint256"
        }
      ],
      "stateMutability": "view",
      "type": "function"
    },
    {
      "inputs": [
        {
          "internalType": "address",
          "name": "",
          "type": "address"
        }
      ],
      "name": "agentSlashCooldownEnd",
      "outputs": [
        {
          "internalType": "uint256",
          "name": "",
          "type": "uint256"
        }
      ],
      "stateMutability": "view",
      "type": "function"
    },
    {
      "inputs": [
        {
          "internalType": "address",
          "name": "",
          "type": "address"
        }
      ],
      "name": "agentSyndicateId",
      "outputs": [
        {
          "internalType": "uint256",
          "name": "",
          "type": "uint256"
        }
      ],
      "stateMutability": "view",
      "type": "function"
    },
    {
      "inputs": [
        {
          "internalType": "address",
          "name": "",
          "type": "address"
        },
        {
          "internalType": "string",
          "name": "",
          "type": "string"
        }
      ],
      "name": "agentTaskTypeCount",
      "outputs": [
        {
          "internalType": "uint256",
          "name": "",
          "type": "uint256"
        }
      ],
      "stateMutability": "view",
      "type": "function"
    },
    {
      "inputs": [
        {
          "internalType": "address",
          "name": "",
          "type": "address"
        }
      ],
      "name": "agentTasksCompleted",
      "outputs": [
        {
          "internalType": "uint256",
          "name": "",
          "type": "uint256"
        }
      ],
      "stateMutability": "view",
      "type": "function"
    },
    {
      "inputs": [
        {
          "internalType": "address",
          "name": "",
          "type": "address"
        }
      ],
      "name": "agentTasksFailed",
      "outputs": [
        {
          "internalType": "uint256",
          "name": "",
          "type": "uint256"
        }
      ],
      "stateMutability": "view",
      "type": "function"
    },
    {
      "inputs": [
        {
          "internalType": "address",
          "name": "",
          "type": "address"
        }
      ],
      "name": "agentTokenId",
      "outputs": [
        {
          "internalType": "uint256",
          "name": "",
          "type": "uint256"
        }
      ],
      "stateMutability": "view",
      "type": "function"
    },
    {
      "inputs": [
        {
          "internalType": "address",
          "name": "",
          "type": "address"
        }
      ],
      "name": "agentTopSpecialization",
      "outputs": [
        {
          "internalType": "string",
          "name": "",
          "type": "string"
        }
      ],
      "stateMutability": "view",
      "type": "function"
    },
    {
      "inputs": [
        {
          "internalType": "address",
          "name": "",
          "type": "address"
        }
      ],
      "name": "agentTopSpecializationCount",
      "outputs": [
        {
          "internalType": "uint256",
          "name": "",
          "type": "uint256"
        }
      ],
      "stateMutability": "view",
      "type": "function"
    },
    {
      "inputs": [
        {
          "internalType": "address",
          "name": "to",
          "type": "address"
        },
        {
          "internalType": "uint256",
          "name": "tokenId",
          "type": "uint256"
        }
      ],
      "name": "approve",
      "outputs": [],
      "stateMutability": "nonpayable",
      "type": "function"
    },
    {
      "inputs": [
        {
          "internalType": "uint256",
          "name": "",
          "type": "uint256"
        }
      ],
      "name": "arbitrations",
      "outputs": [
        {
          "internalType": "uint256",
          "name": "disputeId",
          "type": "uint256"
        },
        {
          "internalType": "enum ArenaCore.DisputeType",
          "name": "disputeType",
          "type": "uint8"
        },
        {
          "internalType": "uint256",
          "name": "taskOrContractId",
          "type": "uint256"
        },
        {
          "internalType": "uint8",
          "name": "checkpointIndex",
          "type": "uint8"
        },
        {
          "internalType": "address",
          "name": "disputant",
          "type": "address"
        },
        {
          "internalType": "address",
          "name": "token",
          "type": "address"
        },
        {
          "internalType": "uint256",
          "name": "bountyAmount",
          "type": "uint256"
        },
        {
          "internalType": "uint256",
          "name": "disputeFee",
          "type": "uint256"
        },
        {
          "internalType": "uint256",
          "name": "createdAt",
          "type": "uint256"
        },
        {
          "internalType": "uint256",
          "name": "stakingDeadline",
          "type": "uint256"
        },
        {
          "internalType": "uint256",
          "name": "votingDeadline",
          "type": "uint256"
        },
        {
          "internalType": "uint8",
          "name": "totalArbitrators",
          "type": "uint8"
        },
        {
          "internalType": "uint8",
          "name": "stakedArbitrators",
          "type": "uint8"
        },
        {
          "internalType": "uint8",
          "name": "votesSubmitted",
          "type": "uint8"
        },
        {
          "internalType": "uint8",
          "name": "votesForAgent",
          "type": "uint8"
        },
        {
          "internalType": "uint8",
          "name": "votesForPoster",
          "type": "uint8"
        },
        {
          "internalType": "enum ArenaCore.ArbitrationStatus",
          "name": "status",
          "type": "uint8"
        }
      ],
      "stateMutability": "view",
      "type": "function"
    },
    {
      "inputs": [
        {
          "internalType": "uint256",
          "name": "",
          "type": "uint256"
        },
        {
          "internalType": "uint256",
          "name": "",
          "type": "uint256"
        }
      ],
      "name": "arbitratorList",
      "outputs": [
        {
          "internalType": "address",
          "name": "",
          "type": "address"
        }
      ],
      "stateMutability": "view",
      "type": "function"
    },
    {
      "inputs": [
        {
          "internalType": "uint256",
          "name": "",
          "type": "uint256"
        },
        {
          "internalType": "uint8",
          "name": "",
          "type": "uint8"
        }
      ],
      "name": "arbitrators",
      "outputs": [
        {
          "internalType": "address",
          "name": "arbitrator",
          "type": "address"
        },
        {
          "internalType": "uint256",
          "name": "stake",
          "type": "uint256"
        },
        {
          "internalType": "enum ArenaCore.ArbitratorVote",
          "name": "vote",
          "type": "uint8"
        },
        {
          "internalType": "bool",
          "name": "staked",
          "type": "bool"
        }
      ],
      "stateMutability": "view",
      "type": "function"
    },
    {
      "inputs": [
        {
          "internalType": "uint256",
          "name": "",
          "type": "uint256"
        }
      ],
      "name": "assignments",
      "outputs": [
        {
          "internalType": "address",
          "name": "agent",
          "type": "address"
        },
        {
          "internalType": "uint256",
          "name": "stake",
          "type": "uint256"
        },
        {
          "internalType": "uint256",
          "name": "price",
          "type": "uint256"
        },
        {
          "internalType": "uint256",
          "name": "assignedAt",
          "type": "uint256"
        },
        {
          "internalType": "uint256",
          "name": "deliveredAt",
          "type": "uint256"
        },
        {
          "internalType": "bytes32",
          "name": "outputHash",
          "type": "bytes32"
        }
      ],
      "stateMutability": "view",
      "type": "function"
    },
    {
      "inputs": [
        {
          "internalType": "address",
          "name": "owner",
          "type": "address"
        }
      ],
      "name": "balanceOf",
      "outputs": [
        {
          "internalType": "uint256",
          "name": "",
          "type": "uint256"
        }
      ],
      "stateMutability": "view",
      "type": "function"
    },
    {
      "inputs": [
        {
          "internalType": "uint256",
          "name": "",
          "type": "uint256"
        },
        {
          "internalType": "address",
          "name": "",
          "type": "address"
        }
      ],
      "name": "bids",
      "outputs": [
        {
          "internalType": "bytes32",
          "name": "commitHash",
          "type": "bytes32"
        },
        {
          "internalType": "bool",
          "name": "revealed",
          "type": "bool"
        },
        {
          "internalType": "address",
          "name": "agent",
          "type": "address"
        },
        {
          "internalType": "uint256",
          "name": "stake",
          "type": "uint256"
        },
        {
          "internalType": "uint256",
          "name": "price",
          "type": "uint256"
        },
        {
          "internalType": "uint256",
          "name": "eta",
          "type": "uint256"
        }
      ],
      "stateMutability": "view",
      "type": "function"
    },
    {
      "inputs": [
        {
          "internalType": "address",
          "name": "_agent",
          "type": "address"
        }
      ],
      "name": "burnReputationNFT",
      "outputs": [],
      "stateMutability": "nonpayable",
      "type": "function"
    },
    {
      "inputs": [
        {
          "internalType": "uint256",
          "name": "_taskId",
          "type": "uint256"
        },
        {
          "internalType": "uint256",
          "name": "_offerId",
          "type": "uint256"
        }
      ],
      "name": "buyInsurance",
      "outputs": [],
      "stateMutability": "nonpayable",
      "type": "function"
    },
    {
      "inputs": [
        {
          "internalType": "address",
          "name": "_agent",
          "type": "address"
        }
      ],
      "name": "calculatePremium",
      "outputs": [
        {
          "internalType": "uint256",
          "name": "fairPremiumBps",
          "type": "uint256"
        }
      ],
      "stateMutability": "view",
      "type": "function"
    },
    {
      "inputs": [
        {
          "internalType": "uint256",
          "name": "_contractId",
          "type": "uint256"
        }
      ],
      "name": "cancelContinuousContract",
      "outputs": [],
      "stateMutability": "nonpayable",
      "type": "function"
    },
    {
      "inputs": [
        {
          "internalType": "uint256",
          "name": "_offerId",
          "type": "uint256"
        }
      ],
      "name": "cancelInsuranceOffer",
      "outputs": [],
      "stateMutability": "nonpayable",
      "type": "function"
    },
    {
      "inputs": [
        {
          "internalType": "uint256",
          "name": "_taskId",
          "type": "uint256"
        }
      ],
      "name": "cancelTask",
      "outputs": [],
      "stateMutability": "nonpayable",
      "type": "function"
    },
    {
      "inputs": [],
      "name": "chainDeadlineThreshold",
      "outputs": [
        {
          "internalType": "uint256",
          "name": "",
          "type": "uint256"
        }
      ],
      "stateMutability": "view",
      "type": "function"
    },
    {
      "inputs": [],
      "name": "chainThresholdHigh",
      "outputs": [
        {
          "internalType": "uint256",
          "name": "",
          "type": "uint256"
        }
      ],
      "stateMutability": "view",
      "type": "function"
    },
    {
      "inputs": [],
      "name": "chainThresholdLow",
      "outputs": [
        {
          "internalType": "uint256",
          "name": "",
          "type": "uint256"
        }
      ],
      "stateMutability": "view",
      "type": "function"
    },
    {
      "inputs": [
        {
          "internalType": "uint256",
          "name": "",
          "type": "uint256"
        },
        {
          "internalType": "uint8",
          "name": "",
          "type": "uint8"
        }
      ],
      "name": "checkpointDispute",
      "outputs": [
        {
          "internalType": "uint256",
          "name": "",
          "type": "uint256"
        }
      ],
      "stateMutability": "view",
      "type": "function"
    },
    {
      "inputs": [
        {
          "internalType": "uint256",
          "name": "",
          "type": "uint256"
        },
        {
          "internalType": "uint8",
          "name": "",
          "type": "uint8"
        },
        {
          "internalType": "uint256",
          "name": "",
          "type": "uint256"
        }
      ],
      "name": "checkpointVerifications",
      "outputs": [
        {
          "internalType": "address",
          "name": "verifier",
          "type": "address"
        },
        {
          "internalType": "uint256",
          "name": "stake",
          "type": "uint256"
        },
        {
          "internalType": "enum ArenaCore.VerifierVote",
          "name": "vote",
          "type": "uint8"
        },
        {
          "internalType": "bytes32",
          "name": "reportHash",
          "type": "bytes32"
        }
      ],
      "stateMutability": "view",
      "type": "function"
    },
    {
      "inputs": [
        {
          "internalType": "uint256",
          "name": "",
          "type": "uint256"
        },
        {
          "internalType": "uint8",
          "name": "",
          "type": "uint8"
        }
      ],
      "name": "checkpointVerifierAssignedAt",
      "outputs": [
        {
          "internalType": "uint256",
          "name": "",
          "type": "uint256"
        }
      ],
      "stateMutability": "view",
      "type": "function"
    },
    {
      "inputs": [
        {
          "internalType": "uint256",
          "name": "",
          "type": "uint256"
        },
        {
          "internalType": "uint8",
          "name": "",
          "type": "uint8"
        },
        {
          "internalType": "uint256",
          "name": "",
          "type": "uint256"
        }
      ],
      "name": "checkpointVerifiers",
      "outputs": [
        {
          "internalType": "address",
          "name": "",
          "type": "address"
        }
      ],
      "stateMutability": "view",
      "type": "function"
    },
    {
      "inputs": [
        {
          "internalType": "uint256",
          "name": "",
          "type": "uint256"
        },
        {
          "internalType": "uint8",
          "name": "",
          "type": "uint8"
        }
      ],
      "name": "checkpoints",
      "outputs": [
        {
          "internalType": "uint256",
          "name": "dueBy",
          "type": "uint256"
        },
        {
          "internalType": "uint256",
          "name": "submittedAt",
          "type": "uint256"
        },
        {
          "internalType": "uint256",
          "name": "evaluatedAt",
          "type": "uint256"
        },
        {
          "internalType": "bytes32",
          "name": "outputHash",
          "type": "bytes32"
        },
        {
          "internalType": "enum ArenaCore.CheckpointStatus",
          "name": "status",
          "type": "uint8"
        },
        {
          "internalType": "uint256",
          "name": "payoutAmount",
          "type": "uint256"
        },
        {
          "internalType": "uint256",
          "name": "slashAmount",
          "type": "uint256"
        }
      ],
      "stateMutability": "view",
      "type": "function"
    },
    {
      "inputs": [
        {
          "internalType": "uint256",
          "name": "_taskId",
          "type": "uint256"
        }
      ],
      "name": "claimDelegatorRewards",
      "outputs": [],
      "stateMutability": "nonpayable",
      "type": "function"
    },
    {
      "inputs": [
        {
          "internalType": "uint256",
          "name": "_taskId",
          "type": "uint256"
        }
      ],
      "name": "claimInsurance",
      "outputs": [],
      "stateMutability": "nonpayable",
      "type": "function"
    },
    {
      "inputs": [
        {
          "internalType": "uint256",
          "name": "_taskId",
          "type": "uint256"
        }
      ],
      "name": "claimInsuranceAfterPostSlash",
      "outputs": [],
      "stateMutability": "nonpayable",
      "type": "function"
    },
    {
      "inputs": [
        {
          "internalType": "uint256",
          "name": "_taskId",
          "type": "uint256"
        }
      ],
      "name": "claimSlashBond",
      "outputs": [],
      "stateMutability": "nonpayable",
      "type": "function"
    },
    {
      "inputs": [
        {
          "internalType": "address",
          "name": "_verifier",
          "type": "address"
        }
      ],
      "name": "clearVerifierFlag",
      "outputs": [],
      "stateMutability": "nonpayable",
      "type": "function"
    },
    {
      "inputs": [
        {
          "internalType": "uint256",
          "name": "_taskId",
          "type": "uint256"
        },
        {
          "internalType": "bytes32",
          "name": "_commitHash",
          "type": "bytes32"
        }
      ],
      "name": "commitBid",
      "outputs": [],
      "stateMutability": "nonpayable",
      "type": "function"
    },
    {
      "inputs": [
        {
          "internalType": "uint256",
          "name": "_contractId",
          "type": "uint256"
        },
        {
          "internalType": "bytes32",
          "name": "_commitHash",
          "type": "bytes32"
        }
      ],
      "name": "commitContinuousBid",
      "outputs": [],
      "stateMutability": "nonpayable",
      "type": "function"
    },
    {
      "inputs": [
        {
          "internalType": "address",
          "name": "_vrfCoordinator",
          "type": "address"
        },
        {
          "internalType": "uint256",
          "name": "_subscriptionId",
          "type": "uint256"
        },
        {
          "internalType": "bytes32",
          "name": "_keyHash",
          "type": "bytes32"
        },
        {
          "internalType": "uint32",
          "name": "_callbackGasLimit",
          "type": "uint32"
        },
        {
          "internalType": "uint16",
          "name": "_requestConfirmations",
          "type": "uint16"
        },
        {
          "internalType": "uint256",
          "name": "_minVerifierStake",
          "type": "uint256"
        }
      ],
      "name": "configureVRF",
      "outputs": [],
      "stateMutability": "nonpayable",
      "type": "function"
    },
    {
      "inputs": [
        {
          "internalType": "uint256",
          "name": "",
          "type": "uint256"
        }
      ],
      "name": "continuousAssignments",
      "outputs": [
        {
          "internalType": "address",
          "name": "agent",
          "type": "address"
        },
        {
          "internalType": "uint256",
          "name": "stake",
          "type": "uint256"
        },
        {
          "internalType": "uint256",
          "name": "currentStake",
          "type": "uint256"
        },
        {
          "internalType": "uint256",
          "name": "price",
          "type": "uint256"
        },
        {
          "internalType": "uint256",
          "name": "startedAt",
          "type": "uint256"
        },
        {
          "internalType": "uint256",
          "name": "totalPaid",
          "type": "uint256"
        },
        {
          "internalType": "uint256",
          "name": "totalSlashed",
          "type": "uint256"
        }
      ],
      "stateMutability": "view",
      "type": "function"
    },
    {
      "inputs": [
        {
          "internalType": "uint256",
          "name": "",
          "type": "uint256"
        }
      ],
      "name": "continuousBestBidder",
      "outputs": [
        {
          "internalType": "address",
          "name": "",
          "type": "address"
        }
      ],
      "stateMutability": "view",
      "type": "function"
    },
    {
      "inputs": [
        {
          "internalType": "uint256",
          "name": "",
          "type": "uint256"
        }
      ],
      "name": "continuousBestScore",
      "outputs": [
        {
          "internalType": "uint256",
          "name": "",
          "type": "uint256"
        }
      ],
      "stateMutability": "view",
      "type": "function"
    },
    {
      "inputs": [
        {
          "internalType": "uint256",
          "name": "",
          "type": "uint256"
        },
        {
          "internalType": "uint256",
          "name": "",
          "type": "uint256"
        }
      ],
      "name": "continuousBidders",
      "outputs": [
        {
          "internalType": "address",
          "name": "",
          "type": "address"
        }
      ],
      "stateMutability": "view",
      "type": "function"
    },
    {
      "inputs": [
        {
          "internalType": "uint256",
          "name": "",
          "type": "uint256"
        },
        {
          "internalType": "address",
          "name": "",
          "type": "address"
        }
      ],
      "name": "continuousBids",
      "outputs": [
        {
          "internalType": "bytes32",
          "name": "commitHash",
          "type": "bytes32"
        },
        {
          "internalType": "bool",
          "name": "revealed",
          "type": "bool"
        },
        {
          "internalType": "address",
          "name": "agent",
          "type": "address"
        },
        {
          "internalType": "uint256",
          "name": "stake",
          "type": "uint256"
        },
        {
          "internalType": "uint256",
          "name": "price",
          "type": "uint256"
        },
        {
          "internalType": "uint256",
          "name": "eta",
          "type": "uint256"
        }
      ],
      "stateMutability": "view",
      "type": "function"
    },
    {
      "inputs": [
        {
          "internalType": "uint256",
          "name": "",
          "type": "uint256"
        }
      ],
      "name": "continuousContracts",
      "outputs": [
        {
          "internalType": "address",
          "name": "poster",
          "type": "address"
        },
        {
          "internalType": "address",
          "name": "token",
          "type": "address"
        },
        {
          "internalType": "uint256",
          "name": "totalBounty",
          "type": "uint256"
        },
        {
          "internalType": "uint256",
          "name": "paymentPerCheckpoint",
          "type": "uint256"
        },
        {
          "internalType": "uint256",
          "name": "duration",
          "type": "uint256"
        },
        {
          "internalType": "uint256",
          "name": "checkpointInterval",
          "type": "uint256"
        },
        {
          "internalType": "uint256",
          "name": "createdAt",
          "type": "uint256"
        },
        {
          "internalType": "uint256",
          "name": "bidDeadline",
          "type": "uint256"
        },
        {
          "internalType": "uint256",
          "name": "revealDeadline",
          "type": "uint256"
        },
        {
          "internalType": "uint8",
          "name": "totalCheckpoints",
          "type": "uint8"
        },
        {
          "internalType": "uint8",
          "name": "completedCheckpoints",
          "type": "uint8"
        },
        {
          "internalType": "uint8",
          "name": "passedCheckpoints",
          "type": "uint8"
        },
        {
          "internalType": "uint8",
          "name": "failedCheckpoints",
          "type": "uint8"
        },
        {
          "internalType": "uint8",
          "name": "consecutivePasses",
          "type": "uint8"
        },
        {
          "internalType": "uint8",
          "name": "maxFailures",
          "type": "uint8"
        },
        {
          "internalType": "uint8",
          "name": "requiredVerifiers",
          "type": "uint8"
        },
        {
          "internalType": "enum ArenaCore.ContinuousStatus",
          "name": "status",
          "type": "uint8"
        },
        {
          "internalType": "bytes32",
          "name": "criteriaHash",
          "type": "bytes32"
        },
        {
          "internalType": "string",
          "name": "contractType",
          "type": "string"
        }
      ],
      "stateMutability": "view",
      "type": "function"
    },
    {
      "inputs": [],
      "name": "continuousCount",
      "outputs": [
        {
          "internalType": "uint256",
          "name": "",
          "type": "uint256"
        }
      ],
      "stateMutability": "view",
      "type": "function"
    },
    {
      "inputs": [
        {
          "internalType": "uint256",
          "name": "",
          "type": "uint256"
        }
      ],
      "name": "continuousEscrow",
      "outputs": [
        {
          "internalType": "uint256",
          "name": "",
          "type": "uint256"
        }
      ],
      "stateMutability": "view",
      "type": "function"
    },
    {
      "inputs": [
        {
          "internalType": "address",
          "name": "_token",
          "type": "address"
        },
        {
          "internalType": "uint256",
          "name": "_totalBounty",
          "type": "uint256"
        },
        {
          "internalType": "uint256",
          "name": "_duration",
          "type": "uint256"
        },
        {
          "internalType": "uint256",
          "name": "_checkpointInterval",
          "type": "uint256"
        },
        {
          "internalType": "uint256",
          "name": "_bidDuration",
          "type": "uint256"
        },
        {
          "internalType": "uint256",
          "name": "_revealDuration",
          "type": "uint256"
        },
        {
          "internalType": "uint8",
          "name": "_requiredVerifiers",
          "type": "uint8"
        },
        {
          "internalType": "uint8",
          "name": "_maxFailures",
          "type": "uint8"
        },
        {
          "internalType": "bytes32",
          "name": "_criteriaHash",
          "type": "bytes32"
        },
        {
          "internalType": "string",
          "name": "_contractType",
          "type": "string"
        }
      ],
      "name": "createContinuousContract",
      "outputs": [
        {
          "internalType": "uint256",
          "name": "contractId",
          "type": "uint256"
        }
      ],
      "stateMutability": "nonpayable",
      "type": "function"
    },
    {
      "inputs": [
        {
          "internalType": "uint256",
          "name": "_bounty",
          "type": "uint256"
        },
        {
          "internalType": "uint256",
          "name": "_deadline",
          "type": "uint256"
        },
        {
          "internalType": "uint256",
          "name": "_slashWindow",
          "type": "uint256"
        },
        {
          "internalType": "uint256",
          "name": "_bidDuration",
          "type": "uint256"
        },
        {
          "internalType": "uint256",
          "name": "_revealDuration",
          "type": "uint256"
        },
        {
          "internalType": "uint8",
          "name": "_requiredVerifiers",
          "type": "uint8"
        },
        {
          "internalType": "bytes32",
          "name": "_criteriaHash",
          "type": "bytes32"
        },
        {
          "internalType": "string",
          "name": "_taskType",
          "type": "string"
        },
        {
          "internalType": "address",
          "name": "_token",
          "type": "address"
        },
        {
          "internalType": "bytes32",
          "name": "_correctOutputHash",
          "type": "bytes32"
        }
      ],
      "name": "createHoneypotTask",
      "outputs": [
        {
          "internalType": "uint256",
          "name": "taskId",
          "type": "uint256"
        }
      ],
      "stateMutability": "nonpayable",
      "type": "function"
    },
    {
      "inputs": [
        {
          "internalType": "string",
          "name": "_name",
          "type": "string"
        },
        {
          "internalType": "address",
          "name": "_token",
          "type": "address"
        },
        {
          "internalType": "uint256",
          "name": "_initialContribution",
          "type": "uint256"
        }
      ],
      "name": "createSyndicate",
      "outputs": [
        {
          "internalType": "uint256",
          "name": "syndicateId",
          "type": "uint256"
        }
      ],
      "stateMutability": "nonpayable",
      "type": "function"
    },
    {
      "inputs": [
        {
          "internalType": "uint256",
          "name": "_bounty",
          "type": "uint256"
        },
        {
          "internalType": "uint256",
          "name": "_deadline",
          "type": "uint256"
        },
        {
          "internalType": "uint256",
          "name": "_slashWindow",
          "type": "uint256"
        },
        {
          "internalType": "uint256",
          "name": "_bidDuration",
          "type": "uint256"
        },
        {
          "internalType": "uint256",
          "name": "_revealDuration",
          "type": "uint256"
        },
        {
          "internalType": "uint8",
          "name": "_requiredVerifiers",
          "type": "uint8"
        },
        {
          "internalType": "bytes32",
          "name": "_criteriaHash",
          "type": "bytes32"
        },
        {
          "internalType": "string",
          "name": "_taskType",
          "type": "string"
        },
        {
          "internalType": "address",
          "name": "_token",
          "type": "address"
        }
      ],
      "name": "createTask",
      "outputs": [
        {
          "internalType": "uint256",
          "name": "taskId",
          "type": "uint256"
        }
      ],
      "stateMutability": "nonpayable",
      "type": "function"
    },
    {
      "inputs": [],
      "name": "defaultToken",
      "outputs": [
        {
          "internalType": "contract IERC20",
          "name": "",
          "type": "address"
        }
      ],
      "stateMutability": "view",
      "type": "function"
    },
    {
      "inputs": [
        {
          "internalType": "address",
          "name": "_agent",
          "type": "address"
        },
        {
          "internalType": "uint256",
          "name": "_amount",
          "type": "uint256"
        }
      ],
      "name": "delegateStake",
      "outputs": [],
      "stateMutability": "nonpayable",
      "type": "function"
    },
    {
      "inputs": [
        {
          "internalType": "uint256",
          "name": "_taskId",
          "type": "uint256"
        },
        {
          "internalType": "uint256",
          "name": "_ownStake",
          "type": "uint256"
        },
        {
          "internalType": "uint256",
          "name": "_delegatedStake",
          "type": "uint256"
        },
        {
          "internalType": "uint256",
          "name": "_price",
          "type": "uint256"
        },
        {
          "internalType": "uint256",
          "name": "_eta",
          "type": "uint256"
        },
        {
          "internalType": "bytes32",
          "name": "_salt",
          "type": "bytes32"
        }
      ],
      "name": "delegatedRevealBid",
      "outputs": [],
      "stateMutability": "nonpayable",
      "type": "function"
    },
    {
      "inputs": [
        {
          "internalType": "address",
          "name": "",
          "type": "address"
        }
      ],
      "name": "delegationPools",
      "outputs": [
        {
          "internalType": "address",
          "name": "agent",
          "type": "address"
        },
        {
          "internalType": "address",
          "name": "token",
          "type": "address"
        },
        {
          "internalType": "uint256",
          "name": "totalDelegated",
          "type": "uint256"
        },
        {
          "internalType": "uint256",
          "name": "delegatorCount",
          "type": "uint256"
        },
        {
          "internalType": "uint256",
          "name": "revenueShareBps",
          "type": "uint256"
        },
        {
          "internalType": "bool",
          "name": "acceptingDelegations",
          "type": "bool"
        },
        {
          "internalType": "uint256",
          "name": "lockedCapital",
          "type": "uint256"
        }
      ],
      "stateMutability": "view",
      "type": "function"
    },
    {
      "inputs": [
        {
          "internalType": "uint256",
          "name": "",
          "type": "uint256"
        },
        {
          "internalType": "address",
          "name": "",
          "type": "address"
        }
      ],
      "name": "delegatorClaimed",
      "outputs": [
        {
          "internalType": "bool",
          "name": "",
          "type": "bool"
        }
      ],
      "stateMutability": "view",
      "type": "function"
    },
    {
      "inputs": [
        {
          "internalType": "address",
          "name": "",
          "type": "address"
        },
        {
          "internalType": "address",
          "name": "",
          "type": "address"
        }
      ],
      "name": "delegatorContributions",
      "outputs": [
        {
          "internalType": "uint256",
          "name": "",
          "type": "uint256"
        }
      ],
      "stateMutability": "view",
      "type": "function"
    },
    {
      "inputs": [
        {
          "internalType": "uint256",
          "name": "_taskId",
          "type": "uint256"
        },
        {
          "internalType": "bytes32",
          "name": "_outputHash",
          "type": "bytes32"
        }
      ],
      "name": "deliverTask",
      "outputs": [],
      "stateMutability": "nonpayable",
      "type": "function"
    },
    {
      "inputs": [],
      "name": "disableVRF",
      "outputs": [],
      "stateMutability": "nonpayable",
      "type": "function"
    },
    {
      "inputs": [],
      "name": "disputeCount",
      "outputs": [
        {
          "internalType": "uint256",
          "name": "",
          "type": "uint256"
        }
      ],
      "stateMutability": "view",
      "type": "function"
    },
    {
      "inputs": [
        {
          "internalType": "uint256",
          "name": "_syndicateId",
          "type": "uint256"
        }
      ],
      "name": "dissolveSyndicate",
      "outputs": [],
      "stateMutability": "nonpayable",
      "type": "function"
    },
    {
      "inputs": [
        {
          "internalType": "uint256",
          "name": "_taskId",
          "type": "uint256"
        }
      ],
      "name": "distributeSyndicateLosses",
      "outputs": [],
      "stateMutability": "nonpayable",
      "type": "function"
    },
    {
      "inputs": [
        {
          "internalType": "uint256",
          "name": "_taskId",
          "type": "uint256"
        }
      ],
      "name": "distributeSyndicateRewards",
      "outputs": [],
      "stateMutability": "nonpayable",
      "type": "function"
    },
    {
      "inputs": [
        {
          "internalType": "uint256",
          "name": "_disputeId",
          "type": "uint256"
        }
      ],
      "name": "enforceArbitrationStakingTimeout",
      "outputs": [],
      "stateMutability": "nonpayable",
      "type": "function"
    },
    {
      "inputs": [
        {
          "internalType": "uint256",
          "name": "_disputeId",
          "type": "uint256"
        }
      ],
      "name": "enforceArbitrationVotingTimeout",
      "outputs": [],
      "stateMutability": "nonpayable",
      "type": "function"
    },
    {
      "inputs": [
        {
          "internalType": "uint256",
          "name": "_taskId",
          "type": "uint256"
        }
      ],
      "name": "enforceDeadline",
      "outputs": [],
      "stateMutability": "nonpayable",
      "type": "function"
    },
    {
      "inputs": [
        {
          "internalType": "uint256",
          "name": "_taskId",
          "type": "uint256"
        }
      ],
      "name": "enforceVerifierTimeout",
      "outputs": [],
      "stateMutability": "nonpayable",
      "type": "function"
    },
    {
      "inputs": [
        {
          "internalType": "address",
          "name": "_agent",
          "type": "address"
        }
      ],
      "name": "getAgentDelegationPool",
      "outputs": [
        {
          "internalType": "address",
          "name": "agent",
          "type": "address"
        },
        {
          "internalType": "address",
          "name": "token",
          "type": "address"
        },
        {
          "internalType": "uint256",
          "name": "totalDelegated",
          "type": "uint256"
        },
        {
          "internalType": "uint256",
          "name": "delegatorCount",
          "type": "uint256"
        },
        {
          "internalType": "uint256",
          "name": "revenueShareBps",
          "type": "uint256"
        },
        {
          "internalType": "bool",
          "name": "acceptingDelegations",
          "type": "bool"
        },
        {
          "internalType": "uint256",
          "name": "lockedCapital",
          "type": "uint256"
        }
      ],
      "stateMutability": "view",
      "type": "function"
    },
    {
      "inputs": [
        {
          "internalType": "address",
          "name": "_agent",
          "type": "address"
        }
      ],
      "name": "getAgentDelegations",
      "outputs": [
        {
          "internalType": "address[]",
          "name": "",
          "type": "address[]"
        }
      ],
      "stateMutability": "view",
      "type": "function"
    },
    {
      "inputs": [
        {
          "internalType": "address",
          "name": "_agent",
          "type": "address"
        }
      ],
      "name": "getAgentRateLimitStatus",
      "outputs": [
        {
          "internalType": "uint256",
          "name": "activeBids",
          "type": "uint256"
        },
        {
          "internalType": "uint256",
          "name": "maxBids",
          "type": "uint256"
        },
        {
          "internalType": "bool",
          "name": "onSlashCooldown",
          "type": "bool"
        },
        {
          "internalType": "uint256",
          "name": "cooldownEnd",
          "type": "uint256"
        }
      ],
      "stateMutability": "view",
      "type": "function"
    },
    {
      "inputs": [
        {
          "internalType": "address",
          "name": "_agent",
          "type": "address"
        }
      ],
      "name": "getAgentStats",
      "outputs": [
        {
          "internalType": "uint256",
          "name": "reputation",
          "type": "uint256"
        },
        {
          "internalType": "uint256",
          "name": "completed",
          "type": "uint256"
        },
        {
          "internalType": "uint256",
          "name": "failed",
          "type": "uint256"
        },
        {
          "internalType": "uint256",
          "name": "activeStake",
          "type": "uint256"
        },
        {
          "internalType": "bool",
          "name": "banned",
          "type": "bool"
        }
      ],
      "stateMutability": "view",
      "type": "function"
    },
    {
      "inputs": [
        {
          "internalType": "uint256",
          "name": "tokenId",
          "type": "uint256"
        }
      ],
      "name": "getApproved",
      "outputs": [
        {
          "internalType": "address",
          "name": "",
          "type": "address"
        }
      ],
      "stateMutability": "view",
      "type": "function"
    },
    {
      "inputs": [
        {
          "internalType": "uint256",
          "name": "_disputeId",
          "type": "uint256"
        }
      ],
      "name": "getArbitration",
      "outputs": [
        {
          "components": [
            {
              "internalType": "uint256",
              "name": "disputeId",
              "type": "uint256"
            },
            {
              "internalType": "enum ArenaCore.DisputeType",
              "name": "disputeType",
              "type": "uint8"
            },
            {
              "internalType": "uint256",
              "name": "taskOrContractId",
              "type": "uint256"
            },
            {
              "internalType": "uint8",
              "name": "checkpointIndex",
              "type": "uint8"
            },
            {
              "internalType": "address",
              "name": "disputant",
              "type": "address"
            },
            {
              "internalType": "address",
              "name": "token",
              "type": "address"
            },
            {
              "internalType": "uint256",
              "name": "bountyAmount",
              "type": "uint256"
            },
            {
              "internalType": "uint256",
              "name": "disputeFee",
              "type": "uint256"
            },
            {
              "internalType": "uint256",
              "name": "createdAt",
              "type": "uint256"
            },
            {
              "internalType": "uint256",
              "name": "stakingDeadline",
              "type": "uint256"
            },
            {
              "internalType": "uint256",
              "name": "votingDeadline",
              "type": "uint256"
            },
            {
              "internalType": "uint8",
              "name": "totalArbitrators",
              "type": "uint8"
            },
            {
              "internalType": "uint8",
              "name": "stakedArbitrators",
              "type": "uint8"
            },
            {
              "internalType": "uint8",
              "name": "votesSubmitted",
              "type": "uint8"
            },
            {
              "internalType": "uint8",
              "name": "votesForAgent",
              "type": "uint8"
            },
            {
              "internalType": "uint8",
              "name": "votesForPoster",
              "type": "uint8"
            },
            {
              "internalType": "enum ArenaCore.ArbitrationStatus",
              "name": "status",
              "type": "uint8"
            }
          ],
          "internalType": "struct ArenaCore.Arbitration",
          "name": "",
          "type": "tuple"
        }
      ],
      "stateMutability": "view",
      "type": "function"
    },
    {
      "inputs": [
        {
          "internalType": "uint256",
          "name": "_disputeId",
          "type": "uint256"
        },
        {
          "internalType": "uint8",
          "name": "_index",
          "type": "uint8"
        }
      ],
      "name": "getArbitratorInfo",
      "outputs": [
        {
          "components": [
            {
              "internalType": "address",
              "name": "arbitrator",
              "type": "address"
            },
            {
              "internalType": "uint256",
              "name": "stake",
              "type": "uint256"
            },
            {
              "internalType": "enum ArenaCore.ArbitratorVote",
              "name": "vote",
              "type": "uint8"
            },
            {
              "internalType": "bool",
              "name": "staked",
              "type": "bool"
            }
          ],
          "internalType": "struct ArenaCore.ArbitratorInfo",
          "name": "",
          "type": "tuple"
        }
      ],
      "stateMutability": "view",
      "type": "function"
    },
    {
      "inputs": [
        {
          "internalType": "uint256",
          "name": "_disputeId",
          "type": "uint256"
        }
      ],
      "name": "getArbitratorList",
      "outputs": [
        {
          "internalType": "address[]",
          "name": "",
          "type": "address[]"
        }
      ],
      "stateMutability": "view",
      "type": "function"
    },
    {
      "inputs": [
        {
          "internalType": "uint256",
          "name": "_taskId",
          "type": "uint256"
        }
      ],
      "name": "getAssignment",
      "outputs": [
        {
          "components": [
            {
              "internalType": "address",
              "name": "agent",
              "type": "address"
            },
            {
              "internalType": "uint256",
              "name": "stake",
              "type": "uint256"
            },
            {
              "internalType": "uint256",
              "name": "price",
              "type": "uint256"
            },
            {
              "internalType": "uint256",
              "name": "assignedAt",
              "type": "uint256"
            },
            {
              "internalType": "uint256",
              "name": "deliveredAt",
              "type": "uint256"
            },
            {
              "internalType": "bytes32",
              "name": "outputHash",
              "type": "bytes32"
            }
          ],
          "internalType": "struct ArenaCore.Assignment",
          "name": "",
          "type": "tuple"
        }
      ],
      "stateMutability": "view",
      "type": "function"
    },
    {
      "inputs": [
        {
          "internalType": "uint256",
          "name": "_taskId",
          "type": "uint256"
        },
        {
          "internalType": "address",
          "name": "_agent",
          "type": "address"
        }
      ],
      "name": "getBid",
      "outputs": [
        {
          "components": [
            {
              "internalType": "bytes32",
              "name": "commitHash",
              "type": "bytes32"
            },
            {
              "internalType": "bool",
              "name": "revealed",
              "type": "bool"
            },
            {
              "internalType": "address",
              "name": "agent",
              "type": "address"
            },
            {
              "internalType": "uint256",
              "name": "stake",
              "type": "uint256"
            },
            {
              "internalType": "uint256",
              "name": "price",
              "type": "uint256"
            },
            {
              "internalType": "uint256",
              "name": "eta",
              "type": "uint256"
            }
          ],
          "internalType": "struct ArenaCore.SealedBid",
          "name": "",
          "type": "tuple"
        }
      ],
      "stateMutability": "view",
      "type": "function"
    },
    {
      "inputs": [
        {
          "internalType": "uint256",
          "name": "_taskId",
          "type": "uint256"
        }
      ],
      "name": "getChainPreference",
      "outputs": [
        {
          "components": [
            {
              "internalType": "enum ArenaCore.SettlementChain",
              "name": "preferredChain",
              "type": "uint8"
            },
            {
              "internalType": "uint8",
              "name": "speedPriority",
              "type": "uint8"
            },
            {
              "internalType": "uint8",
              "name": "securityPriority",
              "type": "uint8"
            },
            {
              "internalType": "uint8",
              "name": "costPriority",
              "type": "uint8"
            },
            {
              "internalType": "enum ArenaCore.SettlementChain",
              "name": "recommendedChain",
              "type": "uint8"
            }
          ],
          "internalType": "struct ArenaCore.ChainPreference",
          "name": "",
          "type": "tuple"
        }
      ],
      "stateMutability": "view",
      "type": "function"
    },
    {
      "inputs": [
        {
          "internalType": "uint256",
          "name": "_contractId",
          "type": "uint256"
        },
        {
          "internalType": "uint8",
          "name": "_checkpointIndex",
          "type": "uint8"
        }
      ],
      "name": "getCheckpoint",
      "outputs": [
        {
          "components": [
            {
              "internalType": "uint256",
              "name": "dueBy",
              "type": "uint256"
            },
            {
              "internalType": "uint256",
              "name": "submittedAt",
              "type": "uint256"
            },
            {
              "internalType": "uint256",
              "name": "evaluatedAt",
              "type": "uint256"
            },
            {
              "internalType": "bytes32",
              "name": "outputHash",
              "type": "bytes32"
            },
            {
              "internalType": "enum ArenaCore.CheckpointStatus",
              "name": "status",
              "type": "uint8"
            },
            {
              "internalType": "uint256",
              "name": "payoutAmount",
              "type": "uint256"
            },
            {
              "internalType": "uint256",
              "name": "slashAmount",
              "type": "uint256"
            }
          ],
          "internalType": "struct ArenaCore.Checkpoint",
          "name": "",
          "type": "tuple"
        }
      ],
      "stateMutability": "view",
      "type": "function"
    },
    {
      "inputs": [
        {
          "internalType": "uint256",
          "name": "_contractId",
          "type": "uint256"
        },
        {
          "internalType": "uint8",
          "name": "_checkpointIndex",
          "type": "uint8"
        }
      ],
      "name": "getCheckpointDisputeId",
      "outputs": [
        {
          "internalType": "uint256",
          "name": "",
          "type": "uint256"
        }
      ],
      "stateMutability": "view",
      "type": "function"
    },
    {
      "inputs": [
        {
          "internalType": "uint256",
          "name": "_contractId",
          "type": "uint256"
        },
        {
          "internalType": "uint8",
          "name": "_checkpointIndex",
          "type": "uint8"
        }
      ],
      "name": "getCheckpointVerifications",
      "outputs": [
        {
          "components": [
            {
              "internalType": "address",
              "name": "verifier",
              "type": "address"
            },
            {
              "internalType": "uint256",
              "name": "stake",
              "type": "uint256"
            },
            {
              "internalType": "enum ArenaCore.VerifierVote",
              "name": "vote",
              "type": "uint8"
            },
            {
              "internalType": "bytes32",
              "name": "reportHash",
              "type": "bytes32"
            }
          ],
          "internalType": "struct ArenaCore.Verification[]",
          "name": "",
          "type": "tuple[]"
        }
      ],
      "stateMutability": "view",
      "type": "function"
    },
    {
      "inputs": [
        {
          "internalType": "uint256",
          "name": "_contractId",
          "type": "uint256"
        },
        {
          "internalType": "uint8",
          "name": "_checkpointIndex",
          "type": "uint8"
        }
      ],
      "name": "getCheckpointVerifierList",
      "outputs": [
        {
          "internalType": "address[]",
          "name": "",
          "type": "address[]"
        }
      ],
      "stateMutability": "view",
      "type": "function"
    },
    {
      "inputs": [
        {
          "internalType": "uint256",
          "name": "_contractId",
          "type": "uint256"
        }
      ],
      "name": "getContinuousAssignment",
      "outputs": [
        {
          "components": [
            {
              "internalType": "address",
              "name": "agent",
              "type": "address"
            },
            {
              "internalType": "uint256",
              "name": "stake",
              "type": "uint256"
            },
            {
              "internalType": "uint256",
              "name": "currentStake",
              "type": "uint256"
            },
            {
              "internalType": "uint256",
              "name": "price",
              "type": "uint256"
            },
            {
              "internalType": "uint256",
              "name": "startedAt",
              "type": "uint256"
            },
            {
              "internalType": "uint256",
              "name": "totalPaid",
              "type": "uint256"
            },
            {
              "internalType": "uint256",
              "name": "totalSlashed",
              "type": "uint256"
            }
          ],
          "internalType": "struct ArenaCore.ContinuousAssignment",
          "name": "",
          "type": "tuple"
        }
      ],
      "stateMutability": "view",
      "type": "function"
    },
    {
      "inputs": [
        {
          "internalType": "uint256",
          "name": "_contractId",
          "type": "uint256"
        },
        {
          "internalType": "address",
          "name": "_bidder",
          "type": "address"
        }
      ],
      "name": "getContinuousBid",
      "outputs": [
        {
          "components": [
            {
              "internalType": "bytes32",
              "name": "commitHash",
              "type": "bytes32"
            },
            {
              "internalType": "bool",
              "name": "revealed",
              "type": "bool"
            },
            {
              "internalType": "address",
              "name": "agent",
              "type": "address"
            },
            {
              "internalType": "uint256",
              "name": "stake",
              "type": "uint256"
            },
            {
              "internalType": "uint256",
              "name": "price",
              "type": "uint256"
            },
            {
              "internalType": "uint256",
              "name": "eta",
              "type": "uint256"
            }
          ],
          "internalType": "struct ArenaCore.SealedBid",
          "name": "",
          "type": "tuple"
        }
      ],
      "stateMutability": "view",
      "type": "function"
    },
    {
      "inputs": [
        {
          "internalType": "uint256",
          "name": "_contractId",
          "type": "uint256"
        }
      ],
      "name": "getContinuousBidders",
      "outputs": [
        {
          "internalType": "address[]",
          "name": "",
          "type": "address[]"
        }
      ],
      "stateMutability": "view",
      "type": "function"
    },
    {
      "inputs": [
        {
          "internalType": "uint256",
          "name": "_contractId",
          "type": "uint256"
        }
      ],
      "name": "getContinuousContract",
      "outputs": [
        {
          "components": [
            {
              "internalType": "address",
              "name": "poster",
              "type": "address"
            },
            {
              "internalType": "address",
              "name": "token",
              "type": "address"
            },
            {
              "internalType": "uint256",
              "name": "totalBounty",
              "type": "uint256"
            },
            {
              "internalType": "uint256",
              "name": "paymentPerCheckpoint",
              "type": "uint256"
            },
            {
              "internalType": "uint256",
              "name": "duration",
              "type": "uint256"
            },
            {
              "internalType": "uint256",
              "name": "checkpointInterval",
              "type": "uint256"
            },
            {
              "internalType": "uint256",
              "name": "createdAt",
              "type": "uint256"
            },
            {
              "internalType": "uint256",
              "name": "bidDeadline",
              "type": "uint256"
            },
            {
              "internalType": "uint256",
              "name": "revealDeadline",
              "type": "uint256"
            },
            {
              "internalType": "uint8",
              "name": "totalCheckpoints",
              "type": "uint8"
            },
            {
              "internalType": "uint8",
              "name": "completedCheckpoints",
              "type": "uint8"
            },
            {
              "internalType": "uint8",
              "name": "passedCheckpoints",
              "type": "uint8"
            },
            {
              "internalType": "uint8",
              "name": "failedCheckpoints",
              "type": "uint8"
            },
            {
              "internalType": "uint8",
              "name": "consecutivePasses",
              "type": "uint8"
            },
            {
              "internalType": "uint8",
              "name": "maxFailures",
              "type": "uint8"
            },
            {
              "internalType": "uint8",
              "name": "requiredVerifiers",
              "type": "uint8"
            },
            {
              "internalType": "enum ArenaCore.ContinuousStatus",
              "name": "status",
              "type": "uint8"
            },
            {
              "internalType": "bytes32",
              "name": "criteriaHash",
              "type": "bytes32"
            },
            {
              "internalType": "string",
              "name": "contractType",
              "type": "string"
            }
          ],
          "internalType": "struct ArenaCore.ContinuousContract",
          "name": "",
          "type": "tuple"
        }
      ],
      "stateMutability": "view",
      "type": "function"
    },
    {
      "inputs": [
        {
          "internalType": "address",
          "name": "_agent",
          "type": "address"
        },
        {
          "internalType": "address",
          "name": "_delegator",
          "type": "address"
        }
      ],
      "name": "getDelegatorInfo",
      "outputs": [
        {
          "internalType": "uint256",
          "name": "contribution",
          "type": "uint256"
        },
        {
          "internalType": "uint256",
          "name": "poolTotal",
          "type": "uint256"
        },
        {
          "internalType": "uint256",
          "name": "revenueShareBps",
          "type": "uint256"
        },
        {
          "internalType": "uint256",
          "name": "lockedCapital",
          "type": "uint256"
        }
      ],
      "stateMutability": "view",
      "type": "function"
    },
    {
      "inputs": [
        {
          "internalType": "uint256",
          "name": "_offerId",
          "type": "uint256"
        }
      ],
      "name": "getInsuranceOffer",
      "outputs": [
        {
          "components": [
            {
              "internalType": "uint256",
              "name": "offerId",
              "type": "uint256"
            },
            {
              "internalType": "address",
              "name": "insurer",
              "type": "address"
            },
            {
              "internalType": "uint256",
              "name": "taskId",
              "type": "uint256"
            },
            {
              "internalType": "uint256",
              "name": "coverageBps",
              "type": "uint256"
            },
            {
              "internalType": "uint256",
              "name": "premiumBps",
              "type": "uint256"
            },
            {
              "internalType": "uint256",
              "name": "maxCoverage",
              "type": "uint256"
            },
            {
              "internalType": "uint256",
              "name": "premium",
              "type": "uint256"
            },
            {
              "internalType": "enum ArenaCore.InsuranceStatus",
              "name": "status",
              "type": "uint8"
            },
            {
              "internalType": "uint256",
              "name": "createdAt",
              "type": "uint256"
            }
          ],
          "internalType": "struct ArenaCore.InsuranceOffer",
          "name": "",
          "type": "tuple"
        }
      ],
      "stateMutability": "view",
      "type": "function"
    },
    {
      "inputs": [
        {
          "internalType": "uint256",
          "name": "_policyId",
          "type": "uint256"
        }
      ],
      "name": "getInsurancePolicy",
      "outputs": [
        {
          "components": [
            {
              "internalType": "uint256",
              "name": "policyId",
              "type": "uint256"
            },
            {
              "internalType": "uint256",
              "name": "taskId",
              "type": "uint256"
            },
            {
              "internalType": "address",
              "name": "insurer",
              "type": "address"
            },
            {
              "internalType": "address",
              "name": "insured",
              "type": "address"
            },
            {
              "internalType": "address",
              "name": "token",
              "type": "address"
            },
            {
              "internalType": "uint256",
              "name": "coverageBps",
              "type": "uint256"
            },
            {
              "internalType": "uint256",
              "name": "maxCoverage",
              "type": "uint256"
            },
            {
              "internalType": "uint256",
              "name": "premiumPaid",
              "type": "uint256"
            },
            {
              "internalType": "uint256",
              "name": "claimedAmount",
              "type": "uint256"
            },
            {
              "internalType": "enum ArenaCore.InsuranceStatus",
              "name": "status",
              "type": "uint8"
            },
            {
              "internalType": "uint256",
              "name": "activatedAt",
              "type": "uint256"
            }
          ],
          "internalType": "struct ArenaCore.InsurancePolicy",
          "name": "",
          "type": "tuple"
        }
      ],
      "stateMutability": "view",
      "type": "function"
    },
    {
      "inputs": [
        {
          "internalType": "address",
          "name": "_insurer",
          "type": "address"
        }
      ],
      "name": "getInsurerLockedCapital",
      "outputs": [
        {
          "internalType": "uint256",
          "name": "",
          "type": "uint256"
        }
      ],
      "stateMutability": "view",
      "type": "function"
    },
    {
      "inputs": [
        {
          "internalType": "uint256",
          "name": "_syndicateId",
          "type": "uint256"
        }
      ],
      "name": "getSyndicate",
      "outputs": [
        {
          "internalType": "uint256",
          "name": "syndicateId",
          "type": "uint256"
        },
        {
          "internalType": "string",
          "name": "name",
          "type": "string"
        },
        {
          "internalType": "address",
          "name": "manager",
          "type": "address"
        },
        {
          "internalType": "address",
          "name": "token",
          "type": "address"
        },
        {
          "internalType": "uint256",
          "name": "totalStake",
          "type": "uint256"
        },
        {
          "internalType": "uint256",
          "name": "memberCount",
          "type": "uint256"
        },
        {
          "internalType": "enum ArenaCore.SyndicateStatus",
          "name": "status",
          "type": "uint8"
        },
        {
          "internalType": "uint256",
          "name": "createdAt",
          "type": "uint256"
        }
      ],
      "stateMutability": "view",
      "type": "function"
    },
    {
      "inputs": [
        {
          "internalType": "uint256",
          "name": "_syndicateId",
          "type": "uint256"
        }
      ],
      "name": "getSyndicateActiveTasks",
      "outputs": [
        {
          "internalType": "uint256",
          "name": "",
          "type": "uint256"
        }
      ],
      "stateMutability": "view",
      "type": "function"
    },
    {
      "inputs": [
        {
          "internalType": "uint256",
          "name": "_syndicateId",
          "type": "uint256"
        },
        {
          "internalType": "address",
          "name": "_member",
          "type": "address"
        }
      ],
      "name": "getSyndicateMember",
      "outputs": [
        {
          "components": [
            {
              "internalType": "address",
              "name": "member",
              "type": "address"
            },
            {
              "internalType": "uint256",
              "name": "contribution",
              "type": "uint256"
            },
            {
              "internalType": "uint256",
              "name": "joinedAt",
              "type": "uint256"
            }
          ],
          "internalType": "struct ArenaCore.SyndicateMember",
          "name": "",
          "type": "tuple"
        }
      ],
      "stateMutability": "view",
      "type": "function"
    },
    {
      "inputs": [
        {
          "internalType": "uint256",
          "name": "_syndicateId",
          "type": "uint256"
        }
      ],
      "name": "getSyndicateMembers",
      "outputs": [
        {
          "internalType": "address[]",
          "name": "",
          "type": "address[]"
        }
      ],
      "stateMutability": "view",
      "type": "function"
    },
    {
      "inputs": [
        {
          "internalType": "uint256",
          "name": "_taskId",
          "type": "uint256"
        }
      ],
      "name": "getTask",
      "outputs": [
        {
          "components": [
            {
              "internalType": "address",
              "name": "poster",
              "type": "address"
            },
            {
              "internalType": "address",
              "name": "token",
              "type": "address"
            },
            {
              "internalType": "uint256",
              "name": "bounty",
              "type": "uint256"
            },
            {
              "internalType": "uint256",
              "name": "deadline",
              "type": "uint256"
            },
            {
              "internalType": "uint256",
              "name": "slashWindow",
              "type": "uint256"
            },
            {
              "internalType": "uint256",
              "name": "createdAt",
              "type": "uint256"
            },
            {
              "internalType": "uint256",
              "name": "bidDeadline",
              "type": "uint256"
            },
            {
              "internalType": "uint256",
              "name": "revealDeadline",
              "type": "uint256"
            },
            {
              "internalType": "uint8",
              "name": "requiredVerifiers",
              "type": "uint8"
            },
            {
              "internalType": "enum ArenaCore.TaskStatus",
              "name": "status",
              "type": "uint8"
            },
            {
              "internalType": "bytes32",
              "name": "criteriaHash",
              "type": "bytes32"
            },
            {
              "internalType": "string",
              "name": "taskType",
              "type": "string"
            }
          ],
          "internalType": "struct ArenaCore.Task",
          "name": "",
          "type": "tuple"
        }
      ],
      "stateMutability": "view",
      "type": "function"
    },
    {
      "inputs": [
        {
          "internalType": "uint256",
          "name": "_taskId",
          "type": "uint256"
        }
      ],
      "name": "getTaskBidders",
      "outputs": [
        {
          "internalType": "address[]",
          "name": "",
          "type": "address[]"
        }
      ],
      "stateMutability": "view",
      "type": "function"
    },
    {
      "inputs": [
        {
          "internalType": "uint256",
          "name": "_taskId",
          "type": "uint256"
        }
      ],
      "name": "getTaskDisputeId",
      "outputs": [
        {
          "internalType": "uint256",
          "name": "",
          "type": "uint256"
        }
      ],
      "stateMutability": "view",
      "type": "function"
    },
    {
      "inputs": [
        {
          "internalType": "uint256",
          "name": "_taskId",
          "type": "uint256"
        }
      ],
      "name": "getTaskInsuranceOffers",
      "outputs": [
        {
          "internalType": "uint256[]",
          "name": "",
          "type": "uint256[]"
        }
      ],
      "stateMutability": "view",
      "type": "function"
    },
    {
      "inputs": [
        {
          "internalType": "uint256",
          "name": "_taskId",
          "type": "uint256"
        }
      ],
      "name": "getTaskInsurancePolicy",
      "outputs": [
        {
          "internalType": "uint256",
          "name": "",
          "type": "uint256"
        }
      ],
      "stateMutability": "view",
      "type": "function"
    },
    {
      "inputs": [
        {
          "internalType": "uint256",
          "name": "_taskId",
          "type": "uint256"
        }
      ],
      "name": "getTaskSyndicate",
      "outputs": [
        {
          "internalType": "uint256",
          "name": "",
          "type": "uint256"
        }
      ],
      "stateMutability": "view",
      "type": "function"
    },
    {
      "inputs": [
        {
          "internalType": "uint256",
          "name": "_taskId",
          "type": "uint256"
        }
      ],
      "name": "getTaskVerifiers",
      "outputs": [
        {
          "internalType": "address[]",
          "name": "",
          "type": "address[]"
        }
      ],
      "stateMutability": "view",
      "type": "function"
    },
    {
      "inputs": [
        {
          "internalType": "uint256",
          "name": "_taskId",
          "type": "uint256"
        }
      ],
      "name": "getVerifications",
      "outputs": [
        {
          "components": [
            {
              "internalType": "address",
              "name": "verifier",
              "type": "address"
            },
            {
              "internalType": "uint256",
              "name": "stake",
              "type": "uint256"
            },
            {
              "internalType": "enum ArenaCore.VerifierVote",
              "name": "vote",
              "type": "uint8"
            },
            {
              "internalType": "bytes32",
              "name": "reportHash",
              "type": "bytes32"
            }
          ],
          "internalType": "struct ArenaCore.Verification[]",
          "name": "",
          "type": "tuple[]"
        }
      ],
      "stateMutability": "view",
      "type": "function"
    },
    {
      "inputs": [
        {
          "internalType": "address",
          "name": "_verifier",
          "type": "address"
        },
        {
          "internalType": "address",
          "name": "_agent",
          "type": "address"
        }
      ],
      "name": "getVerifierAgentPairStats",
      "outputs": [
        {
          "internalType": "uint256",
          "name": "count",
          "type": "uint256"
        },
        {
          "internalType": "uint256",
          "name": "lastTimestamp",
          "type": "uint256"
        }
      ],
      "stateMutability": "view",
      "type": "function"
    },
    {
      "inputs": [
        {
          "internalType": "address",
          "name": "_verifier",
          "type": "address"
        }
      ],
      "name": "getVerifierAnomalyProfile",
      "outputs": [
        {
          "internalType": "uint256",
          "name": "totalVotes",
          "type": "uint256"
        },
        {
          "internalType": "uint256",
          "name": "approvals",
          "type": "uint256"
        },
        {
          "internalType": "uint256",
          "name": "approvalRateBps",
          "type": "uint256"
        },
        {
          "internalType": "uint256",
          "name": "distinctAgents",
          "type": "uint256"
        },
        {
          "internalType": "uint256",
          "name": "anomalyCount",
          "type": "uint256"
        },
        {
          "internalType": "bool",
          "name": "flagged",
          "type": "bool"
        }
      ],
      "stateMutability": "view",
      "type": "function"
    },
    {
      "inputs": [],
      "name": "getVerifierPool",
      "outputs": [
        {
          "internalType": "address[]",
          "name": "",
          "type": "address[]"
        }
      ],
      "stateMutability": "view",
      "type": "function"
    },
    {
      "inputs": [],
      "name": "getVerifierPoolSize",
      "outputs": [
        {
          "internalType": "uint256",
          "name": "",
          "type": "uint256"
        }
      ],
      "stateMutability": "view",
      "type": "function"
    },
    {
      "inputs": [
        {
          "internalType": "address",
          "name": "_verifier",
          "type": "address"
        }
      ],
      "name": "getVerifierRegistration",
      "outputs": [
        {
          "components": [
            {
              "internalType": "uint256",
              "name": "stake",
              "type": "uint256"
            },
            {
              "internalType": "bool",
              "name": "active",
              "type": "bool"
            },
            {
              "internalType": "uint256",
              "name": "registeredAt",
              "type": "uint256"
            }
          ],
          "internalType": "struct ArenaCore.VerifierRegistration",
          "name": "",
          "type": "tuple"
        }
      ],
      "stateMutability": "view",
      "type": "function"
    },
    {
      "inputs": [
        {
          "internalType": "address",
          "name": "",
          "type": "address"
        }
      ],
      "name": "honeypotFlags",
      "outputs": [
        {
          "internalType": "uint256",
          "name": "",
          "type": "uint256"
        }
      ],
      "stateMutability": "view",
      "type": "function"
    },
    {
      "inputs": [],
      "name": "insuranceOfferCount",
      "outputs": [
        {
          "internalType": "uint256",
          "name": "",
          "type": "uint256"
        }
      ],
      "stateMutability": "view",
      "type": "function"
    },
    {
      "inputs": [
        {
          "internalType": "uint256",
          "name": "",
          "type": "uint256"
        }
      ],
      "name": "insuranceOffers",
      "outputs": [
        {
          "internalType": "uint256",
          "name": "offerId",
          "type": "uint256"
        },
        {
          "internalType": "address",
          "name": "insurer",
          "type": "address"
        },
        {
          "internalType": "uint256",
          "name": "taskId",
          "type": "uint256"
        },
        {
          "internalType": "uint256",
          "name": "coverageBps",
          "type": "uint256"
        },
        {
          "internalType": "uint256",
          "name": "premiumBps",
          "type": "uint256"
        },
        {
          "internalType": "uint256",
          "name": "maxCoverage",
          "type": "uint256"
        },
        {
          "internalType": "uint256",
          "name": "premium",
          "type": "uint256"
        },
        {
          "internalType": "enum ArenaCore.InsuranceStatus",
          "name": "status",
          "type": "uint8"
        },
        {
          "internalType": "uint256",
          "name": "createdAt",
          "type": "uint256"
        }
      ],
      "stateMutability": "view",
      "type": "function"
    },
    {
      "inputs": [
        {
          "internalType": "uint256",
          "name": "",
          "type": "uint256"
        }
      ],
      "name": "insurancePolicies",
      "outputs": [
        {
          "internalType": "uint256",
          "name": "policyId",
          "type": "uint256"
        },
        {
          "internalType": "uint256",
          "name": "taskId",
          "type": "uint256"
        },
        {
          "internalType": "address",
          "name": "insurer",
          "type": "address"
        },
        {
          "internalType": "address",
          "name": "insured",
          "type": "address"
        },
        {
          "internalType": "address",
          "name": "token",
          "type": "address"
        },
        {
          "internalType": "uint256",
          "name": "coverageBps",
          "type": "uint256"
        },
        {
          "internalType": "uint256",
          "name": "maxCoverage",
          "type": "uint256"
        },
        {
          "internalType": "uint256",
          "name": "premiumPaid",
          "type": "uint256"
        },
        {
          "internalType": "uint256",
          "name": "claimedAmount",
          "type": "uint256"
        },
        {
          "internalType": "enum ArenaCore.InsuranceStatus",
          "name": "status",
          "type": "uint8"
        },
        {
          "internalType": "uint256",
          "name": "activatedAt",
          "type": "uint256"
        }
      ],
      "stateMutability": "view",
      "type": "function"
    },
    {
      "inputs": [],
      "name": "insurancePolicyCount",
      "outputs": [
        {
          "internalType": "uint256",
          "name": "",
          "type": "uint256"
        }
      ],
      "stateMutability": "view",
      "type": "function"
    },
    {
      "inputs": [
        {
          "internalType": "address",
          "name": "",
          "type": "address"
        }
      ],
      "name": "insurerLockedCapital",
      "outputs": [
        {
          "internalType": "uint256",
          "name": "",
          "type": "uint256"
        }
      ],
      "stateMutability": "view",
      "type": "function"
    },
    {
      "inputs": [
        {
          "internalType": "address",
          "name": "owner",
          "type": "address"
        },
        {
          "internalType": "address",
          "name": "operator",
          "type": "address"
        }
      ],
      "name": "isApprovedForAll",
      "outputs": [
        {
          "internalType": "bool",
          "name": "",
          "type": "bool"
        }
      ],
      "stateMutability": "view",
      "type": "function"
    },
    {
      "inputs": [
        {
          "internalType": "uint256",
          "name": "",
          "type": "uint256"
        }
      ],
      "name": "isHoneypot",
      "outputs": [
        {
          "internalType": "bool",
          "name": "",
          "type": "bool"
        }
      ],
      "stateMutability": "view",
      "type": "function"
    },
    {
      "inputs": [
        {
          "internalType": "address",
          "name": "_verifier",
          "type": "address"
        },
        {
          "internalType": "address",
          "name": "_agent",
          "type": "address"
        }
      ],
      "name": "isOnCooldown",
      "outputs": [
        {
          "internalType": "bool",
          "name": "onCooldown",
          "type": "bool"
        },
        {
          "internalType": "uint256",
          "name": "cooldownEnds",
          "type": "uint256"
        }
      ],
      "stateMutability": "view",
      "type": "function"
    },
    {
      "inputs": [
        {
          "internalType": "uint256",
          "name": "_syndicateId",
          "type": "uint256"
        },
        {
          "internalType": "uint256",
          "name": "_contribution",
          "type": "uint256"
        }
      ],
      "name": "joinSyndicate",
      "outputs": [],
      "stateMutability": "nonpayable",
      "type": "function"
    },
    {
      "inputs": [
        {
          "internalType": "uint256",
          "name": "_stake",
          "type": "uint256"
        }
      ],
      "name": "joinVerifierPool",
      "outputs": [],
      "stateMutability": "nonpayable",
      "type": "function"
    },
    {
      "inputs": [
        {
          "internalType": "address",
          "name": "",
          "type": "address"
        },
        {
          "internalType": "address",
          "name": "",
          "type": "address"
        }
      ],
      "name": "lastVerifiedTimestamp",
      "outputs": [
        {
          "internalType": "uint256",
          "name": "",
          "type": "uint256"
        }
      ],
      "stateMutability": "view",
      "type": "function"
    },
    {
      "inputs": [
        {
          "internalType": "uint256",
          "name": "_syndicateId",
          "type": "uint256"
        }
      ],
      "name": "leaveSyndicate",
      "outputs": [],
      "stateMutability": "nonpayable",
      "type": "function"
    },
    {
      "inputs": [],
      "name": "leaveVerifierPool",
      "outputs": [],
      "stateMutability": "nonpayable",
      "type": "function"
    },
    {
      "inputs": [
        {
          "internalType": "uint256",
          "name": "_contractId",
          "type": "uint256"
        },
        {
          "internalType": "uint8",
          "name": "_checkpointIndex",
          "type": "uint8"
        }
      ],
      "name": "markCheckpointMissed",
      "outputs": [],
      "stateMutability": "nonpayable",
      "type": "function"
    },
    {
      "inputs": [],
      "name": "minVerifierRegistryStake",
      "outputs": [
        {
          "internalType": "uint256",
          "name": "",
          "type": "uint256"
        }
      ],
      "stateMutability": "view",
      "type": "function"
    },
    {
      "inputs": [
        {
          "internalType": "address",
          "name": "_agent",
          "type": "address"
        }
      ],
      "name": "mintReputationNFT",
      "outputs": [
        {
          "internalType": "uint256",
          "name": "tokenId",
          "type": "uint256"
        }
      ],
      "stateMutability": "nonpayable",
      "type": "function"
    },
    {
      "inputs": [],
      "name": "name",
      "outputs": [
        {
          "internalType": "string",
          "name": "",
          "type": "string"
        }
      ],
      "stateMutability": "view",
      "type": "function"
    },
    {
      "inputs": [
        {
          "internalType": "uint256",
          "name": "_taskId",
          "type": "uint256"
        },
        {
          "internalType": "uint256",
          "name": "_coverageBps",
          "type": "uint256"
        },
        {
          "internalType": "uint256",
          "name": "_premiumBps",
          "type": "uint256"
        }
      ],
      "name": "offerInsurance",
      "outputs": [
        {
          "internalType": "uint256",
          "name": "offerId",
          "type": "uint256"
        }
      ],
      "stateMutability": "nonpayable",
      "type": "function"
    },
    {
      "inputs": [],
      "name": "owner",
      "outputs": [
        {
          "internalType": "address",
          "name": "",
          "type": "address"
        }
      ],
      "stateMutability": "view",
      "type": "function"
    },
    {
      "inputs": [
        {
          "internalType": "uint256",
          "name": "tokenId",
          "type": "uint256"
        }
      ],
      "name": "ownerOf",
      "outputs": [
        {
          "internalType": "address",
          "name": "",
          "type": "address"
        }
      ],
      "stateMutability": "view",
      "type": "function"
    },
    {
      "inputs": [],
      "name": "pause",
      "outputs": [],
      "stateMutability": "nonpayable",
      "type": "function"
    },
    {
      "inputs": [],
      "name": "paused",
      "outputs": [
        {
          "internalType": "bool",
          "name": "",
          "type": "bool"
        }
      ],
      "stateMutability": "view",
      "type": "function"
    },
    {
      "inputs": [
        {
          "internalType": "uint256",
          "name": "_taskId",
          "type": "uint256"
        },
        {
          "internalType": "enum ArenaCore.SlashSeverity",
          "name": "_severity",
          "type": "uint8"
        }
      ],
      "name": "postCompletionSlash",
      "outputs": [],
      "stateMutability": "nonpayable",
      "type": "function"
    },
    {
      "inputs": [],
      "name": "protocolTreasury",
      "outputs": [
        {
          "internalType": "uint256",
          "name": "",
          "type": "uint256"
        }
      ],
      "stateMutability": "view",
      "type": "function"
    },
    {
      "inputs": [
        {
          "internalType": "uint256",
          "name": "_contractId",
          "type": "uint256"
        },
        {
          "internalType": "uint8",
          "name": "_checkpointIndex",
          "type": "uint8"
        }
      ],
      "name": "raiseCheckpointDispute",
      "outputs": [],
      "stateMutability": "nonpayable",
      "type": "function"
    },
    {
      "inputs": [
        {
          "internalType": "uint256",
          "name": "_taskId",
          "type": "uint256"
        }
      ],
      "name": "raiseDispute",
      "outputs": [],
      "stateMutability": "nonpayable",
      "type": "function"
    },
    {
      "inputs": [
        {
          "internalType": "uint256",
          "name": "_requestId",
          "type": "uint256"
        },
        {
          "internalType": "uint256[]",
          "name": "_randomWords",
          "type": "uint256[]"
        }
      ],
      "name": "rawFulfillRandomWords",
      "outputs": [],
      "stateMutability": "nonpayable",
      "type": "function"
    },
    {
      "inputs": [
        {
          "internalType": "uint256",
          "name": "_bounty",
          "type": "uint256"
        },
        {
          "internalType": "uint256",
          "name": "_deadlineDuration",
          "type": "uint256"
        }
      ],
      "name": "recommendChain",
      "outputs": [
        {
          "internalType": "enum ArenaCore.SettlementChain",
          "name": "",
          "type": "uint8"
        }
      ],
      "stateMutability": "view",
      "type": "function"
    },
    {
      "inputs": [
        {
          "internalType": "uint256",
          "name": "_contractId",
          "type": "uint256"
        },
        {
          "internalType": "uint8",
          "name": "_checkpointIndex",
          "type": "uint8"
        },
        {
          "internalType": "uint256",
          "name": "_stake",
          "type": "uint256"
        }
      ],
      "name": "registerCheckpointVerifier",
      "outputs": [],
      "stateMutability": "nonpayable",
      "type": "function"
    },
    {
      "inputs": [
        {
          "internalType": "uint256",
          "name": "_taskId",
          "type": "uint256"
        },
        {
          "internalType": "uint256",
          "name": "_stake",
          "type": "uint256"
        }
      ],
      "name": "registerVerifier",
      "outputs": [],
      "stateMutability": "nonpayable",
      "type": "function"
    },
    {
      "inputs": [],
      "name": "renounceOwnership",
      "outputs": [],
      "stateMutability": "nonpayable",
      "type": "function"
    },
    {
      "inputs": [],
      "name": "reputationTokenCount",
      "outputs": [
        {
          "internalType": "uint256",
          "name": "",
          "type": "uint256"
        }
      ],
      "stateMutability": "view",
      "type": "function"
    },
    {
      "inputs": [
        {
          "internalType": "uint256",
          "name": "_taskId",
          "type": "uint256"
        }
      ],
      "name": "resolveAuction",
      "outputs": [],
      "stateMutability": "nonpayable",
      "type": "function"
    },
    {
      "inputs": [
        {
          "internalType": "uint256",
          "name": "_contractId",
          "type": "uint256"
        }
      ],
      "name": "resolveContinuousAuction",
      "outputs": [],
      "stateMutability": "nonpayable",
      "type": "function"
    },
    {
      "inputs": [
        {
          "internalType": "uint256",
          "name": "_taskId",
          "type": "uint256"
        },
        {
          "internalType": "uint256",
          "name": "_stake",
          "type": "uint256"
        },
        {
          "internalType": "uint256",
          "name": "_price",
          "type": "uint256"
        },
        {
          "internalType": "uint256",
          "name": "_eta",
          "type": "uint256"
        },
        {
          "internalType": "bytes32",
          "name": "_salt",
          "type": "bytes32"
        }
      ],
      "name": "revealBid",
      "outputs": [],
      "stateMutability": "nonpayable",
      "type": "function"
    },
    {
      "inputs": [
        {
          "internalType": "uint256",
          "name": "_contractId",
          "type": "uint256"
        },
        {
          "internalType": "uint256",
          "name": "_stake",
          "type": "uint256"
        },
        {
          "internalType": "uint256",
          "name": "_price",
          "type": "uint256"
        },
        {
          "internalType": "uint256",
          "name": "_eta",
          "type": "uint256"
        },
        {
          "internalType": "bytes32",
          "name": "_salt",
          "type": "bytes32"
        }
      ],
      "name": "revealContinuousBid",
      "outputs": [],
      "stateMutability": "nonpayable",
      "type": "function"
    },
    {
      "inputs": [
        {
          "internalType": "address",
          "name": "from",
          "type": "address"
        },
        {
          "internalType": "address",
          "name": "to",
          "type": "address"
        },
        {
          "internalType": "uint256",
          "name": "tokenId",
          "type": "uint256"
        }
      ],
      "name": "safeTransferFrom",
      "outputs": [],
      "stateMutability": "nonpayable",
      "type": "function"
    },
    {
      "inputs": [
        {
          "internalType": "address",
          "name": "from",
          "type": "address"
        },
        {
          "internalType": "address",
          "name": "to",
          "type": "address"
        },
        {
          "internalType": "uint256",
          "name": "tokenId",
          "type": "uint256"
        },
        {
          "internalType": "bytes",
          "name": "data",
          "type": "bytes"
        }
      ],
      "name": "safeTransferFrom",
      "outputs": [],
      "stateMutability": "nonpayable",
      "type": "function"
    },
    {
      "inputs": [
        {
          "internalType": "address",
          "name": "operator",
          "type": "address"
        },
        {
          "internalType": "bool",
          "name": "approved",
          "type": "bool"
        }
      ],
      "name": "setApprovalForAll",
      "outputs": [],
      "stateMutability": "nonpayable",
      "type": "function"
    },
    {
      "inputs": [
        {
          "internalType": "uint256",
          "name": "_taskId",
          "type": "uint256"
        },
        {
          "internalType": "enum ArenaCore.SettlementChain",
          "name": "_preferredChain",
          "type": "uint8"
        },
        {
          "internalType": "uint8",
          "name": "_speedPriority",
          "type": "uint8"
        },
        {
          "internalType": "uint8",
          "name": "_securityPriority",
          "type": "uint8"
        },
        {
          "internalType": "uint8",
          "name": "_costPriority",
          "type": "uint8"
        }
      ],
      "name": "setChainPreference",
      "outputs": [],
      "stateMutability": "nonpayable",
      "type": "function"
    },
    {
      "inputs": [
        {
          "internalType": "uint256",
          "name": "_low",
          "type": "uint256"
        },
        {
          "internalType": "uint256",
          "name": "_high",
          "type": "uint256"
        },
        {
          "internalType": "uint256",
          "name": "_deadlineThreshold",
          "type": "uint256"
        }
      ],
      "name": "setChainThresholds",
      "outputs": [],
      "stateMutability": "nonpayable",
      "type": "function"
    },
    {
      "inputs": [
        {
          "internalType": "uint256",
          "name": "_revenueShareBps",
          "type": "uint256"
        },
        {
          "internalType": "address",
          "name": "_token",
          "type": "address"
        }
      ],
      "name": "setDelegatorRevenueShare",
      "outputs": [],
      "stateMutability": "nonpayable",
      "type": "function"
    },
    {
      "inputs": [
        {
          "internalType": "uint256",
          "name": "_cooldownPeriod",
          "type": "uint256"
        }
      ],
      "name": "setVerifierCooldown",
      "outputs": [],
      "stateMutability": "nonpayable",
      "type": "function"
    },
    {
      "inputs": [
        {
          "internalType": "uint256",
          "name": "_taskId",
          "type": "uint256"
        }
      ],
      "name": "settleHoneypot",
      "outputs": [],
      "stateMutability": "nonpayable",
      "type": "function"
    },
    {
      "inputs": [
        {
          "internalType": "uint256",
          "name": "_taskId",
          "type": "uint256"
        }
      ],
      "name": "settleInsurance",
      "outputs": [],
      "stateMutability": "nonpayable",
      "type": "function"
    },
    {
      "inputs": [
        {
          "internalType": "uint256",
          "name": "",
          "type": "uint256"
        }
      ],
      "name": "slashBonds",
      "outputs": [
        {
          "internalType": "uint256",
          "name": "",
          "type": "uint256"
        }
      ],
      "stateMutability": "view",
      "type": "function"
    },
    {
      "inputs": [
        {
          "internalType": "uint256",
          "name": "_disputeId",
          "type": "uint256"
        }
      ],
      "name": "stakeAsArbitrator",
      "outputs": [],
      "stateMutability": "nonpayable",
      "type": "function"
    },
    {
      "inputs": [
        {
          "internalType": "uint256",
          "name": "_disputeId",
          "type": "uint256"
        },
        {
          "internalType": "enum ArenaCore.ArbitratorVote",
          "name": "_vote",
          "type": "uint8"
        }
      ],
      "name": "submitArbitrationVote",
      "outputs": [],
      "stateMutability": "nonpayable",
      "type": "function"
    },
    {
      "inputs": [
        {
          "internalType": "uint256",
          "name": "_contractId",
          "type": "uint256"
        },
        {
          "internalType": "uint8",
          "name": "_checkpointIndex",
          "type": "uint8"
        },
        {
          "internalType": "bytes32",
          "name": "_outputHash",
          "type": "bytes32"
        }
      ],
      "name": "submitCheckpoint",
      "outputs": [],
      "stateMutability": "nonpayable",
      "type": "function"
    },
    {
      "inputs": [
        {
          "internalType": "uint256",
          "name": "_contractId",
          "type": "uint256"
        },
        {
          "internalType": "uint8",
          "name": "_checkpointIndex",
          "type": "uint8"
        },
        {
          "internalType": "enum ArenaCore.VerifierVote",
          "name": "_vote",
          "type": "uint8"
        },
        {
          "internalType": "bytes32",
          "name": "_reportHash",
          "type": "bytes32"
        }
      ],
      "name": "submitCheckpointVerification",
      "outputs": [],
      "stateMutability": "nonpayable",
      "type": "function"
    },
    {
      "inputs": [
        {
          "internalType": "uint256",
          "name": "_taskId",
          "type": "uint256"
        },
        {
          "internalType": "enum ArenaCore.VerifierVote",
          "name": "_vote",
          "type": "uint8"
        },
        {
          "internalType": "bytes32",
          "name": "_reportHash",
          "type": "bytes32"
        }
      ],
      "name": "submitVerification",
      "outputs": [],
      "stateMutability": "nonpayable",
      "type": "function"
    },
    {
      "inputs": [
        {
          "internalType": "bytes4",
          "name": "interfaceId",
          "type": "bytes4"
        }
      ],
      "name": "supportsInterface",
      "outputs": [
        {
          "internalType": "bool",
          "name": "",
          "type": "bool"
        }
      ],
      "stateMutability": "view",
      "type": "function"
    },
    {
      "inputs": [],
      "name": "symbol",
      "outputs": [
        {
          "internalType": "string",
          "name": "",
          "type": "string"
        }
      ],
      "stateMutability": "view",
      "type": "function"
    },
    {
      "inputs": [
        {
          "internalType": "uint256",
          "name": "",
          "type": "uint256"
        }
      ],
      "name": "syndicateActiveTasks",
      "outputs": [
        {
          "internalType": "uint256",
          "name": "",
          "type": "uint256"
        }
      ],
      "stateMutability": "view",
      "type": "function"
    },
    {
      "inputs": [
        {
          "internalType": "uint256",
          "name": "_syndicateId",
          "type": "uint256"
        },
        {
          "internalType": "uint256",
          "name": "_taskId",
          "type": "uint256"
        },
        {
          "internalType": "bytes32",
          "name": "_commitHash",
          "type": "bytes32"
        }
      ],
      "name": "syndicateCommitBid",
      "outputs": [],
      "stateMutability": "nonpayable",
      "type": "function"
    },
    {
      "inputs": [],
      "name": "syndicateCount",
      "outputs": [
        {
          "internalType": "uint256",
          "name": "",
          "type": "uint256"
        }
      ],
      "stateMutability": "view",
      "type": "function"
    },
    {
      "inputs": [
        {
          "internalType": "uint256",
          "name": "",
          "type": "uint256"
        },
        {
          "internalType": "uint256",
          "name": "",
          "type": "uint256"
        }
      ],
      "name": "syndicateMemberList",
      "outputs": [
        {
          "internalType": "address",
          "name": "",
          "type": "address"
        }
      ],
      "stateMutability": "view",
      "type": "function"
    },
    {
      "inputs": [
        {
          "internalType": "uint256",
          "name": "",
          "type": "uint256"
        },
        {
          "internalType": "address",
          "name": "",
          "type": "address"
        }
      ],
      "name": "syndicateMembers",
      "outputs": [
        {
          "internalType": "address",
          "name": "member",
          "type": "address"
        },
        {
          "internalType": "uint256",
          "name": "contribution",
          "type": "uint256"
        },
        {
          "internalType": "uint256",
          "name": "joinedAt",
          "type": "uint256"
        }
      ],
      "stateMutability": "view",
      "type": "function"
    },
    {
      "inputs": [
        {
          "internalType": "uint256",
          "name": "_syndicateId",
          "type": "uint256"
        },
        {
          "internalType": "uint256",
          "name": "_taskId",
          "type": "uint256"
        },
        {
          "internalType": "uint256",
          "name": "_stake",
          "type": "uint256"
        },
        {
          "internalType": "uint256",
          "name": "_price",
          "type": "uint256"
        },
        {
          "internalType": "uint256",
          "name": "_eta",
          "type": "uint256"
        },
        {
          "internalType": "bytes32",
          "name": "_salt",
          "type": "bytes32"
        }
      ],
      "name": "syndicateRevealBid",
      "outputs": [],
      "stateMutability": "nonpayable",
      "type": "function"
    },
    {
      "inputs": [
        {
          "internalType": "uint256",
          "name": "",
          "type": "uint256"
        }
      ],
      "name": "syndicateStakedOnTask",
      "outputs": [
        {
          "internalType": "uint256",
          "name": "",
          "type": "uint256"
        }
      ],
      "stateMutability": "view",
      "type": "function"
    },
    {
      "inputs": [
        {
          "internalType": "uint256",
          "name": "",
          "type": "uint256"
        }
      ],
      "name": "syndicateTaskDistributed",
      "outputs": [
        {
          "internalType": "bool",
          "name": "",
          "type": "bool"
        }
      ],
      "stateMutability": "view",
      "type": "function"
    },
    {
      "inputs": [
        {
          "internalType": "uint256",
          "name": "",
          "type": "uint256"
        }
      ],
      "name": "syndicateTaskLossDistributed",
      "outputs": [
        {
          "internalType": "bool",
          "name": "",
          "type": "bool"
        }
      ],
      "stateMutability": "view",
      "type": "function"
    },
    {
      "inputs": [
        {
          "internalType": "uint256",
          "name": "",
          "type": "uint256"
        }
      ],
      "name": "syndicateTaskPayout",
      "outputs": [
        {
          "internalType": "uint256",
          "name": "",
          "type": "uint256"
        }
      ],
      "stateMutability": "view",
      "type": "function"
    },
    {
      "inputs": [
        {
          "internalType": "uint256",
          "name": "",
          "type": "uint256"
        }
      ],
      "name": "syndicates",
      "outputs": [
        {
          "internalType": "uint256",
          "name": "syndicateId",
          "type": "uint256"
        },
        {
          "internalType": "string",
          "name": "name",
          "type": "string"
        },
        {
          "internalType": "address",
          "name": "manager",
          "type": "address"
        },
        {
          "internalType": "address",
          "name": "token",
          "type": "address"
        },
        {
          "internalType": "uint256",
          "name": "totalStake",
          "type": "uint256"
        },
        {
          "internalType": "uint256",
          "name": "memberCount",
          "type": "uint256"
        },
        {
          "internalType": "enum ArenaCore.SyndicateStatus",
          "name": "status",
          "type": "uint8"
        },
        {
          "internalType": "uint256",
          "name": "createdAt",
          "type": "uint256"
        }
      ],
      "stateMutability": "view",
      "type": "function"
    },
    {
      "inputs": [
        {
          "internalType": "uint256",
          "name": "",
          "type": "uint256"
        }
      ],
      "name": "taskBestBidder",
      "outputs": [
        {
          "internalType": "address",
          "name": "",
          "type": "address"
        }
      ],
      "stateMutability": "view",
      "type": "function"
    },
    {
      "inputs": [
        {
          "internalType": "uint256",
          "name": "",
          "type": "uint256"
        }
      ],
      "name": "taskBestScore",
      "outputs": [
        {
          "internalType": "uint256",
          "name": "",
          "type": "uint256"
        }
      ],
      "stateMutability": "view",
      "type": "function"
    },
    {
      "inputs": [
        {
          "internalType": "uint256",
          "name": "",
          "type": "uint256"
        },
        {
          "internalType": "uint256",
          "name": "",
          "type": "uint256"
        }
      ],
      "name": "taskBidders",
      "outputs": [
        {
          "internalType": "address",
          "name": "",
          "type": "address"
        }
      ],
      "stateMutability": "view",
      "type": "function"
    },
    {
      "inputs": [
        {
          "internalType": "uint256",
          "name": "",
          "type": "uint256"
        }
      ],
      "name": "taskBondSlashAmount",
      "outputs": [
        {
          "internalType": "uint256",
          "name": "",
          "type": "uint256"
        }
      ],
      "stateMutability": "view",
      "type": "function"
    },
    {
      "inputs": [
        {
          "internalType": "uint256",
          "name": "",
          "type": "uint256"
        }
      ],
      "name": "taskChainPreference",
      "outputs": [
        {
          "internalType": "enum ArenaCore.SettlementChain",
          "name": "preferredChain",
          "type": "uint8"
        },
        {
          "internalType": "uint8",
          "name": "speedPriority",
          "type": "uint8"
        },
        {
          "internalType": "uint8",
          "name": "securityPriority",
          "type": "uint8"
        },
        {
          "internalType": "uint8",
          "name": "costPriority",
          "type": "uint8"
        },
        {
          "internalType": "enum ArenaCore.SettlementChain",
          "name": "recommendedChain",
          "type": "uint8"
        }
      ],
      "stateMutability": "view",
      "type": "function"
    },
    {
      "inputs": [],
      "name": "taskCount",
      "outputs": [
        {
          "internalType": "uint256",
          "name": "",
          "type": "uint256"
        }
      ],
      "stateMutability": "view",
      "type": "function"
    },
    {
      "inputs": [
        {
          "internalType": "uint256",
          "name": "",
          "type": "uint256"
        }
      ],
      "name": "taskDelegations",
      "outputs": [
        {
          "internalType": "address",
          "name": "agent",
          "type": "address"
        },
        {
          "internalType": "uint256",
          "name": "ownStake",
          "type": "uint256"
        },
        {
          "internalType": "uint256",
          "name": "delegatedStake",
          "type": "uint256"
        },
        {
          "internalType": "uint256",
          "name": "revenueShareBps",
          "type": "uint256"
        },
        {
          "internalType": "uint256",
          "name": "poolSnapshotTotal",
          "type": "uint256"
        },
        {
          "internalType": "uint256",
          "name": "escrowPayout",
          "type": "uint256"
        },
        {
          "internalType": "uint256",
          "name": "escrowStakeReturn",
          "type": "uint256"
        },
        {
          "internalType": "bool",
          "name": "settled",
          "type": "bool"
        }
      ],
      "stateMutability": "view",
      "type": "function"
    },
    {
      "inputs": [
        {
          "internalType": "uint256",
          "name": "",
          "type": "uint256"
        }
      ],
      "name": "taskDispute",
      "outputs": [
        {
          "internalType": "uint256",
          "name": "",
          "type": "uint256"
        }
      ],
      "stateMutability": "view",
      "type": "function"
    },
    {
      "inputs": [
        {
          "internalType": "uint256",
          "name": "",
          "type": "uint256"
        },
        {
          "internalType": "uint256",
          "name": "",
          "type": "uint256"
        }
      ],
      "name": "taskInsuranceOffers",
      "outputs": [
        {
          "internalType": "uint256",
          "name": "",
          "type": "uint256"
        }
      ],
      "stateMutability": "view",
      "type": "function"
    },
    {
      "inputs": [
        {
          "internalType": "uint256",
          "name": "",
          "type": "uint256"
        }
      ],
      "name": "taskInsurancePolicy",
      "outputs": [
        {
          "internalType": "uint256",
          "name": "",
          "type": "uint256"
        }
      ],
      "stateMutability": "view",
      "type": "function"
    },
    {
      "inputs": [
        {
          "internalType": "uint256",
          "name": "",
          "type": "uint256"
        }
      ],
      "name": "taskSlashAmount",
      "outputs": [
        {
          "internalType": "uint256",
          "name": "",
          "type": "uint256"
        }
      ],
      "stateMutability": "view",
      "type": "function"
    },
    {
      "inputs": [
        {
          "internalType": "uint256",
          "name": "",
          "type": "uint256"
        }
      ],
      "name": "taskSyndicate",
      "outputs": [
        {
          "internalType": "uint256",
          "name": "",
          "type": "uint256"
        }
      ],
      "stateMutability": "view",
      "type": "function"
    },
    {
      "inputs": [
        {
          "internalType": "uint256",
          "name": "",
          "type": "uint256"
        },
        {
          "internalType": "uint256",
          "name": "",
          "type": "uint256"
        }
      ],
      "name": "taskVerifiers",
      "outputs": [
        {
          "internalType": "address",
          "name": "",
          "type": "address"
        }
      ],
      "stateMutability": "view",
      "type": "function"
    },
    {
      "inputs": [
        {
          "internalType": "uint256",
          "name": "",
          "type": "uint256"
        }
      ],
      "name": "tasks",
      "outputs": [
        {
          "internalType": "address",
          "name": "poster",
          "type": "address"
        },
        {
          "internalType": "address",
          "name": "token",
          "type": "address"
        },
        {
          "internalType": "uint256",
          "name": "bounty",
          "type": "uint256"
        },
        {
          "internalType": "uint256",
          "name": "deadline",
          "type": "uint256"
        },
        {
          "internalType": "uint256",
          "name": "slashWindow",
          "type": "uint256"
        },
        {
          "internalType": "uint256",
          "name": "createdAt",
          "type": "uint256"
        },
        {
          "internalType": "uint256",
          "name": "bidDeadline",
          "type": "uint256"
        },
        {
          "internalType": "uint256",
          "name": "revealDeadline",
          "type": "uint256"
        },
        {
          "internalType": "uint8",
          "name": "requiredVerifiers",
          "type": "uint8"
        },
        {
          "internalType": "enum ArenaCore.TaskStatus",
          "name": "status",
          "type": "uint8"
        },
        {
          "internalType": "bytes32",
          "name": "criteriaHash",
          "type": "bytes32"
        },
        {
          "internalType": "string",
          "name": "taskType",
          "type": "string"
        }
      ],
      "stateMutability": "view",
      "type": "function"
    },
    {
      "inputs": [
        {
          "internalType": "uint256",
          "name": "",
          "type": "uint256"
        }
      ],
      "name": "tokenAgent",
      "outputs": [
        {
          "internalType": "address",
          "name": "",
          "type": "address"
        }
      ],
      "stateMutability": "view",
      "type": "function"
    },
    {
      "inputs": [
        {
          "internalType": "uint256",
          "name": "tokenId",
          "type": "uint256"
        }
      ],
      "name": "tokenURI",
      "outputs": [
        {
          "internalType": "string",
          "name": "",
          "type": "string"
        }
      ],
      "stateMutability": "view",
      "type": "function"
    },
    {
      "inputs": [
        {
          "internalType": "address",
          "name": "from",
          "type": "address"
        },
        {
          "internalType": "address",
          "name": "to",
          "type": "address"
        },
        {
          "internalType": "uint256",
          "name": "tokenId",
          "type": "uint256"
        }
      ],
      "name": "transferFrom",
      "outputs": [],
      "stateMutability": "nonpayable",
      "type": "function"
    },
    {
      "inputs": [
        {
          "internalType": "address",
          "name": "newOwner",
          "type": "address"
        }
      ],
      "name": "transferOwnership",
      "outputs": [],
      "stateMutability": "nonpayable",
      "type": "function"
    },
    {
      "inputs": [
        {
          "internalType": "address",
          "name": "_agent",
          "type": "address"
        }
      ],
      "name": "unbanAgent",
      "outputs": [],
      "stateMutability": "nonpayable",
      "type": "function"
    },
    {
      "inputs": [],
      "name": "unpause",
      "outputs": [],
      "stateMutability": "nonpayable",
      "type": "function"
    },
    {
      "inputs": [
        {
          "internalType": "uint256",
          "name": "",
          "type": "uint256"
        },
        {
          "internalType": "uint256",
          "name": "",
          "type": "uint256"
        }
      ],
      "name": "verifications",
      "outputs": [
        {
          "internalType": "address",
          "name": "verifier",
          "type": "address"
        },
        {
          "internalType": "uint256",
          "name": "stake",
          "type": "uint256"
        },
        {
          "internalType": "enum ArenaCore.VerifierVote",
          "name": "vote",
          "type": "uint8"
        },
        {
          "internalType": "bytes32",
          "name": "reportHash",
          "type": "bytes32"
        }
      ],
      "stateMutability": "view",
      "type": "function"
    },
    {
      "inputs": [
        {
          "internalType": "address",
          "name": "",
          "type": "address"
        },
        {
          "internalType": "address",
          "name": "",
          "type": "address"
        }
      ],
      "name": "verifierAgentPairCount",
      "outputs": [
        {
          "internalType": "uint256",
          "name": "",
          "type": "uint256"
        }
      ],
      "stateMutability": "view",
      "type": "function"
    },
    {
      "inputs": [
        {
          "internalType": "address",
          "name": "",
          "type": "address"
        }
      ],
      "name": "verifierAnomalyCount",
      "outputs": [
        {
          "internalType": "uint256",
          "name": "",
          "type": "uint256"
        }
      ],
      "stateMutability": "view",
      "type": "function"
    },
    {
      "inputs": [
        {
          "internalType": "address",
          "name": "",
          "type": "address"
        }
      ],
      "name": "verifierApprovals",
      "outputs": [
        {
          "internalType": "uint256",
          "name": "",
          "type": "uint256"
        }
      ],
      "stateMutability": "view",
      "type": "function"
    },
    {
      "inputs": [
        {
          "internalType": "uint256",
          "name": "",
          "type": "uint256"
        }
      ],
      "name": "verifierAssignedAt",
      "outputs": [
        {
          "internalType": "uint256",
          "name": "",
          "type": "uint256"
        }
      ],
      "stateMutability": "view",
      "type": "function"
    },
    {
      "inputs": [],
      "name": "verifierCooldownPeriod",
      "outputs": [
        {
          "internalType": "uint256",
          "name": "",
          "type": "uint256"
        }
      ],
      "stateMutability": "view",
      "type": "function"
    },
    {
      "inputs": [
        {
          "internalType": "address",
          "name": "",
          "type": "address"
        }
      ],
      "name": "verifierDistinctAgents",
      "outputs": [
        {
          "internalType": "uint256",
          "name": "",
          "type": "uint256"
        }
      ],
      "stateMutability": "view",
      "type": "function"
    },
    {
      "inputs": [
        {
          "internalType": "address",
          "name": "",
          "type": "address"
        }
      ],
      "name": "verifierFlagged",
      "outputs": [
        {
          "internalType": "bool",
          "name": "",
          "type": "bool"
        }
      ],
      "stateMutability": "view",
      "type": "function"
    },
    {
      "inputs": [
        {
          "internalType": "uint256",
          "name": "",
          "type": "uint256"
        }
      ],
      "name": "verifierPool",
      "outputs": [
        {
          "internalType": "address",
          "name": "",
          "type": "address"
        }
      ],
      "stateMutability": "view",
      "type": "function"
    },
    {
      "inputs": [
        {
          "internalType": "address",
          "name": "",
          "type": "address"
        }
      ],
      "name": "verifierRegistry",
      "outputs": [
        {
          "internalType": "uint256",
          "name": "stake",
          "type": "uint256"
        },
        {
          "internalType": "bool",
          "name": "active",
          "type": "bool"
        },
        {
          "internalType": "uint256",
          "name": "registeredAt",
          "type": "uint256"
        }
      ],
      "stateMutability": "view",
      "type": "function"
    },
    {
      "inputs": [
        {
          "internalType": "address",
          "name": "",
          "type": "address"
        }
      ],
      "name": "verifierTotalVotes",
      "outputs": [
        {
          "internalType": "uint256",
          "name": "",
          "type": "uint256"
        }
      ],
      "stateMutability": "view",
      "type": "function"
    },
    {
      "inputs": [],
      "name": "vrfCallbackGasLimit",
      "outputs": [
        {
          "internalType": "uint32",
          "name": "",
          "type": "uint32"
        }
      ],
      "stateMutability": "view",
      "type": "function"
    },
    {
      "inputs": [],
      "name": "vrfCoordinator",
      "outputs": [
        {
          "internalType": "contract IVRFCoordinatorV2Plus",
          "name": "",
          "type": "address"
        }
      ],
      "stateMutability": "view",
      "type": "function"
    },
    {
      "inputs": [],
      "name": "vrfEnabled",
      "outputs": [
        {
          "internalType": "bool",
          "name": "",
          "type": "bool"
        }
      ],
      "stateMutability": "view",
      "type": "function"
    },
    {
      "inputs": [],
      "name": "vrfKeyHash",
      "outputs": [
        {
          "internalType": "bytes32",
          "name": "",
          "type": "bytes32"
        }
      ],
      "stateMutability": "view",
      "type": "function"
    },
    {
      "inputs": [],
      "name": "vrfRequestConfirmations",
      "outputs": [
        {
          "internalType": "uint16",
          "name": "",
          "type": "uint16"
        }
      ],
      "stateMutability": "view",
      "type": "function"
    },
    {
      "inputs": [
        {
          "internalType": "uint256",
          "name": "",
          "type": "uint256"
        }
      ],
      "name": "vrfRequestToDispute",
      "outputs": [
        {
          "internalType": "uint256",
          "name": "",
          "type": "uint256"
        }
      ],
      "stateMutability": "view",
      "type": "function"
    },
    {
      "inputs": [
        {
          "internalType": "uint256",
          "name": "",
          "type": "uint256"
        }
      ],
      "name": "vrfRequestToTask",
      "outputs": [
        {
          "internalType": "uint256",
          "name": "",
          "type": "uint256"
        }
      ],
      "stateMutability": "view",
      "type": "function"
    },
    {
      "inputs": [],
      "name": "vrfSubscriptionId",
      "outputs": [
        {
          "internalType": "uint256",
          "name": "",
          "type": "uint256"
        }
      ],
      "stateMutability": "view",
      "type": "function"
    },
    {
      "inputs": [
        {
          "internalType": "address",
          "name": "_agent",
          "type": "address"
        },
        {
          "internalType": "uint256",
          "name": "_amount",
          "type": "uint256"
        }
      ],
      "name": "withdrawDelegation",
      "outputs": [],
      "stateMutability": "nonpayable",
      "type": "function"
    },
    {
      "inputs": [
        {
          "internalType": "address",
          "name": "_to",
          "type": "address"
        }
      ],
      "name": "withdrawProtocolFees",
      "outputs": [],
      "stateMutability": "nonpayable",
      "type": "function"
    }
  ],
  "bytecode": "0x60a0604052346200041a57620163fd80380390816200001e8162000455565b92839283396020928391810103126200041a57516001600160a01b038082169290918390036200041a576000620000546200041f565b92601084526f20b932b730902932b83aba30ba34b7b760811b838501526200007b6200041f565b93600494858152630415245560e41b85820152600192838555331562000402578354336001600160a01b031982168117865591167f8be0079c531659141344cd1fd0a4f28419497f9722a3daafe3b4186f6b6457e08680a381516001600160401b039490858111620003ef57600254938585811c95168015620003e4575b88861014620003d1578190601f958681116200037d575b508890868311600114620003175784926200030b575b5050600019600383901b1c191690851b176002555b8151948511620002f8576003968754908582811c92168015620002ed575b88831014620002da575083811162000292575b50859285116001146200022c57939450849291908362000220575b50501b9160001990841b1c19161790555b64030007a12065ffffffffffff19602154161760215562093a80602555631dcd65006064556402540be400606555600560665560805260405162015f8190816200047c82396080518181816126a801528181615c6a0152818161621c0152818161993101528181619ff00152818161aa0e0152818161b6930152818161bb99015261d6e00152f35b01519250388062000187565b86815285812093958591601f198316915b888383106200027757505050106200025e575b505050811b01905562000198565b015160001983861b60f8161c1916905538808062000250565b8587015188559096019594850194879350908101906200023d565b8782528682208480880160051c820192898910620002d0575b0160051c019085905b828110620002c45750506200016c565b838155018590620002b4565b92508192620002ab565b634e487b7160e01b835260229052602482fd5b91607f169162000159565b634e487b7160e01b815260418752602490fd5b01519050388062000126565b600285528985208894509190601f198416865b8c8282106200036657505084116200034c575b505050811b016002556200013b565b015160001960f88460031b161c191690553880806200033d565b8385015186558b979095019493840193016200032a565b909150600284528884208680850160051c8201928b8610620003c7575b918991869594930160051c01915b828110620003b857505062000110565b868155859450899101620003a8565b925081926200039a565b634e487b7160e01b835260228952602483fd5b94607f1694620000f9565b634e487b7160e01b825260418852602482fd5b604051631e4fbdf760e01b8152808801869052602490fd5b600080fd5b60408051919082016001600160401b038111838210176200043f57604052565b634e487b7160e01b600052604160045260246000fd5b6040519190601f01601f191682016001600160401b038111838210176200043f5760405256fe60808060405260043610156200001457600080fd5b60003560e01c908162e36c1d14620102645750806301a5d67e146200ffdb57806301d23ae9146200a12457806301ffc9a7146200ff4a57806302c811d3146200894157806302f2fc5c146200fda9578063041d443e146200fd8a578063042a51eb146200fc6157806304684bb9146200fc1a57806306fdde03146200fb7d5780630766362a146200fb5d578063077bb684146200fb1f578063081812fc146200fadd578063095ea7b3146200f9eb57806309c71c031462002e025780630a9d645a146200f67a5780630aaca830146200f5995780630b466d28146200f57a5780630d28036a146200f53c5780630dfe082e146200f5065780630f584d46146200f4465780630f719b50146200f3f657806310c21061146200f3c35780631485e78c146200f1d15780631736d36c146200acbb578063187a21bb146200b58657806319252b1d146200eea15780631995dbd8146200e8ed578063199de1e2146200e4355780631d13c2c4146200e3be5780631d65e77e146200e1d55780631e35842a1462007e995780631fe543e3146200e1755780631ff4eb221462000da057806322345236146200e133578063232296e2146200e0f557806323b872dd146200e0d95780632439d614146200b27957806324568b9c146200dd475780632530d7f214620025425780632609c88d146200dc43578063263263f8146200d96b578063270c5f78146200d8f757806329e9e76c146200d7475780632d80caa5146200d6995780632d8de8f3146200d63f5780632e87eba6146200d6115780632fa8bec4146200d44b578063319b9efa146200d41d57806332be90051462008b245780633396a1f7146200d3e757806335618913146200855357806335a133d5146200d3b057806336230e04146200d3725780633641f1421462001e8b57806336949ebd146200d0dc57806336bc5be5146200cf9657806339bbc216146200c3d35780633a7c837b146200cf685780633ac8ff64146200cf155780633b7ed734146200ceef5780633b9f9e1d146200ce7a5780633bd5e28a146200ce475780633c2d8bae146200cb4d5780633c2fac06146200cb2e5780633c323a1b146200c8be5780633e5e0198146200c89f5780633ec541f2146200c8685780633f14bc57146200c44f5780633f1ffcec146200c3d95780633f322c45146200c3d35780633f4ba83a146200c35c5780633f85437c146200c33c57806342842e0e146200c30d57806342cf84c3146200c28b5780634393cd6e146200bfbd57806344ae89ee146200bf9d578063455598d9146200bc8d5780634587f654146200bae257806345cbe1d2146200b815578063481a81551462008b2457806349cf210f14620085815780634b245b1d146200b7d75780634b71a005146200b7a05780634b77e48d146200b6195780634c9e9571146200b5f95780634cc4f50d146200b5865780634e50c75c146200b58c5780634ee82004146200b5865780634fdafbac146200b52557806350ad4eee146200b49d57806352c68686146200b35357806353d3a2d7146200b33357806354de6e32146200b2f5578063569961ed146200b2b757806358837f81146200b279578063590327e0146200b25b578063598bc486146200b23557806359ed3a901462003e155780635a1a4283146200b1fe5780635c55b927146200b1d65780635c975abb146200b1ae5780635e387905146200b0ff5780635ec906a0146200b0a85780635ff5db93146200b052578063614550f1146200afcc5780636352211e146200af9857806364c0e530146200af5a57806366327661146200acc157806366b1749514620085815780636734fadf146200acbb5780636c20f492146200aae55780636cac73881462001e575780636ceab11d146200a9285780636d71a7dc146200a66d5780636e9ed963146200a20657806370a08231146200a1a8578063715018a6146200a158578063727869d8146200a12a57806372c5a136146200a12457806372f87759146200a0f857806372fa0ae8146200a01f57806374c13fda1462009fd857806374c571881462009faa57806374f220101462009f7957806375e9be041462009f33578063764c9c4014620097e35780637658e427146200977157806378f02ee114620096dc57806379c218b214620095aa5780637a04d47214620094fc5780637aaef0f0146200904c5780637eec20a81462008e555780637f6da8d31462008e045780637f931c1d1462008b2a5780637fbd28de1462008b245780637fffc42b1462008af6578063803db96d1462008ad6578063804156ea1462008a595780638208b4f014620089e55780638287c15914620089af5780638456cb5914620089475780638538304a1462001b10578063894c7594146200894157806389ce157e14620086ea5780638d977672146200860f5780638da5cb5b14620085e45780638f35087f14620085a65780638fe932ab146200858757806390e5a2f81462000d9a57806392511c8f146200249b57806392e969611462008581578063930b44eb14620085535780639468cb61146200835f57806394b2431b146200819757806394df7973146200810e57806395d89b411462008038578063960b59d01462000da057806397706de11462007ff5578063984143681462007fc75780639bdda0a51462007fa75780639c4840be1462007f875780639cb847241462007f2a5780639cf733ef1462007f0c5780639ec4b0b41462007ec7578063a13c439a1462007e99578063a1d49dad1462007db9578063a22cb4651462007d0f578063a28889e11462007cef578063a34836721462007cb8578063a37722e81462002542578063a3e56fa81462007c8d578063a5c1674e1462007870578063a5fec13214620077f3578063a778f99d14620074fa578063a7b1b3531462007066578063a9e9f6231462006d37578063aa60c5ea1462006d02578063aae5636a1462000da0578063acdb92ce1462006cc4578063adbdd2961462006a8d578063ae1d128214620069a0578063ae5f87fd1462006962578063affa538c1462006924578063b22f10fc1462001b10578063b44c47f31462001e85578063b5695b3814620068a3578063b681452b1462006870578063b6cb58a51462006850578063b6f2d6bf1462006797578063b72c33f51462006769578063b82672a01462006594578063b8644e8c146200616a578063b88d4fde14620060fd578063b8e154e21462006065578063b9d01ea71462006045578063bbf7b4731462005b92578063bc293c671462005b64578063bc799e501462005b45578063bca4f23a1462005b07578063be098d111462005a75578063be3782281462005a57578063be424bc81462005703578063bf2fb18c14620056a3578063c1478e601462005683578063c26c4453146200556d578063c53cd9ab1462000d9a578063c853b84d146200535e578063c87b56dd1462003e43578063c8923b0a1462003e15578063c8a12c4c1462003de7578063cb74bd481462003d73578063cebc5dcf1462003d53578063cf7e0a6a1462003ad9578063d21fa4c0146200387a578063d3170cd6146200385b578063d44bacf8146200353e578063d6bb9d7114620033c3578063d743c99614620033a3578063d9006956146200334c578063d9079298146200332c578063d9dd95b3146200326a578063d9e91ad9146200322c578063da771b431462002e9e578063dbcdf7331462002e08578063dc340bb31462002e02578063dd7aba411462002d3c578063e1a452181462000d94578063e2fe34671462002b4a578063e41eec561462002af3578063e49da9541462002a76578063e49fc4221462002a2f578063e4f517f21462002a10578063e5f8c86014620025e4578063e7097fec1462002548578063e7d18a911462002542578063e868ad0f146200249b578063e93ff469146200246d578063e985e9c51462002411578063e9e4ff951462002394578063ea62781d1462002149578063eaa69c6f1462002129578063eb12e1521462002064578063eba1b60b1462002002578063ebe6c4701462001fd3578063ec8a60f91462001f8b578063ed647d211462001f6b578063ee13c73d1462001f4b578063eecefef81462001ed2578063ef0d3f3c1462001e8b578063ef515eb71462001e85578063f0af16901462001e57578063f2558a551462001e19578063f2f937111462001b94578063f2fde38b1462001b16578063f4c658c81462001b10578063f4c80d4b1462001a89578063f6a9b0fa1462001a69578063f85920d81462001866578063f901043814620013c6578063f91ab6711462000ea6578063fb7096891462000e30578063fc55383c1462000da6578063fcd56cc81462000da0578063ff26c7561462000d9a578063ff3924b21462000d945763fff616be1462000ca357600080fd5b3462000d8f57604036600319011262000d8f5762000d8b62000cc4620102ba565b62000cce620123f1565b506004356000526033602052604060002060018060a01b03809216600052602052600460406000206040519262000d058462010753565b81548452600182015460ff81161515602086015260081c1660408401526002810154606084015260038101546080840152015460a08201526040519182918291909160a08060c083019480518452602081015115156020850152600180831b03604082015116604085015260608101516060850152608081015160808501520151910152565b0390f35b600080fd5b62010b14565b62010a59565b6201049b565b3462000d8f5760208060031936011262000d8f57600435600052600f6020526040600020906040519081602084549182815201936000526020600020916000905b82821062000e0f5762000d8b8562000e028189038262010870565b60405191829182620109f3565b83546001600160a01b03168652948501946001938401939091019062000de7565b3462000d8f57604036600319011262000d8f5760ff62000e4f620102ba565b6004356000526033602052604060002060018060a01b0380921660005260205262000d8b6040600020805490600181015460028201549060046003840154930154936040519788978360081c169216908762010654565b3462000d8f57602036600319011262000d8f57600435600052600a60205260ff60086040600020015460081c166009811015620013b057600262000eeb911462012446565b62000ef562012f15565b600435600052600a602052600360406000200154804211156200136e5762000f3d90600435600052600b60205262000f366003604060002001548262010b98565b9062010d37565b42111562000f595762000f5260043562012fe2565b6001600055005b600435600052600a6020526040600020600b60205260406000206008820161060061ff001982541617905560018060a01b036001830154166001820154926105dc9081850294808604831490151715620011f457600435600052604b6020526127108504604060002055600184015462000fd861271087048262010b98565b92808202908282041482151715620011f457806216e3608302046103e81490151715620011f4576200107d926305f5e1006216e36062001075930204906200103362001029836127108b0462010b98565b9260095462010d37565b60095560043560009081526051602052604090205415620012d05760043560005260556020526040600020555b600260018060a01b0384541693015462010d37565b908362012f39565b600182015460018060a01b038354166000526013602052620010a6604060002091825462010b98565b9055600435600052600e60205260406000209260005b84548110156200120a57600260ff81620010d7848962010a9f565b50015416620010e681620103cf565b036200116a578062001121620010ff6001938862010a9f565b50838060a01b039054168362001116848a62010a9f565b500154908662012f39565b816200112e828862010a9f565b5001546200113d828862010a9f565b50838060a01b03905416600052601360205262001161604060002091825462010b98565b905501620010bc565b600162001178828762010a9f565b50015490816103e88102046103e81482151715620011f457620011a86127106103e8600194020460095462010d37565b600955620011b7818762010a9f565b50828060a01b0390541682620011ce838962010a9f565b50015460405190815260008051602062015e0c833981519152602060043592a362001121565b634e487b7160e01b600052601160045260246000fd5b5082546001600160a01b0316600090815260106020526040902080549194509150600511620012c6575080546001600160a01b03166000908152604090208054600419810191908211620011f457555b80546001600160a01b031660009081526012602052604090208054620012809062010e23565b9055546001600160a01b03169062001298826201442a565b612710604051910481526000602082015260008051602062015c8c833981519152604060043592a362000f52565b600090556200125a565b605b6020526040600020600201541562001341576200134190600435600052605b602052604060002090600762001328600184015462001322846200131b6002880154809462010d37565b9262010d92565b62010da6565b9283600682015501600160ff1982541617905562010b98565b806200134f575b5062001060565b86546200136791906001600160a01b03168762012f39565b8762001348565b60405162461bcd60e51b815260206004820152601a602482015279105c995b984e88191958591b1a5b99481b9bdd081c185cdcd95960321b6044820152606490fd5b634e487b7160e01b600052602160045260246000fd5b3462000d8f57620013d73662010a78565b620013e7959495929192620138f0565b620013f162012f15565b83156200182557846000526051602052604060002054620017e8573360005260586020526040600020926200143160018060a01b03855416151562012109565b62001446600285015460068601549062010b98565b8511620017985785600052600a6020526040600020916006830154421015806200178a575b620014769062011d06565b6008830154600960ff8260081c161015620013b0576200150d93620015268a6004948460ff8c9660081c161562001775575b508b600052600c602052604060002033600052602052866200151c8a620014f7604060002098895496620014de88151562011d51565b620014f160ff60018d0154161562011d98565b62010d37565b9a8b946040519485936020850197338962011ddf565b03601f19810183528262010870565b5190201462011e0d565b62001549600282015462001540600a820488101562011e52565b87111562011e9c565b6200155684151562011ee7565b89806200174e575b50506200157087600288015462010b98565b60028701556200158587600688015462010d37565b60068701556001818101805460ff19169091178155620015a790339062011f2d565b83600282015584600382015501553360005260136020526040600020620015d082825462010d37565b905562001691620015eb856002600487015496015462010d37565b600760405191620015fc8362010837565b33835260208301968a88526040840191898352606085019182526080850190815260a08501906000825260c08601926000845260e0870194600086528d600052605b60205260406000209760018060a01b039051169b60018060a01b03199c8d8a5416178955516001890155516002880155516003870155516004860155516005850155516006840155511515910162010e12565b33600052601060205260406000205460018101809111620011f457620016b79162010d92565b90670de0b6b3a764000091828102928184041490151715620011f457620016de9162010da6565b83600052601760205260406000208054821162001731575b50505060405192835260208301527f0eb416e0d228bd3fd1ba28617bacc915c4191f014eda4822c0e979562261978760403393a36001600055005b5560166020526040600020903390825416179055838080620016f6565b6001909101546200176d9190309033906001600160a01b031662013912565b89896200155e565b61ff0019166101001760088501558d620014a8565b50600783015442106200146b565b60405162461bcd60e51b815260206004820152602260248201527f4172656e613a206578636565647320617661696c61626c652064656c65676174604482015261195960f21b6064820152608490fd5b60405162461bcd60e51b81526020600482015260156024820152744172656e613a2073796e646963617465207461736b60581b6044820152606490fd5b60405162461bcd60e51b81526020600482015260196024820152784172656e613a206e6f2064656c656761746564207374616b6560381b6044820152606490fd5b3462000d8f5760208060031936011262000d8f576004356200188762012f15565b806000526049825260406000205490620018a382151562012360565b81600052604783526040600020916009830193620018d3600160ff875416620018cc8162010328565b14620123a9565b6003840180546001600160a01b0390811695909190620018f533881462012e96565b85600052600a845260ff60086040600020015460081c166009811015620013b057600662001924911462011c11565b85600052604b8452604060002054801562001a29576200194d6127109160058401549062010d92565b049660068201908154808a1162001a20575b91899a8a600293620019967fc35844eb5590ba9692cc57ecef410509ff2a03320c25b30ff4a593cbb4b1e0249b9c9d8a9762010b98565b9086600489015416928062001a0c575b505080620019f2575b50508b60088601558260ff198254161790555492015416600052604a8452620019df604060002091825462010b98565b9055541694604051908152a46001600055005b62001a04918686890154169062012f39565b8c80620019af565b62001a18918462012f39565b8e8e620019a6565b9850886200195f565b60405162461bcd60e51b8152600481018690526018602482015277105c995b984e881b9bc81cdb185cda081c9958dbdc99195960421b6044820152606490fd5b3462000d8f57600036600319011262000d8f576020604454604051908152f35b3462000d8f5760208060031936011262000d8f576001600160a01b038062001ab0620102a3565b16600052605a6020526040600020916040518092602085549283815201946000526020600020926000915b83831062001af65762000d8b8662000e02818a038262010870565b845481168752958101956001948501949092019162001adb565b62010a3a565b3462000d8f57602036600319011262000d8f5762001b33620102a3565b62001b3d62012f79565b6001600160a01b0390811690811562001b7b57600180546001600160a01b0319811684179091551660008051602062015dac833981519152600080a3005b604051631e4fbdf760e01b815260006004820152602490fd5b3462000d8f57602036600319011262000d8f57600061020060405162001bba81620107c6565b8281528260208201528260408201528260608201528260808201528260a08201528260c08201528260e08201528261010082015282610120820152826101408201528261016082015282610180820152826101a0820152826101c0820152826101e08201520152600435600052603e602052610220604060002060ff600a6040519262001c4784620107c6565b805484528260018201541662001c5d816201052a565b6020850152600281015460408501526003810154838116606086015260018060a01b039060081c16608085015260018060a01b0360048201541660a0850152600581015460c0850152600681015460e08501526007810154610100850152600881015461012085015260098101546101408501520154818116610160840152818160081c16610180840152818160101c166101a0840152818160181c166101c0840152818160201c166101e084015262001d1c828260281c1662010aeb565b60281c166102008201526102006040519180518352602081015162001d41816201052a565b60208401526040810151604084015260ff606082015116606084015260018060a01b03608082015116608084015260018060a01b0360a08201511660a084015260c081015160c084015260e081015160e084015261010081015161010084015261012081015161012084015261014081015161014084015260ff6101608201511661016084015260ff6101808201511661018084015260ff6101a0820151166101a084015260ff6101c0820151166101c084015260ff6101e0820151166101e0840152015162001e118162010aeb565b610200820152f35b3462000d8f57602036600319011262000d8f576001600160a01b0362001e3e620102a3565b1660005260136020526020604060002054604051908152f35b3462000d8f57602036600319011262000d8f5760043560005260426020526020604060002054604051908152f35b62010af6565b3462000d8f57604036600319011262000d8f5762001ea862010333565b600435600052604360205260ff604060002091166000526020526020604060002054604051908152f35b3462000d8f57604036600319011262000d8f5762001eef620102a3565b62001ef9620102ba565b60018060a01b03809216600052605860205260406000209160596020526040600020911660005260205260406000205462000d8b60028301549260066004820154910154906040519485948562010b33565b3462000d8f57600036600319011262000d8f576020606454604051908152f35b3462000d8f57600036600319011262000d8f576020601f54604051908152f35b3462000d8f57602036600319011262000d8f5762001fa8620102a3565b62001fb262012f79565b6001600160a01b03166000908152601460205260409020805460ff19169055005b3462000d8f57602062001ff162001fea36620105d2565b9062012ee2565b620020006040518092620103c1565bf35b3462000d8f57604036600319011262000d8f5762000d8b62002023620102ba565b6200202d620123f1565b50600435600052600c602052604060002060018060a01b03809216600052602052600460406000206040519262000d058462010753565b3462000d8f5760208060031936011262000d8f576001600160a01b036200208a620102a3565b1690816000526027815260406000205490602881526040600020548215156000146200211d5761271093848202948286041482151715620011f457620020d38460c09662010da6565b905b600052602a835260406000205490602d845260406000205492602c855260ff6040600020541694604051968752860152604085015260608401526080830152151560a0820152f35b60c093600090620020d5565b3462000d8f57600036600319011262000d8f57602060405162093a808152f35b3462000d8f5760208060031936011262000d8f576001600160a01b038062002170620102a3565b16908115620023505781600052605e8352604060002054620022fb5762002199605d5462010e23565b9081605d5582600052605e84528160406000205581600052605f845260406000209060018060a01b0319918483825416179055600485528060406000205416151580620022f2575b620022b25783839182600052600487526040600020541680151593846200228c575b826000526005885260406000206001815401905583600052600488528260406000209182541617905560008051602062015dec833981519152600080a4620022735780604051927fe3c1e67a28dbde69e5a710c034aacf3c4950b8d0fc8b9c99c98d4c85134af1e4600080a38152f35b6040516339e3563760e11b815260006004820152602490fd5b620022978462015601565b81600052600588526040600020600019815401905562002203565b60405162461bcd60e51b81526004810186905260248082015260008051602062015c4c8339815191526044820152631bdd5b9960e21b6064820152608490fd5b506001620021e1565b60405162461bcd60e51b815260048101849052602760248201527f4172656e613a206167656e7420616c72656164792068617320726570757461746044820152661a5bdb8813919560ca1b6064820152608490fd5b60405162461bcd60e51b815260048101849052601c60248201527b4172656e613a20696e76616c6964206167656e74206164647265737360201b6044820152606490fd5b3462000d8f5760208060031936011262000d8f5760043560005260406020526040600020906040519081602084549182815201936000526020600020916000905b828210620023f05762000d8b8562000e028189038262010870565b83546001600160a01b031686529485019460019384019390910190620023d5565b3462000d8f57604036600319011262000d8f576200242e620102a3565b62002438620102ba565b9060018060a01b03809116600052600760205260406000209116600052602052602060ff604060002054166040519015158152f35b3462000d8f57602036600319011262000d8f57600435600052603c6020526020604060002054604051908152f35b3462000d8f57602036600319011262000d8f576001600160a01b0380620024c1620102a3565b16600052605860205260406000209062000d8b8183541691600184015416926002810154906003810154600482015490600660ff600585015416930154936040519788978893909260c095929897969360e086019960018060a01b038092168752166020860152604085015260608401526080830152151560a08201520152565b620104f1565b3462000d8f57602036600319011262000d8f576004356000526046602052610120604060002080549060018060a01b0360018201541690600281015460038201546004830154600584015491600685015493600860ff60078801541696015496604051988952602089015260408801526060870152608086015260a085015260c0840152620025d78162010328565b60e0830152610100820152f35b3462000d8f5761012036600319011262000d8f576200260262010344565b60e4356001600160401b03811162000d8f57620026249036906004016201096b565b6200262e620102d1565b62002638620138f0565b6200264262012f15565b62002651600435151562012549565b62002660426024351162012df6565b60ff841615158062002a01575b620026789062012592565b620026876064351515620125df565b6200269660843515156201262c565b6001600160a01b038116620029fb57507f00000000000000000000000000000000000000000000000000000000000000006001600160a01b03165b620026ea60043530336001600160a01b03851662013912565b60085492620026f98462010e23565b6008556200270a6064354262010d37565b6200271f608435620014f16064354262010d37565b90604051936200272f856201076f565b3385526001600160a01b031660208501526004356040850152602435606085015260443560808501524260a085015260c084015260e083015260ff8516610100830152600061012083015260c43561014083015262002790368483620109b7565b6101608301526000848152600a6020908152604091829020845181546001600160a01b03199081166001600160a01b0392831617835592860151600183018054909416911617909155908301516002820155606083015160038201556080830151600482015560a0830151600582015560c0830151600682015560e0830151600782015561010083015160088201805460ff191660ff929092169190911781556101208401519193906009831015620013b05761016092620028529162010f4d565b61014081015160098501550151805192906001600160401b038411620029e55762002881600a830154620106c1565b601f811162002995575b50916020969186938890601f87116001146200290d579580600a9260008051602062015e6c833981519152979860009262002901575b50508160011b916000199060031b1c1916179101555b620028f16040519283923397602435916004358662012e43565b0390a36001600055604051908152f35b015190508b80620028c1565b9590600a8301600052896000209660005b601f19841681106200297a57509160008051602062015e6c8339815191529697600192600a9483601f1981161062002960575b505050811b01910155620028d7565b015160001960f88460031b161c191690558b808062002951565b8282015189556001909801978a9750918b01918b016200291e565b600a83016000526020600020601f860160051c81019160208710620029da575b601f0160051c01905b818110620029cd57506200288b565b60008155600101620029be565b9091508190620029b5565b634e487b7160e01b600052604160045260246000fd5b620026d1565b50600560ff851611156200266d565b3462000d8f57600036600319011262000d8f576020604051610bb88152f35b3462000d8f57602036600319011262000d8f57600435601c5481101562000d8f5762002a5d602091620105e9565b905460405160039290921b1c6001600160a01b03168152f35b3462000d8f5760208060031936011262000d8f5760043560005260506020526040600020906040519081602084549182815201936000526020600020916000905b82821062002ad25762000d8b8562000e028189038262010870565b83546001600160a01b03168652948501946001938401939091019062002ab7565b3462000d8f57604036600319011262000d8f5762002b10620102a3565b62002b1a620102ba565b9060018060a01b038091166000526059602052604060002091166000526020526020604060002054604051908152f35b3462000d8f57606036600319011262000d8f5760036004356024358281101562000d8f5760443562002b7b62012f15565b82600052600a60205260ff9360ff60086040600020015460081c166009811015620013b057600462002bae911462012446565b62002bb983620103cf565b600191829160018514801562002d26575b62002bd5906201201f565b62002be282151562012ba0565b85600052600e60205260406000206000976000955b62002c6f575b62000f528862002c698962002c128d62012be3565b60405162002c2082620103cf565b818152837f2562a9af9b7e919f439e2eabade6231ec36e8d3c2cc8e5daa22235b24f01e56660203393a36000838152600b60205260409020546001600160a01b03163362014544565b62015170565b8198979695985489101562002d1b5762002c8a898362010a9f565b50546001600160a01b0316331462002caa57848096979899019562002bf7565b62002c69969750888262002d078862002d0d9462002cf362002cd862000f529f62002c129c9b9a9962010a9f565b50916002809301541662002cec81620103cf565b1562012062565b62002cff858562010a9f565b500162010f8d565b62010a9f565b500155948293878062002bfd565b859697985062002bfd565b5062002d3285620103cf565b6002851462002bca565b3462000d8f57602036600319011262000d8f57600435600081815260466020526040902060018101546001600160a01b0316330362002dc4576007016004815462002d9660ff821662002d8f8162010328565b1562012b5b565b60ff19161790557f21195c740486d9cb89015bc16dbd5c79296ada80eb3e78fbf7c36520d3142364600080a2005b60405162461bcd60e51b815260206004820152601660248201527520b932b7309d103737ba103a34329034b739bab932b960511b6044820152606490fd5b620103a1565b3462000d8f57604036600319011262000d8f5762002e2562010333565b600435600052603760205260ff6040600020911660005260205260e060406000208054906001810154906002810154600382015460ff60048401541691600660058501549401549460405196875260208701526040860152606085015262002e8d8162010aeb565b608084015260a083015260c0820152f35b3462000d8f5762002eaf3662010945565b9062002eba620138f0565b336000526020926014845260ff9362002edb856040600020541615620120c3565b62002ee562012f15565b816000526031815260406000209460328252604060002090603783528060406000209516948560005283526040600020600460098901549162002f3b6002858560381c1662002f348162010328565b1462012202565b0192828454169862002f4d8a62010aeb565b6001998a811490811562003215575b5015620031bb5781546001600160a01b03918a918c9190841662002f833382141562012965565b62002f9485835416331415620129be565b8a60005260398a5260406000208c6000528a5260406000209662002fc18989549260301c16821062012a09565b60005b8181106200318357505092848a99989795936200304493620030cb98967fdf9939a9d97671be22d0856dc9fd79ae84053df39cbe73dcac64414b0d85a9269d6025548015158062003161575b62003127575b505050600560028801540480156200311f575b620030379085101562012b0e565b0154163090339062013912565b336000526013875260406000206200305e8c825462010d37565b90553360005260268752604060002091541660005285524260406000205586600052603885526040600020886000528552620030c3604060002060405190620030a78262010737565b3382528b88830152600060408301526000606083015262010fa7565b339062011038565b878254918216620030dc8162010aeb565b14620030f3575b50506040519485523394a4600055005b60029060ff191617905582600052603b81526040600020846000528152426040600020558680620030e3565b508162003029565b62003158926200314f9233600052602681526040600020916000525260406000205462010d37565b42101562012aae565b388c8162003016565b5033600052602682526040600020836000528252604060002054151562003010565b849550620031ae876200319c838c98959697986201061b565b919054339260031b1c16141562012a53565b01908d9493929162002fc4565b60405162461bcd60e51b815260048101879052602c60248201527f4172656e613a20636865636b706f696e74206e6f7420726561647920666f722060448201526b3b32b934b334b1b0ba34b7b760a11b6064820152608490fd5b60029150620032248162010aeb565b148b62002f5c565b3462000d8f57602036600319011262000d8f576001600160a01b0362003251620102a3565b16600052602d6020526020604060002054604051908152f35b3462000d8f57602036600319011262000d8f576200328762012c2f565b50600435600052603260205260e06040600020604051620032a8816201081b565b60018060a01b0382541691828252600181015460208301908152600282015460408401908152600383015490606085019182526004840154926080860193845260c0600660058701549660a08901978852015496019586526040519687525160208701525160408601525160608501525160808401525160a08301525160c0820152f35b3462000d8f57600036600319011262000d8f576020604d54604051908152f35b3462000d8f57604036600319011262000d8f5762003369620102a3565b62003373620102ba565b9060018060a01b038091166000526026602052604060002091166000526020526020604060002054604051908152f35b3462000d8f57600036600319011262000d8f576020605d54604051908152f35b3462000d8f5760208060031936011262000d8f57600435620033e462012f15565b8060005260498252604060002054906200340082151562012360565b8160005260478352604060002091600983019362003429600160ff875416620018cc8162010328565b6003840180546001600160a01b03908116959091906200344b33881462012e96565b85600052600a845260ff60086040600020015460081c166009811015620013b05760066200347a911462011c11565b8560005260158452604060002054620034fb5785600052604c84526040600020548015620034b6576200194d6127109160058401549062010d92565b60405162461bcd60e51b815260048101869052601d60248201527f4172656e613a206e6f20626f6e6420736c617368207265636f726465640000006044820152606490fd5b60405162461bcd60e51b815260048101859052601b60248201527a105c995b984e88189bdb99081b9bdd081cdb185cda1959081e595d602a1b6044820152606490fd5b3462000d8f57606036600319011262000d8f57602480356004356044803562003566620138f0565b33600052602091601483526200358560ff6040600020541615620120c3565b83600052604e83526040600020906002600560018060a01b0393620035b1858483015416331462011c6d565b620035cf60ff600683015416620035c8816201052a565b1562012880565b0154106200381a5785600052600a845260406000209060ff600883015460081c166009811015620013b05762003606901562012446565b620036176006830154421062012717565b86600052600c855260406000203360005285526200363b604060002054156201275c565b86600052600d8552620036566014604060002054106201279e565b33600052602e855262003671600a60406000205410620127e8565b33600052602f85526200368c60406000205442101562012833565b85600052605085526040600020976000848a54945416905b848110620037a85789897fb1166e029714a28a2affc3632045a79349084af623259eb75c4d30bfc6fb88188a8a8a33600052602e83526040600020620036eb815462010e23565b9055600460405191620036fe8362010753565b838352848301906000825260408401913383526200376860608601916000835260808701936000855260a0880195600087528d600052600c8b526040600020336000528b526040600020985189556200375f60018a01935115158462010e12565b51169062011f2d565b5160028501555160038401555191015584600052600d82526200379033604060002062011038565b846000526051825283604060002055604051908152a3005b8186620037b6838e6201061b565b90549060031b1c1614620037cd57600101620036a4565b60405162461bcd60e51b8152600481018990526021818501527f4172656e613a2073796e646963617465206d656d62657220697320706f73746581860152603960f91b6064820152608490fd5b60405162461bcd60e51b81526004810185905260196024820152784172656e613a206e656564206d696e2032206d656d6265727360381b6044820152606490fd5b3462000d8f57600036600319011262000d8f57602060405161251c8152f35b3462000d8f576200388b36620105d2565b9062003896620138f0565b33600052602060148152620038b460ff6040600020541615620120c3565b8160005260318152604060002060ff600982015460381c16620038d78162010328565b62003a9957620038ed6007820154421062012717565b546001600160a01b039062003907908216331415620126cf565b826000526033825260406000203360005282526200392b604060002054156201275c565b8260005260348252620039466014604060002054106201279e565b33600052603a82526003604060002054101562003a4057907f83ccaf822b7d959d4a11fc42c97bd7154891c207e8e0eb714cab77defde74bea9133600052602f82526200399b60406000205442101562012833565b600460405191620039ac8362010753565b8683528383019060008252604084019133835262003a0d60608601916000835260808701936000855260a0880195600087528b60005260338a526040600020336000528a526040600020985189556200375f60018a01935115158462010e12565b51600285015551600384015551910155826000526034815262003a3533604060002062011038565b6040519384523393a3005b60405162461bcd60e51b815260048101839052602b60248201527f4172656e613a20746f6f206d616e792061637469766520636f6e74696e756f7560448201526a7320636f6e74726163747360a81b6064820152608490fd5b60405162461bcd60e51b81526004810183905260186024820152774172656e613a206e6f74206f70656e20666f72206269647360401b6044820152606490fd5b3462000d8f5760208060031936011262000d8f576004359062003afb62012f15565b6000828152603182526040902080546001600160a01b03908116330362003d1a57600982019081549160ff9260ff8160381c1662003b398162010328565b801590811562003d03575b501562003cb25760ff60381b1916600360381b179055600183810154600087815260348752604081209184169490835b62003bdf575b8860008051602062015d2c83398151915260608a62003bb28b8b8b87600052603c855260406000209260008454945554169062012f39565b6010604051918083528201526f1c1bdcdd195c97d8d85b98d95b1b195960821b6040820152a26001600055005b825481101562003cac5790838093928a60005260338a5286604060002062003c0883876201061b565b929054600393841b1c166000528b52604060002090888585840154168062003c9e575b62003c3e575b5050500190919262003b74565b600262003c959301918d60138454918462003c5a898d6201061b565b905490861b1c166000525262003c77604060002091825462010b98565b905562003c8585896201061b565b9054911b1c169054908a62012f39565b8b808862003c31565b506002830154151562003c2b565b62003b7a565b60405162461bcd60e51b8152600481018790526024808201527f4172656e613a2063616e6e6f742063616e63656c2061637469766520636f6e746044820152631c9858dd60e21b6064820152608490fd5b6001915062003d128162010328565b148862003b44565b60405162461bcd60e51b815260048101849052601160248201527020b932b7309d103737ba103837b9ba32b960791b6044820152606490fd5b3462000d8f57600036600319011262000d8f576020606554604051908152f35b3462000d8f5762003d843662010945565b91600052603860205260ff60406000209116600052602052604060002090815481101562000d8f5762003db79162010a9f565b5060018060a01b0381541662000d8b600183015492600360ff600283015416910154906040519485948562010abc565b3462000d8f57602036600319011262000d8f57600435600052604b6020526020604060002054604051908152f35b3462000d8f57602036600319011262000d8f5760043560005260516020526020604060002054604051908152f35b3462000d8f57602036600319011262000d8f5760043562003e648162012fa6565b50600052605f60205260018060a01b0360406000205416806000526010602052604060002054906011602052604060002054916012602052604060002054916013602052604060002054601460205260ff604060002054169062003ec9858762010d37565b8015620053545761271090818802918883041488151715620011f45762003ef09162010da6565b905b83600052606160205262003f0b604060002054620106c1565b156200532e5783600052606160205262003f29604060002062010894565b925b15620053065762003f3b62012e72565b915b62003f4885620152ca565b9760405180997a03d913730b6b2911d1120b932b730902932b83aba30ba34b7b71d1602d1b602083015280519081603b8401916020019162003f8a9262010355565b7f222c226465736372697074696f6e223a22536f756c626f756e64207265707574908201603b8101919091527f6174696f6e2063726564656e7469616c20666f7220546865204172656e612070605b8201527f726f746f636f6c2e204f6e2d636861696e206964656e74697479207265666c65607b8201527f6374696e67206c697665206167656e7420706572666f726d616e63652e222c00609b8201526d2261747472696275746573223a5b60901b60ba8201520360a881018a52620040559060c8018a62010870565b6200406087620153e6565b986200406c82620153e6565b620040778a620153e6565b6200408560648604620153e6565b906200409187620153e6565b926040519d858f96519081602089019160200191620040b09262010355565b8601602081017f7b2274726169745f74797065223a2252657075746174696f6e2053636f72652290526816113b30b63ab2911d60b91b604082015281519182604983019160200191620041039262010355565b611f4b60f21b82820160498101919091527f7b2274726169745f74797065223a225461736b7320436f6d706c65746564222c604b82015267113b30b63ab2911d60c11b606b8201528351936200416491859160739091019060200162010355565b010160738101611f4b60f21b9052607581017f7b2274726169745f74797065223a225461736b73204661696c6564222c227661905264363ab2911d60d91b609582015281519182609a83019160200191620041bf9262010355565b0190609a8201611f4b60f21b9052609c82017f7b2274726169745f74797065223a22537563636573732052617465222c226469905260bc82017f73706c61795f74797065223a2270657263656e74616765222c2276616c756522905260dc8201601d60f91b90528051908160dd840191602001916200423e9262010355565b611f4b60f21b81830160dd8101919091527f7b2274726169745f74797065223a225370656369616c697a6174696f6e222c2260df820152673b30b63ab2911d1160c11b60ff820152895192906200429f9084906101070160208d0162010355565b01019062089f4b60ea1b61010783015261010a82017f7b2274726169745f74797065223a22416374697665205374616b65222c227661905264363ab2911d60d91b61012a8301528051908161012f84019160200191620042ff9262010355565b611f4b60f21b81830161012f8101919091527f7b2274726169745f74797065223a22537461747573222c2276616c7565223a2261013182015287519290620043519084906101510160208b0162010355565b61227d60f01b8383830101610151015201010361013381018a52610153016200437b908a62010870565b606487106200521257604051620043928162010854565b60078152660234646443730360cc1b602082015291604051620043b58162010854565b60098152684c6567656e6461727960b81b6020820152915b85516020870120620043de62012e72565b6020815191012014600014620051e85762004418604051620044008162010854565b600481526308d98d0d60e21b602082015298620152ca565b986200442490620153e6565b604051998a91602083017f3c73766720786d6c6e733d22687474703a2f2f7777772e77332e6f72672f32309052604083017f30302f737667222077696474683d2234303022206865696768743d2235303022905276103b34b2bba137bc1e91181018101a1818101a9818111f60491b6060840152607783017f3c726563742077696474683d2234303022206865696768743d223530302220729052763c1e91191811103334b6361e911198309830983091179f60491b609784015260ae83017f3c7265637420783d2231302220793d223130222077696474683d223338302220905260ce83017f6865696768743d22343830222072783d223135222066696c6c3d226e6f6e65229052681039ba3937b5b29e9160b91b60ee840152865160f784018160208a0191620045569262010355565b73111039ba3937b5b296bbb4b23a341e911911179f60611b60f7918501918201527f3c7465787420783d223230302220793d2235302220746578742d616e63686f7261010b8201526f1e9136b4b232363291103334b6361e9160811b61012b82015287519261013b620045d08582850160208d0162010355565b7f2220666f6e742d73697a653d2232342220666f6e742d66616d696c793d226d6f838601918201527f6e6f73706163652220666f6e742d7765696768743d22626f6c64223e5448452061015b8201526b20a922a7209e17ba32bc3a1f60a11b61017b8201527f3c7465787420783d223230302220793d2238302220746578742d616e63686f726101878201527f3d226d6964646c65222066696c6c3d22233636362220666f6e742d73697a653d6101a78201527f2231322220666f6e742d66616d696c793d226d6f6e6f7370616365223e0000006101c7820152815191620046c49183916101e49091019060200162010355565b661e17ba32bc3a1f60c91b84830182016101e48101919091527f3c7465787420783d223230302220793d223133302220746578742d616e63686f6101eb82015270391e9136b4b232363291103334b6361e9160791b61020b820152895161021c95909390916200473c908590880160208e0162010355565b0101019182017f2220666f6e742d73697a653d2234382220666f6e742d66616d696c793d226d6f90527b3737b9b830b1b291103337b73a16bbb2b4b3b43a1e913137b632111f60211b61023c83015261025891815191828483019160200191620047a69262010355565b661e17ba32bc3a1f60c91b9101918201527f3c7465787420783d223230302220793d223135352220746578742d616e63686f61025f8201527f723d226d6964646c65222066696c6c3d22233838382220666f6e742d73697a6561027f8201527f3d2231342220666f6e742d66616d696c793d226d6f6e6f7370616365223e524561029f8201526e282aaa20aa24a7a71e17ba32bc3a1f60891b6102bf820152036102ae81018a526200485d906102ce018a62010870565b6200486890620153e6565b986200487490620153e6565b90606490046200488490620153e6565b90604051998a94602086017f3c7465787420783d223230302220793d223138352220746578742d616e63686f905270391e9136b4b232363291103334b6361e9160791b604087015280519081605188019160200191620048e49262010355565b7f2220666f6e742d73697a653d2231362220666f6e742d66616d696c793d226d6f605191870191820152683737b9b830b1b2911f60b91b60718201528451909462004939908290607a88019060200162010355565b661e17ba32bc3a1f60c91b818601607a8101919091527f3c6c696e652078313d223430222079313d22323130222078323d22333630222060818201527f79323d2232313022207374726f6b653d222333333322207374726f6b652d776960a182015268323a341e911891179f60b91b60c18201527f3c7465787420783d2234302220793d22323435222066696c6c3d22236161612260ca82015260008051602062015ccc83398151915260ea8201527737b9b830b1b2911f21b7b6b83632ba32b21e17ba32bc3a1f60411b61010a8201527f3c7465787420783d223336302220793d223234352220746578742d616e63686f6101228201527f723d22656e64222066696c6c3d22233066302220666f6e742d73697a653d223161014282015260008051602062015c2c833981519152610162820152825161017d969093909162004a8b91859189019060200162010355565b661e17ba32bc3a1f60c91b910191909101938401527f3c7465787420783d2234302220793d22323735222066696c6c3d22236161612261018484015260008051602062015ccc8339815191526101a48401527437b9b830b1b2911f2330b4b632b21e17ba32bc3a1f60591b6101c48401527f3c7465787420783d223336302220793d223237352220746578742d616e63686f6101d98401527f723d22656e64222066696c6c3d22236634342220666f6e742d73697a653d22316101f984015260008051602062015c2c83398151915261021984015280519062004b7990829061023486019060200162010355565b661e17ba32bc3a1f60c91b8184016102348101919091527f3c7465787420783d2234302220793d22333035222066696c6c3d22236161612261023b82015260008051602062015ccc83398151915261025b8201527a37b9b830b1b2911f29bab1b1b2b9b9902930ba329e17ba32bc3a1f60291b61027b8201527f3c7465787420783d223336302220793d223330352220746578742d616e63686f61029682015260008051602062015cac8339815191526102b682015260008051602062015c2c8339815191526102d682015282516102f1949093909162004c6291859187019060200162010355565b010190810167129e17ba32bc3a1f60c11b9052036102d9810187526102f90162004c8d908762010870565b62004c9890620153e6565b90604051938493602085017f3c7465787420783d2234302220793d22333335222066696c6c3d22236161612290526040850160008051602062015ccc8339815191529052606085017f6f7370616365223e5370656369616c697a6174696f6e3c2f746578743e0000009052607d85017f3c7465787420783d223336302220793d223333352220746578742d616e63686f9052609d850160008051602062015cac83398151915290527a1a11103337b73a16b330b6b4b63c9e9136b7b737b9b830b1b2911f60291b60bd8601528051908160d88701916020019162004d7c9262010355565b661e17ba32bc3a1f60c91b60d8918601918201527f3c7465787420783d2234302220793d22333635222066696c6c3d22236161612260df82015260008051602062015ccc83398151915260ff8201527a37b9b830b1b2911f20b1ba34bb329029ba30b5b29e17ba32bc3a1f60291b61011f8201527f3c7465787420783d223336302220793d223336352220746578742d616e63686f61013a82015260008051602062015cac83398151915261015a82015260008051602062015c2c83398151915261017a82015283516101959490919062004e609083908784019060200162010355565b661e17ba32bc3a1f60c91b9101938401527f3c7465787420783d2234302220793d22333935222066696c6c3d22236161612261019c84015260008051602062015ccc8339815191526101bc8401527437b9b830b1b2911f29ba30ba3ab99e17ba32bc3a1f60591b6101dc8401527f3c7465787420783d223336302220793d223339352220746578742d616e63686f6101f18401526d391e9132b73211103334b6361e9160911b610211840152805161021f93909162004f289083908684019060200162010355565b7f2220666f6e742d73697a653d2231342220666f6e742d66616d696c793d226d6f910192830152683737b9b830b1b2911f60b91b61023f830152805161024892909162004f7e9083908584019060200162010355565b661e17ba32bc3a1f60c91b9101918201527f3c7465787420783d223230302220793d223436302220746578742d616e63686f61024f8201527f723d226d6964646c65222066696c6c3d22233434342220666f6e742d73697a6561026f8201527f3d2231302220666f6e742d66616d696c793d226d6f6e6f7370616365223e534f61028f8201527f554c424f554e44202d204e4f4e2d5452414e5346455241424c453c2f746578746102af820152601f60f91b6102cf820152651e17b9bb339f60d11b6102d0820152036102b6810182526200505e906102d6018262010870565b604051928284935190816020860191602001916200507c9262010355565b830181519182602083019160200191620050969262010355565b0181519182602083019160200191620050af9262010355565b0103808252602001620050c3908262010870565b620050ce9062015538565b9060405191818392519081602085019160200191620050ed9262010355565b82016020810161174b60f21b9052602281017f22696d616765223a22646174613a696d6167652f7376672b786d6c3b62617365905260428101620d8d0b60ea1b905281519182604583019160200191620051479262010355565b0161227d60f01b60458201520360278101825260470162005169908262010870565b620051749062015538565b6040518091602082017f646174613a6170706c69636174696f6e2f6a736f6e3b6261736536342c000000905280519081603d84019160200191620051b89262010355565b810103601d81018252603d01620051d0908262010870565b6040518091602082526020820162000d8b916201037a565b62004418604051620051fa8162010854565b60048152630233066360e41b602082015298620152ca565b603287106200526757604051620052298162010854565b60078152660234330433043360cc1b6020820152916040516200524c8162010854565b60078152662b32ba32b930b760c91b602082015291620043cd565b60148710620052bb576040516200527e8162010854565b600781526611a1a21ba3199960c91b602082015291604051620052a18162010854565b6006815265283937bb32b760d11b602082015291620043cd565b604051620052c98162010854565b60078152660233830383038360cc1b602082015291604051620052ec8162010854565b60068152654e6f7669636560d01b602082015291620043cd565b604051620053148162010854565b600681526541435449564560d01b60208201529162003f3d565b6040516200533c8162010854565b60048152636e6f6e6560e01b60208201529262003f2b565b5060009062003ef2565b3462000d8f57606036600319011262000d8f5760043560ff6200538062010333565b91604435926200538f620138f0565b6200539962012f15565b816000526200542b6020916031835262000f366040600020603285526005876200542060046040600020620053df600260098801549d8e60381c1662002f348162010328565b620053f560018060a01b03825416331462010cee565b6200540a84808a169d60081c168d14620122e5565b620054178d151562012490565b01549562012332565b169101549062010d92565b620151808101808211620011f4574211620055115782600052603782526040600020846000528252604060002090600482019182549160ff8316620054708162010aeb565b620054c05791876003837ff82a0b8e9c4f5f0e834b3762a4b24ad5c858eeb30fad231f4f4de8d6bc23b95d979695600195554285820155015560ff19161790556040519485523394a46001600055005b60405162461bcd60e51b815260048101869052602360248201527f4172656e613a20636865636b706f696e7420616c7265616479207375626d69746044820152621d195960ea1b6064820152608490fd5b60405162461bcd60e51b815260048101839052602e60248201527f4172656e613a20636865636b706f696e74207375626d697373696f6e2070617360448201526d1d0819dc9858d9481c195c9a5bd960921b6064820152608490fd5b3462000d8f57602036600319011262000d8f57600435600052603e602052610220604060002060ff81549181600182015416906002810154600382015460018060a01b036004840154166005840154600685015491600786015493600887015495600a6009890154980154986040519b8c52620055ea816201052a565b60208c015260408b015288811660608b015260018060a01b039060081c1660808a015260a089015260c088015260e0870152610100860152610120850152610140840152818116610160840152818160081c16610180840152818160101c166101a0840152818160181c166101c0840152818160201c166101e084015262005677828260281c1662010aeb565b60281c16610200820152f35b3462000d8f57600036600319011262000d8f576020606654604051908152f35b3462000d8f57604036600319011262000d8f57620056c0620102a3565b6024359060018060a01b03809116600052605a6020526040600020805483101562000d8f57602092620056f3916201061b565b9190546040519260031b1c168152f35b3462000d8f5760208060031936011262000d8f5760043580600052600a825260ff60086040600020015460081c166009811015620013b057600462005749911462012446565b6200575362012f15565b8060005260238252604060002054801562005a1257620151808101809111620011f457421115620059d0576000818152600a83526040808220600e8552908220600191820154919491839186916001600160a01b03919082169084845b62005827575b505050505015620057e3575090620057d5620057de9260095462010d37565b60095562015170565b600055005b6064906040519062461bcd60e51b82526004820152601d60248201527f4172656e613a206e6f2074696d65642d6f7574207665726966696572730000006044820152fd5b8154811015620059ca576200583d818362010a9f565b5060ff600280920154166200585281620103cf565b1562005863575b50840184620057b0565b979462005874828498939862010a9f565b500154906103e89182810290808204841490151715620011f457612710900498620058af8a8d620058a68b8862010a9f565b50015462010b98565b80620059a7575b508b620058c4898662010a9f565b50015483810290808204851481151715620011f457620f424002938185041490151715620011f4578b966305f5e100889404620059019162010d37565b99866200590f8a8762010a9f565b5054168c6040518c8482527fc179db5c66b2df299c3b2945236f5a61e7917557852a221c48ecf4642ab7e88b91a38b876200594b8b8862010a9f565b505416918b60405191825260008051602062015e0c83398151915291a38062005975898662010a9f565b50019060ff19825416179055816200598e888562010a9f565b5001600090556200599f9062010e23565b959062005859565b620059c39087620059b98b8862010a9f565b5054168762012f39565b8c620058b6565b620057b6565b60405162461bcd60e51b815260048101839052601a602482015279105c995b984e881d1a5b595bdd5d081b9bdd081c995858da195960321b6044820152606490fd5b60405162461bcd60e51b815260048101849052601e60248201527f4172656e613a206e6f2061737369676e6d656e742074696d657374616d7000006044820152606490fd5b3462000d8f57600036600319011262000d8f57602060405160fa8152f35b3462000d8f57604036600319011262000d8f57606062005a94620102ba565b62005a9e62012425565b50600435600052604f602052604060002060018060a01b038092166000526020526040600020906040519062005ad482620107e3565b82541691828252604060026001830154926020850193845201549201918252604051928352516020830152516040820152f35b3462000d8f57602036600319011262000d8f576001600160a01b0362005b2c620102a3565b1660005260286020526020604060002054604051908152f35b3462000d8f57600036600319011262000d8f576020604051611d4c8152f35b3462000d8f57602036600319011262000d8f5760043560005260236020526020604060002054604051908152f35b3462000d8f5761014036600319011262000d8f5762005bb062010344565b60e4356001600160401b03811162000d8f5762005bd29036906004016201096b565b62005bdc620102d1565b62005be662012f79565b62005bf0620138f0565b62005bfa62012f15565b62005c09600435151562012549565b62005c18426024351162012df6565b60ff841615158062006036575b62005c309062012592565b62005c3f6064351515620125df565b62005c4e60843515156201262c565b610124351562005ff5576001600160a01b03811662005fef57507f00000000000000000000000000000000000000000000000000000000000000006001600160a01b03165b62005cac60043530336001600160a01b03851662013912565b6008549262005cbb8462010e23565b60085562005ccc6064354262010d37565b62005ce1608435620014f16064354262010d37565b906040519362005cf1856201076f565b3385526001600160a01b031660208501526004356040850152602435606085015260443560808501524260a085015260c084015260e083015260ff8516610100830152600061012083015260c43561014083015262005d52368483620109b7565b6101608301526000848152600a6020908152604091829020845181546001600160a01b03199081166001600160a01b0392831617835592860151600183018054909416911617909155908301516002820155606083015160038201556080830151600482015560a0830151600582015560c0830151600682015560e0830151600782015561010083015160088201805460ff191660ff929092169190911781556101208401519193906009831015620013b0576101609262005e149162010f4d565b61014081015160098501550151805192906001600160401b038411620029e55762005e43600a830154620106c1565b601f811162005fa3575b50916020969186938890601f871160011462005f1b579580600a9260008051602062015e6c833981519152979860009262005f0f575b50508160011b916000199060031b1c1916179101555b83600052601987526040600020600160ff19825416179055601887526101243560406000205562005ed96040519283923397602435916004358662012e43565b0390a360405190807f8738936f73ae6374e5d5aac0cf8a04c991ab9767ab9b0d8486d03617f58fd47b600080a260016000558152f35b015190508b8062005e83565b9590600a8301600052896000209660005b601f198416811062005f8857509160008051602062015e6c8339815191529697600192600a9483601f1981161062005f6e575b505050811b0191015562005e99565b015160001960f88460031b161c191690558b808062005f5f565b8282015189556001909801978a9750918b01918b0162005f2c565b600a83016000526020600020601f860160051c81016020871062005fe7575b601f830160051c8201811062005fda57505062005e4d565b6000815560010162005fc2565b508062005fc2565b62005c93565b60405162461bcd60e51b8152602060048201526019602482015278082e4cadcc27440cadae0e8f240c6dee4e4cac6e840d0c2e6d603b1b6044820152606490fd5b50600560ff8516111562005c25565b3462000d8f57600036600319011262000d8f576020603054604051908152f35b3462000d8f57604036600319011262000d8f576200608262010333565b600435600052602090603960205260ff604060002091166000526020526040600020906040519081602084549182815201936000526020600020916000905b828210620060dc5762000d8b8562000e028189038262010870565b83546001600160a01b031686529485019460019384019390910190620060c1565b3462000d8f57608036600319011262000d8f576200611a620102a3565b62006124620102ba565b606435916001600160401b03831162000d8f573660238401121562000d8f576200615d62006168933690602481600401359101620109b7565b916044359162012c8a565b005b3462000d8f57606036600319011262000d8f576004356001600160401b03811162000d8f576200619f9036906004016201096b565b620061a9620102ba565b620061b3620138f0565b336000526014602052620061d060ff6040600020541615620120c3565b620061da62012f15565b81156200655857620061f06044351515620128cb565b3360005260526020526200620a6040600020541562012918565b6001600160a01b0381166200655257507f00000000000000000000000000000000000000000000000000000000000000006001600160a01b03165b6001600160a01b0316906200625f60443530338562013912565b6200626c604d5462010e23565b9182604d5560405190620062808262010837565b83825262006290368487620109b7565b602083015233604083015260608201526044356080820152600160a0820152600060c08201524260e082015282600052604e602052604060002081518155602082015180519060018060401b038211620029e557620062f36001840154620106c1565b601f811162006506575b5091859391602097938890601f83116001146200647957918060008051602062015c0c833981519152969492620028f196946000926200646d575b50508160011b916000199060031b1c19161760018201555b60408201516002820180546001600160a01b03199081166001600160a01b03938416179091556060840151600384018054831691909316179091556080830151600483015560a0830151600583015560c0830151909260079160e091906006850190620063bd816201052a565b620063c8816201052a565b60ff801983541691161790550151910155600260405191620063ea83620107e3565b3383528983016044358152604084019142835288600052604f8c526040600020336000528c5260406000209460018060a01b03905116908554161784555160018401555191015583600052605087526200644933604060002062011038565b33600052605287528360406000205560405191829188835233968984019162012c69565b015190508b8062006338565b9060018401600052896000209160005b601f1985168110620064eb57509260008051602062015c0c833981519152969492600192620028f1979583601f19811610620064d1575b505050811b01600182015562006350565b015160001960f88460031b161c191690558b8080620064c0565b8183015184558a9850600190930192918b01918b0162006489565b600184016000526020600020601f840160051c8101602085106200654a575b601f830160051c820181106200653d575050620062fd565b6000815560010162006525565b508062006525565b62006245565b60405162461bcd60e51b8152602060048201526014602482015273105c995b984e881b985b59481c995c5d5a5c995960621b6044820152606490fd5b3462000d8f5760208060031936011262000d8f57620065b2620102a3565b90620065bd62012f79565b6001600160a01b039182166000818152605e83526040902054929091908315620067195782600052605e82526000604081205583600052605f825260406000209060018060a01b03199182815416905560048352806040600020541615158062006710575b620066d0578491600091838352600485526040832054169060048215958615620066ad575b858552526040832090815416905560008051602062015dec8339815191528280a462006694577f73155e09dcac432cf01540699c034bba9f40a31f0d2d1f6f197fc61ac1d995cd600080a3005b604051637e27328960e01b815260048101839052602490fd5b620066b88662015601565b83855260058152604085208519815401905562006647565b60405162461bcd60e51b81526004810184905260248082015260008051602062015c4c8339815191526044820152631bdd5b9960e21b6064820152608490fd5b50600062006622565b60405162461bcd60e51b815260048101839052602260248201527f4172656e613a206167656e7420686173206e6f2072657075746174696f6e204e604482015261119560f21b6064820152608490fd5b3462000d8f57602036600319011262000d8f5760043560005260176020526020604060002054604051908152f35b3462000d8f57602036600319011262000d8f576004356000526047602052610160604060002080549060018101549060018060a01b03806002830154169080600384015416906004840154166005840154600685015491600786015493600887015495600a60ff60098a015416980154986040519a8b5260208b015260408a01526060890152608088015260a087015260c086015260e0850152610100840152620068428162010328565b610120830152610140820152f35b3462000d8f57600036600319011262000d8f576020600854604051908152f35b3462000d8f57602036600319011262000d8f576004356000526019602052602060ff604060002054166040519015158152f35b3462000d8f5760208060031936011262000d8f5760a0906001600160a01b03620068cc620102a3565b166000526010815260406000205490601181526040600020546012825260406000205460138352604060002054916014845260ff60406000205416936040519586528501526040840152606083015215156080820152f35b3462000d8f57602036600319011262000d8f576001600160a01b0362006949620102a3565b16600052602f6020526020604060002054604051908152f35b3462000d8f57602036600319011262000d8f576001600160a01b0362006987620102a3565b1660005260126020526020604060002054604051908152f35b3462000d8f57604036600319011262000d8f57620069bd62010333565b620069c762012c2f565b50600435600052603760205260ff6040600020911660005260205260e0604060002060405190620069f8826201081b565b805482526001810154906020830191825260028101546040840190815260038201546060850190815260ff60048401541691608086019262006a3a8162010aeb565b8352600660058501549460a0880195865201549460c08701958652604051965187525160208701525160408601525160608501525162006a7a8162010aeb565b60808401525160a08301525160c0820152f35b3462000d8f57608036600319011262000d8f5760043562006aad62010333565b6044359160038084101562000d8f576064359062006aca62012f15565b82600052602091603183526040600020906037845260406000209060ff9360ff881692836000528652600260ff6004816009604060002098015460381c169662006b148862010328565b62006b228480991462012202565b01541662006b308162010aeb565b0362006c715762006b4189620103cf565b600193849360018b14801562006c5b575b62006b629192939495506201201f565b62006b6f84151562012ba0565b87600052603887526040600020906000528652604060002090600095856000905b62006bd2575b62000f528b8b62006bcc8f60328e62006baf8f62012be3565b600085815291905260409020546001600160a01b03163362014544565b620148cb565b835481101562006c555762006be8818562010a9f565b50546001600160a01b0316331462006c035786018662006b90565b8b9750808462002d0762000f529e8662002cf362006baf9a9762006bcc9f9c9962006c3760329f9c9962006c469a62010a9f565b5001541662002cec81620103cf565b500155939782958a8062006b96565b62006b96565b5062006c678b620103cf565b60028b1462006b52565b60405162461bcd60e51b815260048101879052602560248201527f4172656e613a20636865636b706f696e74206e6f7420696e207665726966696360448201526430ba34b7b760d91b6064820152608490fd5b3462000d8f57602036600319011262000d8f576001600160a01b0362006ce9620102a3565b16600052603a6020526020604060002054604051908152f35b3462000d8f5762006d1336620105d2565b90600052600e602052604060002090815481101562000d8f5762003db79162010a9f565b3462000d8f5762006d483662010a78565b929062006d57959495620138f0565b62006d6162012f15565b84600052602093604e8552604060002062006d8a60018060a01b03600283015416331462011c6d565b876000526051865286604060002054036200702557600401908154841162006fe45787600052600a8652604060002060068101544210158062006fd6575b62006dd39062011d06565b600881019283549060ff8260081c16916009831015620013b057600262006eb39462006e68898f8d8f6200151c908f9360049e62006e849a60ff9d1562006fc3575b5050600052600c815260406000203360005281526200150d60406000209d8e9662006e57600189549962006e4b8b151562011d51565b019e8f54161562011d98565b604051958694850197338962011ddf565b015462006e7b600a82048a101562011e52565b89111562011e9c565b62006e9186151562011ee7565b62006e9e87825462010b98565b9055805460ff19166001178155339062011f2d565b83600282015584600382015501553360005260138352604060002062006edb82825462010d37565b90558460005260548352806040600020558360005260538352604060002062006f05815462010e23565b9055336000526010835260406000205460018101809111620011f45762006f2d908262010d92565b91670de0b6b3a764000092838102938185041490151715620011f4577f92f51cef60923c0ce3890da473882076fcd54f07a6e3e66bc8999026e63acea69362006f798260409562010da6565b8760005260178252846000208054821162006fa1575b50508351928352820152a36001600055005b5560168152600084902080546001600160a01b03191633179055878062006f8f565b61ff001916610100179055388062006e15565b506007810154421062006dc8565b60405162461bcd60e51b8152600481018790526019602482015278105c995b984e881cdd185ad948195e18d959591cc81c1bdbdb603a1b6044820152606490fd5b60405162461bcd60e51b8152600481018790526019602482015278082e4cadcc27440e6f2dcc8d2c6c2e8ca40dad2e6dac2e8c6d603b1b6044820152606490fd5b3462000d8f576200707736620105d2565b906200708262012f15565b80600052600a602052604060002090600b602052604060002083600052604660205260406000209060ff600885015460081c166009811015620013b0576002620070cd911462012152565b546001600160a01b03163303620074b557620070f560ff60078301541662002d8f8162010328565b8160028201540362007470578160005260496020526200711b60406000205415620121aa565b60018060a01b036001840154166200713a600683015430338462013912565b60068201549081606481020460641482151715620011f4576200717e6127106064620071a3940204620071708160095462010d37565b600955600685015462010b98565b806200744e575b50600183015460058401549130916001600160a01b03169062013912565b620071b060455462010e23565b6045819055600182810154940154600383015460058401546006850154604051949790939192916001600160a01b039081169116620071ef86620106fe565b8886528760208701526040860152336060860152608085015260a084015260c083015260e08201526000610100820152600161012082015242610140820152836000526047602052600a61014060406000209280518455602081015160018501556002840160018060a01b036040830151169060018060a01b031991828254161790556003850160018060a01b0360608401511682825416179055600485019060018060a01b036080840151169082541617905560a0810151600585015560c0810151600685015560e081015160078501556101008101516008850155620072eb610120820151620072e18162010328565b60098601620121f6565b015191015581600052604960205282604060002055600581015460018060a01b03600183015416600052604a6020526200732c604060002091825462010d37565b905560078101805460ff19166001179055600082815260486020526040812092905b8354811015620073f357808662007368600193876201061b565b90549060031b1c141580620073b9575b62007385575b016200734e565b6200739181866201061b565b90549060031b1c60005260466020526007604060002001600460ff198254161790556200737e565b50620073c681866201061b565b90549060031b1c600052604660205260ff60076040600020015416620073ec8162010328565b1562007378565b5060018201546005830154600690930154604051339487937ff0b951be332d40f55858e8457a04763a14d066464287d90028a2124eb6c8fa6893839262007444926001600160a01b031684620106a3565b0390a46001600055005b60018401546200746991906001600160a01b03168362012f39565b8662007185565b60405162461bcd60e51b815260206004820152601e60248201527f4172656e613a206f66666572206e6f7420666f722074686973207461736b00006044820152606490fd5b60405162461bcd60e51b815260206004820152601d60248201527f4172656e613a206e6f74207468652061737369676e6564206167656e740000006044820152606490fd5b3462000d8f576200750b36620105d2565b9062007516620138f0565b336000526020601481526200753460ff6040600020541615620120c3565b6200753e62012f15565b81600052600a8152604060002090600882019182549060ff8260081c16916009831015620013b05760039260038114908115620077e7575b501562007793576000868152600b8552604090205487916001600160a01b0391620075a690831633141562012965565b620075b782855416331415620129be565b87600052600f8652604060002094620075d760ff87549316831062012a09565b60005b8281106200775f57505050620076aa939291620076389188600052600b87526001816040600020541694602554801515806200773d575b6200770e575b508a600052600b895262003037600583604060002001540485101562012b0e565b336000526013845260406000206200765288825462010d37565b9055336000526026845260406000209060005283524260406000205584600052600e8352620030c36040600020604051906200768e8262010737565b3382528886830152600060408301526000606083015262010fa7565b81549160ff8360081c16926009841015620013b057600360008051602062015eec8339815191529414620076eb575b50506040519384523393a36001600055005b6104009061ff0019161790558260005260238152426040600020558480620076d9565b6200314f62007736913360005260268c526040600020896000528c5260406000205462010d37565b8c62007617565b503360005260268a526040600020876000528a52604060002054151562007611565b83945062007787600192939462007777838a6201061b565b905490861b1c1633141562012a53565b019089939291620075da565b60405162461bcd60e51b815260048101859052602660248201527f4172656e613a207461736b206e6f7420726561647920666f722076657269666960448201526531b0ba34b7b760d11b6064820152608490fd5b60049150148862007576565b3462000d8f5760208060031936011262000d8f57600435600052600d6020526040600020906040519081602084549182815201936000526020600020916000905b8282106200784f5762000d8b8562000e028189038262010870565b83546001600160a01b03168652948501946001938401939091019062007834565b3462000d8f57602036600319011262000d8f576200788d62012f15565b600435600052600a6020526040600020600b60205260406000206008820190815460ff8160081c1660098110159081620013b0576005811491821562007c7e575b821562007c6b575b821562007c58575b50501562007c095760046107009260018060a01b038654163314801562007bf5575b6200790b906201224c565b01548062007bd0575b506004356000526042602052620079316040600020541562012298565b61ff0019161790556002810154906101f491828102928184041490151715620011f457600181015462000f5292906200797d90612710830490309033906001600160a01b031662013912565b62007b876200798e603d5462010e23565b9283603d55600435600052604260205283604060002055600260018060a01b0360018301541691015460405191620079c683620107c6565b8583526000602084015260043560408401526000606084015233608084015260a083015260c0820152612710830460e082015242610100820152600061012082015260006101408201526000610160820152600061018082015260006101a082015260006101c082015260006101e0820152600161020082015283600052603e602052610200600a604060002083518155602084015162007a67816201052a565b62007a72816201052a565b60ff801960018401541691161760018201556040840151600282015562007abb6003820160ff60608701511660ff1982541617815560018060a01b036080870151169062011f2d565b6004810160018060a01b0360a08601511660018060a01b031982541617905560c0840151600582015560e08401516006820155610100840151600782015561012084015160088201556101408401516009820155019160ff6101608201511660ff1984541617835562007b3760ff610180830151168462010c45565b62007b4b60ff6101a0830151168462010c5b565b62007b5f60ff6101c0830151168462010c73565b62007b7360ff6101e08301511684620120a6565b01519062007b818262010aeb565b62011faf565b612710604051913360043560008051602062015bec833981519152600080a36000835204602082015233908260008051602062015e4c833981519152604060043593a46201429b565b62007be562007bee9160048701549062010d37565b42111562012684565b8462007914565b5080546001600160a01b0316331462007900565b60405162461bcd60e51b815260206004820152602160248201527f4172656e613a2063616e6e6f74206469737075746520746869732073746174756044820152607360f81b6064820152608490fd5b909150620013b0576007148580620078de565b809250620013b0576004811491620078d6565b506006811491506000620078ce565b3462000d8f57600036600319011262000d8f57601e546040516001600160a01b039091168152602090f35b3462000d8f5762007cc936620105d2565b9060005260506020526040600020805482101562000d8f5760209162002a5d916201061b565b3462000d8f57600036600319011262000d8f576020603d54604051908152f35b3462000d8f57604036600319011262000d8f5762007d2c620102a3565b602435908115159081830362000d8f576001600160a01b031691821562007da05762007d7290336000526007602052604060002084600052602052604060002062010e12565b6040519081527f17307eab39ab6107e8899845ad3d59bd9653f200f220920489ca2b5937696c3160203392a3005b604051630b61174360e31b815260048101849052602490fd5b3462000d8f57604036600319011262000d8f5762007dd662010333565b6000606060405162007de88162010737565b8281528260208201528260408201520152600435600052603f60205260ff60406000209116600052602052608060406000206040519062007e298262010737565b80546001600160a01b03908116835260018201546020840190815260029092015491604084019160ff841662007e5f81620103cf565b835260ff606086019460081c161515845260405194511684525160208401525162007e8a81620103cf565b60408301525115156060820152f35b3462000d8f57602036600319011262000d8f5760043560005260536020526020604060002054604051908152f35b3462000d8f5762007ed836620105d2565b9060005260486020526040600020805482101562000d8f5760209162007efe916201061b565b90546040519160031b1c8152f35b3462000d8f57600036600319011262000d8f57602060405160c88152f35b3462000d8f57602036600319011262000d8f576001600160a01b0362007f4f620102a3565b16600052602e6020526080604060002054602f602052604060002054604051918252600a602083015280421060408301526060820152f35b3462000d8f57600036600319011262000d8f5760206040516276a7008152f35b3462000d8f57600036600319011262000d8f576020602554604051908152f35b3462000d8f57602036600319011262000d8f5760043560005260416020526020604060002054604051908152f35b3462000d8f57602036600319011262000d8f576001600160a01b036200801a620102a3565b16600052602c602052602060ff604060002054166040519015158152f35b3462000d8f57600036600319011262000d8f576040516003546000826200805f83620106c1565b9182825260209360019085600182169182600014620080ec575050600114620080a8575b50620080929250038362010870565b62000d8b6040519282849384528301906201037a565b849150600360005281600020906000915b858310620080d35750506200809293508201018562008083565b80548389018501528794508693909201918101620080b9565b60ff1916858201526200809295151560051b8501019250879150620080839050565b3462000d8f57600036600319011262000d8f57604051601c80548083526000918252602080840193927f0e4562a10381dec21b205ed72637e6b1b523bdd0e4d4d50af5cd23dd4500a21192915b828210620081765762000d8b8562000e028189038262010870565b83546001600160a01b0316865294850194600193840193909101906200815b565b3462000d8f57620081a836620105d2565b90620081b3620138f0565b33600052602060148152620081d160ff6040600020541615620120c3565b620081db62012f15565b81600052604e81526040600020620081ff60ff600683015416620035c8816201052a565b6200820c841515620128cb565b3360005260528252620082256040600020541562012918565b6005810190600a8254101562008322579060047fc482776067f36b4dbc05408d22a274e5dcf2ac95a1185b12348d978720178b15939260018060a01b036200827888826003850154163090339062013912565b6002604051916200828983620107e3565b3383528683018a815260408401914283528a600052604f89526040600020336000528952604060002094511660018060a01b0319855416178455516001840155519101558560005260508452620082e533604060002062011038565b01620082f386825462010d37565b905562008301815462010e23565b90553360005260528152826040600020556040519384523393a36001600055005b60405162461bcd60e51b8152600481018490526015602482015274105c995b984e881cde5b991a58d85d1948199d5b1b605a1b6044820152606490fd5b3462000d8f576200837036620105d2565b906200837b620138f0565b336000526020601481526200839960ff6040600020541615620120c3565b81600052600a815260ff60086040600020015460081c16906009821015620013b057620083e87f8f88859fb40f8fd203fb728f30d86a47819ece47e647bf37001c2b204d74fd04921562012446565b82600052600a815260018060a01b036200840c8160406000205416331415620126cf565b83600052600a825262008429600660406000200154421062012717565b83600052600c825260406000203360005282526200844d604060002054156201275c565b83600052600d8252620084686014604060002054106201279e565b33600052602e825262008483600a60406000205410620127e8565b33600052602f82526200849e60406000205442101562012833565b33600052602e82526040600020620084b7815462010e23565b9055600460405191620084ca8362010753565b868352838301906000825260408401913383526200852b60608601916000835260808701936000855260a0880195600087528b600052600c8a526040600020336000528a526040600020985189556200375f60018a01935115158462010e12565b5160028501555160038401555191015582600052600d815262003a3533604060002062011038565b3462000d8f57602036600319011262000d8f5760043560005260496020526020604060002054604051908152f35b62010685565b3462000d8f57600036600319011262000d8f576020604051611f408152f35b3462000d8f57602036600319011262000d8f576001600160a01b03620085cb620102a3565b1660005260116020526020604060002054604051908152f35b3462000d8f57600036600319011262000d8f576001546040516001600160a01b039091168152602090f35b3462000d8f57602036600319011262000d8f57600435600052600a6020526040600020602062000d8b60018060a01b0392838154169360018201541693600282015491620086d46003820154600483015460058401546006850154906007860154926008870154946200868a600a60098a0154990162010894565b996040519d8e9d8e6101809c8152015260408d015260608c015260808b015260a08a015260c089015260e088015260ff811661010088015260ff61012088019160081c166201048d565b610140850152806101608501528301906201037a565b3462000d8f57620086fb3662010590565b9162008709949394620138f0565b6200871362012f15565b83600052602092600a845260406000209060068201544210158062008933575b6200873e9062011d06565b600882019182549160ff8360081c16906009821015620013b057869460049462008829931562008920575b505088600052600c88526040600020336000528852620088168a604060002094620087cf8b8a8a6200151c8a5493620087a485151562011d51565b6200150d60018d019a620087bd60ff8d54161562011d98565b6040519485938401968b338962011ddf565b620087f26002820154620087e9600a820485101562011e52565b8a111562011e9c565b620087ff88151562011ee7565b60010154309033906001600160a01b031662013912565b805460ff19166001178155339062011f2d565b8760028201558360038201550155336000526013835260406000206200885186825462010d37565b9055336000526010835260406000205460018101809111620011f45762008879908662010d92565b92670de0b6b3a764000093848102948186041490151715620011f457620088c2827fede645f5c05d95365d0b300c517187baacac94489943a843e4990a9cd657e2389562010da6565b90856000526017815260406000209182548111620088fb575b505050620088f160405192839233978462011c57565b0390a36001600055005b90915560169052604060002080546001600160a01b03191633179055858080620088db565b61ff0019166101001790558a8062008769565b506007820154421062008733565b62010309565b3462000d8f57600036600319011262000d8f576200896462012f79565b6200896e620138f0565b6001805460ff60a01b1916600160a01b1790556040513381527f62e78cea01bee320cd4e420270b5ea74000d11b0c9f74754ebdbfc544b05a25890602090a1005b3462000d8f57602036600319011262000d8f576004356000526016602052602060018060a01b0360406000205416604051908152f35b3462000d8f57602036600319011262000d8f57600435600052604e6020526040600020805462000d8b62008a1c6001840162010894565b9260018060a01b039081600282015416916003820154166004820154600583015491600760ff600686015416940154946040519889988962010535565b3462000d8f5760208060031936011262000d8f5760043560005260346020526040600020906040519081602084549182815201936000526020600020916000905b82821062008ab55762000d8b8562000e028189038262010870565b83546001600160a01b03168652948501946001938401939091019062008a9a565b3462000d8f57600036600319011262000d8f576020600954604051908152f35b3462000d8f57602036600319011262000d8f57600435600052604c6020526020604060002054604051908152f35b620105b3565b3462000d8f57602036600319011262000d8f5762008b47620138f0565b62008b5162012f15565b6004356000526031602052604060002062008b8f60ff600983015460381c1662008b7b8162010328565b6001811490811562008def575b5062010e33565b62008ba1600882015442101562010e7e565b600435600052603460205260406000209062008bc08254151562010ecb565b6004356000908152603560205260409020546001600160a01b031662008be881151562010f09565b60043560005260336020526040600020816000526020526040600020916002830154600660038501546040519262008c20846201081b565b85845260208401918183526040850191825260608501908152608085019042825260a08601926000845260c087019460008652600435600052603260205260406000209760018060a01b0390511660018060a01b031989541617885551600188015551600287015551600386015551600485015551600584015551910155600160391b60ff60381b196009830154161760098201556001808060a01b039101541660005b845481101562008d8d576001906004356000526033602052604060002062008ced82886201061b565b848060a01b0391549060031b1c1660005260205260406000208281015460ff81168062008d78575b62008d24575b50500162008cc4565b81600262008d70930191825490868060a01b039060081c16600052601360205262008d56604060002091825462010b98565b905584808060a01b0391015460081c169054908562012f39565b868062008d1b565b5085848060a01b038260081c16141562008d15565b828481600052603a602052604060002062008da9815462010e23565b90556003600282015491015460405191825260208201527fc8a17cde305f6a41b759c043f1f9e70599c8e28ae5108571db7b2637687e0c11604060043592a36001600055005b905062008dfc8162010328565b158362008b88565b3462000d8f57604036600319011262000d8f5762008e21620102ba565b600435600052605c60205260406000209060018060a01b0316600052602052602060ff604060002054166040519015158152f35b3462000d8f5760208060031936011262000d8f576004359081600052600a815260018060a01b0362008e908160406000205416331462010bf2565b82600052600a825260ff8060086040600020015460081c166009811015620013b05762008ebe901562012446565b62008ec862012f15565b83600052600a83526040600020906008820161080061ff00198254161790556001938493600184019362008f0a82865416838354166002809401549162012f39565b87600052600d83526040600020936000965b62008f4f575b887fc6eacc3aa5b2aa77b5a826b832a804ca0b71830ec74f9aa57a15edd978c31ed6600080a26001600055005b8454871015620090465787878462008f69839a896201061b565b919054600392831b1c16600052602e8752604060002062008f8b815462010be4565b90558b600052600c875260406000208662008fa7848b6201061b565b905490841b1c166000528752604060002090858585840154168062009039575b62008fd8575b505050019662008f1c565b62009030920180548862008fed868d6201061b565b905490851b1c1660005260138a526200900d604060002091825462010b98565b905587808c54169262009021868d6201061b565b9054911b1c1690549162012f39565b8b808562008fcd565b5080830154151562008fc7565b62008f22565b3462000d8f57604036600319011262000d8f57600435602490813591600583101562000d8f576200907c62012f79565b6200908662012f15565b81600052602092600a8452604060002091600b85526040600020600884019182549260ff8460081c166009811015620094e757600503620094ac57620090da62007be5600485015460048901549062010d37565b8660005260158852604060002054938415620094715761ff001916610600179055620091068462010328565b836200940d576105dc925b61271062009120858362010d92565b049581871162009403575b87600052604c89528660406000205562009146878362010b98565b908860005260158a52600060408120556200917060018060a01b0396876001840154169462010d92565b6103e890818102918183041490151715620093ee576305f5e1009004620091a66200919c828b62010b98565b9160095462010d37565b6009558681620093d7575b50505080620093bf575b5050620091c88462010328565b60048414806200939e575b8383541660005260108852604060002060148154101560001462009394575083835416600052604060002080549060131982019182116200937f57555b838354166000526012885260406000206200922c815462010e23565b9055838354166000526011885260406000206200924a815462010be4565b905583835416906200925c826201442a565b620092678662010328565b6002861490811562009367575b811562009353575b50620092e2575b50509160008051602062015eac8339815191529391604093541695868660008051602062015c8c833981519152868051878152620092c18762010328565b8686820152a38351928352620092d78262010328565b820152a36001600055005b6203f4804201918242116200933f57509160008051602062015eac83398151915295939160409593600052602f895280866000205560008051602062015e2c8339815191528984845416928851908152a291938193955062009283565b634e487b7160e01b60009081526011600452fd5b9050620093608662010328565b896200927c565b9050620093748662010328565b600386149062009274565b83634e487b7160e01b60005260116004526000fd5b6000905562009210565b83835416600052601488526040600020600160ff19825416179055620091d3565b620093cf91858554169062012f39565b8780620091bb565b620093e59254168462012f39565b898086620091b1565b84634e487b7160e01b60005260116004526000fd5b955080956200912b565b620094188462010328565b600184036200942b576109c49262009111565b620094368462010328565b6002840362009449576113889262009111565b620094548462010328565b600384036200946757611d4c9262009111565b6127109262009111565b60405162461bcd60e51b8152600481018a905260148185015273105c995b984e881b9bc81cdb185cda08189bdb9960621b6044820152606490fd5b60405162461bcd60e51b81526004810189905260148184015273105c995b984e881b9bdd0818dbdb5c1b195d195960621b6044820152606490fd5b82634e487b7160e01b60005260216004526000fd5b3462000d8f5760208060031936011262000d8f5760043560005260488152604060002060405190818382549182815201908192600052846000209060005b8682821062009595578686620095538288038362010870565b604051928392818401908285525180915260408401929160005b8281106200957d57505050500390f35b8351855286955093810193928101926001016200956d565b8354855290930192600192830192016200953a565b3462000d8f57602036600319011262000d8f57600435600052603160205260408060002062000d8b60018060a01b039182815416926001820154169260028201549160ff600382015460048301546005840154600685015460078601549160088701549360098801549562009627600b600a8b01549a0162010894565b9a8e519e8f9e8f906102609d82526020820152015260608d015260808c015260a08b015260c08a015260e0890152610100880152818116610120880152818160081c16610140880152818160101c16610160880152818160181c16610180880152818160201c166101a0880152818160281c166101c0880152818160301c166101e0880152620096bc828260381c1662010328565b60381c16610200860152610220850152806102408501528301906201037a565b3462000d8f57604036600319011262000d8f57620096f9620102a3565b602435906001600160401b03821162000d8f573660238301121562000d8f5760206200975f916200973682943690602481600401359101620109b7565b9060018060a01b0316600052606082526040600020826040519483868095519384920162010355565b82019081520301902054604051908152f35b3462000d8f57602036600319011262000d8f57600435600052606360205260a06040600020546200200060405191620097ae8360ff8316620103c1565b60ff8160081c16602084015260ff8160101c16604084015260ff8160181c16606084015260ff608084019160201c16620103c1565b3462000d8f5761014036600319011262000d8f5762009801620102a3565b60c43560ff8116810362000d8f5760e4359060ff8216820362000d8f57610124356001600160401b03811162000d8f57620098419036906004016201096b565b936200984c620138f0565b6200985662012f15565b62009865602435151562012549565b62278d008060443514801562009f24575b801562009f15575b1562009ebd5762093a806064351015908162009eaf575b501562009e6057620098ac60643560443562010f6d565b62009e025760ff831615158062009df3575b620098c99062012592565b620098d86084351515620125df565b620098e760a43515156201262c565b60ff620098f960643560443562010da6565b16916002831062009da35760ff851615158062009d95575b1562009d525760609562009a5a926001600160a01b03811662009d4857507f00000000000000000000000000000000000000000000000000000000000000006001600160a01b03169460ff905b6200997760243530336001600160a01b038b1662013912565b8160305498620099878a62010e23565b603055620099988860243562010da6565b620099a66084354262010d37565b620099bb60a435620014f16084354262010d37565b916040519d8e620099cc816201078c565b3381528d60018060a01b03166020820152602435604082015201528c60806044359101528c60a06064359101528c60c04291015260e08d01526101008c0152876101208c015260006101408c015260006101608c015260006101808c015260006101a08c0152166101c08a0152166101e08801526000610200880152610104356102208801523691620109b7565b61024085810191909152600084815260316020908152604091829020875181546001600160a01b03199081166001600160a01b0392831617835592890151600183018054909416911617909155908601516002820155606086015160038201556080860151600482015560a0860151600582015560c0860151600682015560e08601516007820155610100860151600882015561012086015160098201805460ff191660ff928316178155610140880151600b939262009b1c91168262010c45565b62009b3060ff6101608a0151168262010c5b565b62009b4460ff6101808a0151168262010c73565b62009b5860ff6101a08a01511682620120a6565b6101c0880151815460ff60301b6101e08b015160301b16906102008b015162009b818162010328565b62009b8c8162010328565b60ff60381b9060381b169260ff60281b9060281b169062ffffff60281b19161717179055610220870151600a8201550194015193845160018060401b038111620029e55762009bdc8254620106c1565b601f811162009cfb575b50806020968790601f831160011462009c925760009262009c86575b50508160011b916000199060031b1c19161790555b82600052603c84526024356040600020556040519160018060a01b0316825260243584830152604435604083015260643560608301526080820152817f3d5d3874832d5311e539d038a055fbdb6d2da664ca74bfda636760711f61fad460a03393a36001600055604051908152f35b01519050878062009c02565b60008581528981209350601f198516905b81811062009ce3575090846001959493921062009cc9575b505050811b01905562009c17565b015160001960f88460031b161c1916905587808062009cbb565b92938a60018192878601518155019501930162009ca3565b826000526020600020601f830160051c8101916020841062009d3d575b601f0160051c01905b81811062009d30575062009be6565b6000815560010162009d21565b909150819062009d18565b60ff90956200995e565b60405162461bcd60e51b815260206004820152601b60248201527a4172656e613a20696e76616c6964206d6178206661696c7572657360281b6044820152606490fd5b508260ff8616111562009911565b60405162461bcd60e51b815260206004820152602260248201527f4172656e613a206e656564206174206c65617374203220636865636b706f696e604482015261747360f01b6064820152608490fd5b50600560ff84161115620098be565b60405162461bcd60e51b815260206004820152603060248201527f4172656e613a20696e74657276616c206d75737420646976696465206576656e60448201526f363c9034b73a3790323ab930ba34b7b760811b6064820152608490fd5b60405162461bcd60e51b815260206004820152602160248201527f4172656e613a20696e74657276616c206d75737420626520372d3330206461796044820152607360f81b6064820152608490fd5b905060643511158662009895565b60405162461bcd60e51b815260206004820152602a60248201527f4172656e613a206475726174696f6e206d7573742062652033302c2036302c206044820152696f72203930206461797360b01b6064820152608490fd5b506276a700604435146200987e565b50624f1a006044351462009876565b3462000d8f5762009f443662010945565b91600052603960205260ff604060002091166000526020526040600020805482101562000d8f5760209162002a5d916201061b565b3462000d8f57602036600319011262000d8f57602062009fa262009f9c620102a3565b620124d3565b604051908152f35b3462000d8f57602036600319011262000d8f5760043560005260366020526020604060002054604051908152f35b3462000d8f57600036600319011262000d8f576040517f00000000000000000000000000000000000000000000000000000000000000006001600160a01b03168152602090f35b3462000d8f57604036600319011262000d8f576200a03c62010333565b600435600052602060388152604060002060ff809316600052815260406000208054906200a06a8262010c8d565b926200a07a604051948562010870565b82845260009182528082208185015b8484106200a0a1576040518062000d8b8882620103da565b6004836001926040516200a0b58162010737565b848060a01b03865416815284860154838201528a6002870154166200a0da81620103cf565b6040820152600386015460608201528152019201930192906200a089565b3462000d8f57600036600319011262000d8f576200a11562012f79565b6021805460ff60301b19169055005b620102e9565b3462000d8f57602036600319011262000d8f5760043560005260546020526020604060002054604051908152f35b3462000d8f57600036600319011262000d8f576200a17562012f79565b600180546001600160a01b031981169091556000906001600160a01b031660008051602062015dac8339815191528280a3005b3462000d8f57602036600319011262000d8f576001600160a01b036200a1cd620102a3565b1680156200a1ed5760005260056020526020604060002054604051908152f35b6040516322718ad960e21b815260006004820152602490fd5b3462000d8f5760208060031936011262000d8f576004356200a22762012f15565b80600052605b825260406000209160ff600784015416156200a62f5781600052605c8152604060002033600052815260ff604060002054166200a5f25782546001600160a01b039081166000818152605984526040808220338352855290205490929181156200a5b45784600052605c835260406000203360005283526040600020600160ff19825416179055836000526058835260406000209185600052600a8452604060002091600184015416946200a2e760028901548362010d92565b90600489019160ff60086200a2ff8554809462010da6565b96015460081c166009811015620013b057600581036200a4315750505060058801546002949392919080156200a425576200a34a6200a3416006928562010d92565b83549062010da6565b995b01549182156200a419576200a36f926200a3669162010d92565b90549062010da6565b945b6200a37d868962010d37565b806200a404575b5050806200a3d4575b50016200a39c83825462010d37565b90556040519384528301527fc031d629c0747a19e7f896c8c9a0d28ff66411dfadbde3f3f6c222ddde33bd9160403393a36001600055005b60068201805490918082106200a3f9576200a3ef9162010b98565b905b55866200a38d565b50506000906200a3f1565b6200a41191339062012f39565b87806200a384565b5050506000946200a371565b5060066000996200a34c565b600691935099919399959495146200a453575b50505050505050505062000f52565b600601549081156200a5a957620013226200a46f928a62010d92565b965b878411156200a5a0576200a486888562010b98565b955b88806200a58b575b505085106200a55f57600052605983526040600020336000528352600060408120555b836200a531575b816200a501575b50506040519384528301527f1b615754d24ab5e679ad7c695ff41a5000573c97284eebf1e1eb897db7b3236160403393a38080808080808080806200a444565b600601805490918082106200a526576200a51b9162010b98565b905b5584806200a4c1565b50506000906200a51d565b600281018054858082106200a554576200a54b9162010b98565b905b556200a4ba565b50506000906200a54d565b60005260598352604060002033600052835260406000206200a58385825462010b98565b90556200a4b3565b6200a59891339062012f39565b88886200a490565b6000956200a488565b50506000966200a471565b60405162461bcd60e51b815260048101849052601660248201527520b932b7309d103737ba1030903232b632b3b0ba37b960511b6044820152606490fd5b6064906040519062461bcd60e51b825260048201526016602482015275105c995b984e88185b1c9958591e4818db185a5b595960521b6044820152fd5b6064906040519062461bcd60e51b825260048201526017602482015276105c995b984e881d185cdac81b9bdd081cd95d1d1b1959604a1b6044820152fd5b3462000d8f576200a67e36620105d2565b81600052602090600b825260018060a01b03906200a6a58260406000205416331462010cee565b83600052600a835260ff60086040600020015460081c166009811015620013b05760026200a6d4911462012446565b6200a6e181151562012490565b83600052600a835260036040600020015442116200a8ea5783600052600b835280600560406000204260048201550155600a8352600860406000200161030061ff0019825416179055604051908152837fb0acd737748d89fbda38a623192607ecbe085e9cbdea13e1fc8178602ea790e2843393a36021549060ff8260301c166200a76857005b83600052600a8352604060002060ff6008601c5492015416116200a89957916200a80d8192600094601e54169083549063ffffffff601f54916200a7bc6040516200a7b381620107ff565b8a815262015812565b92604051946200a7cc8662010753565b85528785015261ffff81881c1660408501521660608301526001608083015260a0820152604051958680948193634d8e1c2f60e11b8352600483016201423f565b03925af180156200a88d576000906200a84b575b60008051602062015d6c8339815191529250806000526022825283604060002055604051908152a2005b508082813d83116200a885575b6200a864818362010870565b8101031262000d8f5760008051602062015d6c83398151915291516200a821565b503d6200a858565b6040513d6000823e3d90fd5b60405162461bcd60e51b815260048101849052602360248201527f4172656e613a206e6f7420656e6f7567682076657269666965727320696e20706044820152621bdbdb60ea1b6064820152608490fd5b60405162461bcd60e51b8152600481018490526016602482015275105c995b984e88191958591b1a5b99481c185cdcd95960521b6044820152606490fd5b3462000d8f57600036600319011262000d8f576200a94562012f15565b336000526020601b8152604060002090600182019182549260ff8416156200aaa2579060009181549460ff191690555533600052601d815260406000205490601c549160001992838101908111620011f4578082036200aa59575b5050601c549182156200aa43577f419d7329cf4ef1ae7ff471451219dbc86d28b9e8067e7af6a76788885d38661c92016200a9f46200a9df82620105e9565b81549060018060a01b039060031b1b19169055565b601c5533600052601d8152600060408120556200aa3383337f000000000000000000000000000000000000000000000000000000000000000062012f39565b6040519283523392a26001600055005b634e487b7160e01b600052603160045260246000fd5b6200aa6490620105e9565b905460039190911b1c6001600160a01b03166200aa8d816200aa8684620105e9565b9062010ba6565b600052601d825260406000205583806200a9a0565b60405162461bcd60e51b815260048101849052601b60248201527a105c995b984e881b9bdd081a5b881d995c9a599a595c881c1bdbdb602a1b6044820152606490fd5b3462000d8f5760208060031936011262000d8f57600435906200ab0762012f15565b81600052603e81526040600020600a81019260ff9283855460281c16906200ab2f8262010aeb565b6200ab3e600280931462011f52565b60089560088501544211156200ac6b5760018060a01b039182600487015416946200ab7984600389015460081c166006890154908862012f39565b60005b88845416898216908110156200abf657899160019184600052603f865260406000209060005285526040600020838d8a830154901c16806200abe9575b6200abc8575b5001166200ab7c565b806200abe1848a60009454169201918254908d62012f39565b558c6200abbf565b508281015415156200abb9565b845460ff60281b1916600560281b1785556001890154839060008051602062015d4c8339815191529060609087906200ac31908f166201052a565b601d604051918083528201527f6e6f7420656e6f7567682061726269747261746f7273207374616b65640000006040820152a26001600055005b60405162461bcd60e51b815260048101839052602260248201527f4172656e613a207374616b696e6720646561646c696e65206e6f742070617373604482015261195960f21b6064820152608490fd5b62010450565b3462000d8f5760208060031936011262000d8f576004356200ace262012f15565b80600052604e8252604060002091604f8152604060002033600052815260019182604060002001549182156200af205781600052605381526200ad2b6040600020541562011caf565b60028501546001600160a01b03959086163314806200af12575b6200aebe5784956003906200ad6286338360038701541662012f39565b84600052605084526040600020876000905b6200ae27575b5050505060008051602062015cec83398151915292939450600481016200ada386825462010b98565b9055600581016200adb5815462010be4565b815584600052604f835260406000203360005283526000600260408220828155828a8201550155605283526000604081205554156200adfe575b506040519384523393a3600055005b600601805460ff1916861790558260008051602062015c6c833981519152600080a2856200adef565b8154808210156200aeb757836200ae3f83856201061b565b905490871b1c1633146200ae5757508801886200ad74565b96979850600093919293198701968711620011f4576200aa866200aeaa946200aea4936200ae9660008051602062015cec8339815191529a876201061b565b9054911b1c1691846201061b565b62010bc3565b859493928780806200ad7a565b506200ad7a565b60405162461bcd60e51b815260048101839052602660248201527f4172656e613a206d616e61676572206d75737420646973736f6c76652073796e60448201526564696361746560d01b6064820152608490fd5b50846005820154116200ad45565b6064906040519062461bcd60e51b82526004820152601360248201527220b932b7309d103737ba10309036b2b6b132b960691b6044820152fd5b3462000d8f57602036600319011262000d8f576001600160a01b036200af7f620102a3565b16600052602e6020526020604060002054604051908152f35b3462000d8f57602036600319011262000d8f5760206200afba60043562012fa6565b6040516001600160a01b039091168152f35b3462000d8f57602036600319011262000d8f576200afe9620102a3565b6200aff362012425565b5060018060a01b0316600052601b602052606060406000206040516200b01981620107e3565b8154918282526040600260ff60018401541692602085019315158452015492019182526040519283525115156020830152516040820152f35b3462000d8f57602036600319011262000d8f576001600160a01b036200b077620102a3565b16600052606160205262000d8b6200b093604060002062010894565b6040519182916020835260208301906201037a565b3462000d8f57604036600319011262000d8f576200b0c5620102a3565b6200b0cf620102ba565b9060018060a01b038091166000526029602052604060002091166000526020526020604060002054604051908152f35b3462000d8f57602036600319011262000d8f576200b11c620123f1565b50600435600052600b60205260c060406000206040516200b13d8162010753565b60018060a01b03825416918282526001810154602083019081526002820154604084019081526003830154916060850192835260a0600560048601549560808801968752015495019485526040519586525160208601525160408501525160608401525160808301525160a0820152f35b3462000d8f57600036600319011262000d8f57602060ff60015460a01c166040519015158152f35b3462000d8f57600036600319011262000d8f57602060ff60215460301c166040519015158152f35b3462000d8f576200b20f36620105d2565b90600052600d6020526040600020805482101562000d8f5760209162002a5d916201061b565b3462000d8f57600036600319011262000d8f57602060215461ffff60405191831c168152f35b3462000d8f57600036600319011262000d8f57602060405160648152f35b3462000d8f57602036600319011262000d8f576001600160a01b036200b29e620102a3565b16600052604a6020526020604060002054604051908152f35b3462000d8f57602036600319011262000d8f576001600160a01b036200b2dc620102a3565b1660005260526020526020604060002054604051908152f35b3462000d8f57602036600319011262000d8f576001600160a01b036200b31a620102a3565b1660005260106020526020604060002054604051908152f35b3462000d8f57600036600319011262000d8f576020601c54604051908152f35b3462000d8f5760208060031936011262000d8f576004356200b37462012f15565b80600052604982526040600020546200b38f81151562012360565b806000526047835260406000209260098401906200b3b8600160ff845416620018cc8162010328565b83600052600a8152604060002091600b8252604060002060ff600885015460081c166009811015620013b0577faf896fc52b0a9f42bc7338b6cab9c7b64d25b18d656e6bee155dbb2b4fd0d2ee946004806200b434946200b42060056200b42c961462010ca5565b01549101549062010d37565b421162010d45565b60018060a01b039081600488015416906200b45f60028901926006858554169a01998a549162012f39565b600360ff19825416179055865482825416600052604a84526200b489604060002091825462010b98565b905554169454604051908152a46001600055005b3462000d8f57602036600319011262000d8f57600435600052605b602052610100604060002060018060a01b03815416906001810154906002810154600382015460048301549060058401549260ff600760068701549601541695604051978852602088015260408701526060860152608085015260a084015260c0830152151560e0820152f35b3462000d8f57604036600319011262000d8f576200b542620102ba565b600435600052604f602052604060002060018060a01b0380921660005260205260406000209081541662000d8b6002600184015493015460405193849384620106a3565b6201046f565b3462000d8f57602036600319011262000d8f57600435600052600b60205260c0604060002060018060a01b038154169060018101549060028101546003820154906005600484015493015493604051958652602086015260408501526060840152608083015260a0820152f35b3462000d8f57600036600319011262000d8f576020604554604051908152f35b3462000d8f5760208060031936011262000d8f57600435906200b63b620138f0565b33600052601481526200b65760ff6040600020541615620120c3565b6200b66162012f15565b33600052601b815260ff600160406000200154166200b75c576200b68a60245483101562011e52565b6200b6b88230337f000000000000000000000000000000000000000000000000000000000000000062013912565b6040516200b6c681620107e3565b8281526002828201600181526200b6fc604084019142835233600052601b86526040600020945185555115156001850162010e12565b51910155601c54601d8252604060002081905590600160401b821015620029e5576200aa336200b7548360017f983b8264b64c9863a439320eb632213f6e5ca279753b012988656784757d97759501601c55620105e9565b339162010ba6565b6064906040519062461bcd60e51b82526004820152601f60248201527f4172656e613a20616c726561647920696e20766572696669657220706f6f6c006044820152fd5b3462000d8f576200b7b136620105d2565b90600052600f6020526040600020805482101562000d8f5760209162002a5d916201061b565b3462000d8f57602036600319011262000d8f576001600160a01b036200b7fc620102a3565b16600052602a6020526020604060002054604051908152f35b3462000d8f5760208060031936011262000d8f57600435906200b83762012f15565b81600052603e81526040600020600a81019060ff9384835460281c166200b85e8162010aeb565b6200b86d600380921462011fd5565b60099460098401544211156200ba945760048401546001600160a01b039081169490929060005b898854168a8216908110156200b9fa57908a9187600052603f865260406000209060005285526040600020600281015483808260081c1691826200b9e3575b50506200b8e6575b50600101166200b894565b915060018201908154916105dc90818402918483041484151715620011f4576200b91861271060009304809562010b98565b8d6200b92686825462010d37565b9055806200b9cc575b505586835416600052601086528b888789604060002089815410156000146200b9ab5750925050508354166000526040600020918254926002198401938411620011f45760008051602062015d8c833981519152888f968b906001978e95555b5416936200b99d856201442a565b604051908152a3906200b8db565b906001969497600060008051602062015d8c8339815191529493556200b98f565b6200b9dc908a8754168d62012f39565b8e6200b92f565b1690506200b9f181620103cf565b15838e6200b8d3565b5050939791965050845460101c1615156000146200ba2257505050505062000f529062013957565b60008051602062015d4c83398151915294928260066200ba5293600360609896015460081c169101549162012f39565b805460ff60281b1916600560281b17905560408051828152601292810192909252711b9bc81d9bdd195cc81cdd589b5a5d1d195960721b90820152a262000f52565b6084906040519062461bcd60e51b82526004820152602160248201527f4172656e613a20766f74696e6720646561646c696e65206e6f742070617373656044820152601960fa1b6064820152fd5b3462000d8f57604036600319011262000d8f576004356200bb02620102ba565b906200bb0d620138f0565b3360005260146020526200bb2a60ff6040600020541615620120c3565b6101f4811015806200bc80575b156200bc3c5733600090815260586020526040902080546001600160a01b03939084166200bc06579160056200bbfa927f67a5178fdb879a3a85f84d8fa462906cf4f6563030b0dc15e96b3d794ef2249f94868116156000146200bbff5750857f000000000000000000000000000000000000000000000000000000000000000016955b60018060a01b03193381845416178355600183019188169082541617905582600482015501600160ff1982541617905560405191829133958362012345565b0390a2005b956200bbbb565b50819250600401556040519081527f7b7cb2d3fab0af7fa35282beeeb2866c3a737dca0d8f7cf20723440a1747def260203392a2005b60405162461bcd60e51b815260206004820152601c60248201527b4172656e613a20696e76616c696420726576656e756520736861726560201b6044820152606490fd5b506123288111156200bb37565b3462000d8f57604036600319011262000d8f576004356200bcad62010333565b906200bcb8620138f0565b6200bcc262012f15565b806000526020916031835260406000209060328452604060002060098301918254936200bd3960ff926200bd026002858960381c1662002f348162010328565b6200bd17848083169860081c168814620122e5565b62000f36846200bd2c60048801549362012332565b1660058501549062010d92565b96620151808801808911620011f4574211156200bf59578660005260378152604060002086600052815260406000209760048901908154908582166200bd7f8162010aeb565b6200bf14578a5560ff191660051790556002840180546109c480820294929082158387049091141715620011f4576200bdc59a6006916127108097049c8d809562010b98565b90558188016200bdd784825462010d37565b9055015560018060a01b0398896001830154166103e894858302958387041483151715620011f457620010296200be149160109704809462010b98565b6009558a826200befc575b925050508454166000525260406000206003815410156000146200bedf5750858254166000526040600020908154916002198301928311620011f45762000f52976200bea8946200bea1946200be7993555b54166201442a565b6200be956200be8e82865460181c1662011f9d565b8562010c73565b835460081c1662011f9d565b8262010c45565b805460ff60201b19169055817f02f98f598c16f5fea09f6dd3c40f539cc6ce7e8f4aa22506242f8493fb7880b0600080a362014478565b906200be7962000f52976200bea89460006200bea195556200be71565b6200bf0a9354169062012f39565b8880808a6200be1f565b60405162461bcd60e51b815260048101859052601d60248201527f4172656e613a20636865636b706f696e74206e6f742070656e64696e670000006044820152606490fd5b6064906040519062461bcd60e51b82526004820152601f60248201527f4172656e613a20677261636520706572696f64206e6f742065787069726564006044820152fd5b3462000d8f57600036600319011262000d8f576020604051624f1a008152f35b3462000d8f57604036600319011262000d8f576200bfda62010333565b6200bfe462012f15565b6004356000526031602052604060002060326020526200c03b60406000206200c01e600260ff600986015460381c1662002f348162010328565b82546001600160a01b031633149081156200c276575b506201224c565b6004356000526037602052604060002060ff831660005260205260ff600460406000200154166200c06c8162010aeb565b600381149081156200c25f575b50156200c21a576004356000526043602052604060002060ff83166000526020526200c0ab6040600020541562012298565b60028101546101f490818102918183041490151715620011f457600182015462000f52936200c1e9916200c0f290612710850490309033906001600160a01b031662013912565b6200c0ff603d5462010e23565b9384603d556004356000526043602052604060002060ff831660005260205284604060002055600360018060a01b036001830154169101549060ff604051936200c14985620107c6565b87855260016020860152600435604086015216606084015233608084015260a083015260c0820152612710830460e082015242610100820152600061012082015260006101408201526000610160820152600061018082015260006101a082015260006101c082015260006101e0820152600161020082015283600052603e602052610200600a604060002083518155602084015162007a67816201052a565b612710604051916001835204602082015233908260008051602062015e4c833981519152604060043593a46201429b565b60405162461bcd60e51b815260206004820152601f60248201527f4172656e613a20636865636b706f696e74206e6f74206576616c7561746564006044820152606490fd5b600491506200c26e8162010aeb565b14836200c079565b546001600160a01b031633149050846200c034565b3462000d8f57604036600319011262000d8f576200c2a862010333565b600435600052603f60205260ff604060002091166000526020526080604060002060ff60018060a01b038254169160026001820154910154908282169060405194855260208501526200c2fb81620103cf565b604084015260081c1615156060820152f35b3462000d8f57620061686200c32236620104b9565b90604051926200c33284620107ff565b6000845262012c8a565b3462000d8f57600036600319011262000d8f5760206040516203f4808152f35b3462000d8f57600036600319011262000d8f576200c37962012f79565b60015460ff8160a01c16156200c3c15760ff60a01b19166001556040513381527f5db9ee0a495bf2e6ff9c91a7834c1ba4fdd244a5e8aa4e537bd38aeae4b073aa90602090a1005b604051638dfc202b60e01b8152600490fd5b62010634565b3462000d8f57604036600319011262000d8f5760ff6200c3f8620102ba565b600435600052600c602052604060002060018060a01b0380921660005260205262000d8b6040600020805490600181015460028201549060046003840154930154936040519788978360081c169216908762010654565b3462000d8f576200c460366201050f565b916200c46b62012f15565b80600052600a602052604060002091600b60205260406000209260ff600882015460081c166009811015620013b05760026200c4a8911462012152565b83546001600160a01b03169081156200c82857546001600160a01b031633146200c7e5578033146200c7a057811515806200c793575b156200c754576200c5039083600052604960205262009f9c60406000205415620121aa565b84106200c710576001926200c52082612710958693015462010d92565b04926200c52e858562010d92565b0483156200c6d45780156200c699576200c54a60445462010e23565b93846044556040516200c55d81620107a9565b8581526008866200c607602084013381526040850189815260608601898152608087018d815260a088019189835260c08901938b855260e08a0195600087526101008b0198428a52600052604660205260406000209a518b5560018b019060018060a01b0390511660018060a01b03198254161790555160028a0155516003890155516004880155516005870155516006860155516200c5fd8162010328565b60078501620121f6565b51910155836000526048602052604060002090815496600160401b881015620029e5576200c68987946200c6658a7fd0befe5196cf34917906e76696e7d94a4eb0161c6e7197547ba222c35dbc562896600160209d0181556201061b565b81549060031b9088821b91600019901b191617905560405193849333988562010b33565b0390a46001600055604051908152f35b60405162461bcd60e51b81526020600482015260136024820152724172656e613a207a65726f207072656d69756d60681b6044820152606490fd5b60405162461bcd60e51b81526020600482015260146024820152734172656e613a207a65726f20636f76657261676560601b6044820152606490fd5b60405162461bcd60e51b815260206004820152601c60248201527b4172656e613a207072656d69756d2062656c6f77206d696e696d756d60201b6044820152606490fd5b60405162461bcd60e51b81526020600482015260176024820152764172656e613a20696e76616c696420636f76657261676560481b6044820152606490fd5b50611f408211156200c4de565b60405162461bcd60e51b815260206004820152601f60248201527f4172656e613a206167656e742063616e6e6f742073656c662d696e73757265006044820152606490fd5b60405162461bcd60e51b815260206004820152601b60248201527a4172656e613a20706f737465722063616e6e6f7420696e7375726560281b6044820152606490fd5b60405162461bcd60e51b8152602060048201526018602482015277105c995b984e881b9bc81859d95b9d08185cdcda59db995960421b6044820152606490fd5b3462000d8f576200c87936620105d2565b9060005260406020526040600020805482101562000d8f5760209162002a5d916201061b565b3462000d8f57600036600319011262000d8f5760206040516123288152f35b3462000d8f57604036600319011262000d8f576200c8db620102a3565b602435906200c8e9620138f0565b6200c8f362012f15565b6200c90082151562010b4f565b6001600160a01b03908116903382146200cae95781600052602090601482526200c93360ff6040600020541615620120c3565b82600052605882526040600020906200c95181835416151562012109565b60ff600583015416156200ca9657849084600052605984526040600020336000528452604060002054156200c9f2575b916200c9ab60029260008051602062015ecc83398151915295946001840154163090339062013912565b8460005260598352604060002033600052835260406000206200c9d087825462010d37565b9055016200c9e085825462010d37565b90556040519384523393a36001600055005b9050600382016014815410156200ca5157916200c9ab8660029360008051602062015ecc833981519152969588600052605a87526200ca3633604060002062011038565b6200ca42815462010e23565b9055929495509250506200c981565b60405162461bcd60e51b815260048101859052601d60248201527f4172656e613a206d61782064656c656761746f727320726561636865640000006044820152606490fd5b60405162461bcd60e51b815260048101849052602560248201527f4172656e613a20706f6f6c206e6f7420616363657074696e672064656c65676160448201526474696f6e7360d81b6064820152608490fd5b60405162461bcd60e51b815260206004820152601e60248201527f4172656e613a2063616e6e6f742064656c656761746520746f2073656c6600006044820152606490fd5b3462000d8f57600036600319011262000d8f5760206040516107d08152f35b3462000d8f57604036600319011262000d8f57600435602435600381101562000d8f576200cb7a62012f15565b816000526020603e8152604060002091600a8301918254600960ff956200cbb46003888560281c166200cbad8162010aeb565b1462011fd5565b015442116200ce02576200cbc883620103cf565b60019060018414918280156200cdec575b6200cbe4906201201f565b60009160001991908816815b6200cd93575b50509050600081126200cd535786600052603f83528560406000209116600052825260026040600020018054868160081c16156200cd1a57916200cc70858995936200cc6a8a7fff2d22b602dcbcec1a2f7c0c429cc169084bfeb39c297755c74c251b417e2aed971662002cec81620103cf565b62010f8d565b6200cc8c6200cc8588885460101c1662011f9d565b8762010c5b565b6200cc9785620103cf565b156200ccf9576200ccb96200ccb287875460181c1662011f9d565b8662010c73565b604051936200ccc881620103cf565b84523393a35490808260081c169160101c16146200cce7576001600055005b6200ccf29062013957565b8062000f52565b6200cd146200cd0d878754841c1662011f9d565b86620120a6565b6200ccb9565b60405162461bcd60e51b8152600481018590526011602482015270105c995b984e881b9bdd081cdd185ad959607a1b6044820152606490fd5b60405162461bcd60e51b815260048101849052601860248201527720b932b7309d103737ba1030b71030b93134ba3930ba37b960411b6044820152606490fd5b88808516828110156200cde45760008c8152603f895260408082208383528a529020546001600160a01b031633146200cdd5575082809495011693926200cbf0565b9450505050508088806200cbf6565b50506200cbf6565b506200cdf885620103cf565b600285146200cbd9565b60405162461bcd60e51b815260048101839052601d60248201527f4172656e613a20766f74696e6720646561646c696e65207061737365640000006044820152606490fd5b3462000d8f57602036600319011262000d8f576004356000526056602052602060ff604060002054166040519015158152f35b3462000d8f57604036600319011262000d8f5760406200ce99620102a3565b6200cea3620102ba565b60018060a01b0380921691826000526029602052836000209116908160005260205282600020549160005260266020528260002090600052602052816000205482519182526020820152f35b3462000d8f57600036600319011262000d8f57602063ffffffff60215416604051908152f35b3462000d8f57602036600319011262000d8f576200cf32620102a3565b6200cf3c62012f79565b6001600160a01b03166000908152602c60209081526040808320805460ff19169055602d909152812055005b3462000d8f57602036600319011262000d8f5760043560005260556020526020604060002054604051908152f35b3462000d8f57602036600319011262000d8f576101206040516200cfba81620107a9565b6000815260006020820152600060408201526000606082015260006080820152600060a0820152600060c0820152600060e08201526000610100809201526004356000526046602052604060002090604051916200d01883620107a9565b8054835260018060a01b03908160018201541691602085019283526002820154604086019081526003830154606087019081526004840154906080880191825260058501549260a0890193845260068601549460c08a01958652600860ff6007890154169760e08c01986200d08d8162010328565b8952015497898b019889526040519a518b52511660208a01525160408901525160608801525160808701525160a08601525160c0850152516200d0d08162010328565b60e08401525190820152f35b3462000d8f5760208060031936011262000d8f576004356200d0fd62012f15565b6200d107620138f0565b80600052603e8252604060002091600a830180549160ff936200d13d6002868660281c166200d1368162010aeb565b1462011f52565b600886015442116200d32d5760001993851660005b868116828110156200d320576000848152603f8652604080822083835287529020546001600160a01b031633146200d190575060010186166200d152565b92939496955050505b600081126200d2dd5781600052603f8352836040600020911660005282526040600020600281019284845460081c166200d2a1576005870154938460011b9480860460021490151715620011f4578460017ffb269e47678dece9b00f1c616359aeff1e0304cc10d0dfcd2eb1f311ba462719946200d228838c6004858060a01b03910154163090339062013912565b015561010061ff00198254161790556200d2536200d24c86885460081c1662011f9d565b8762010c45565b6040519384523393a3815490808216908260081c16146200d275576001600055005b60ff60281b1916600360281b179055426202a300810191908210620011f4576009015580808062000f52565b6064906040519062461bcd60e51b825260048201526015602482015274105c995b984e88185b1c9958591e481cdd185ad959605a1b6044820152fd5b6064836040519062461bcd60e51b825280600483015260248201527f4172656e613a206e6f7420612073656c65637465642061726269747261746f726044820152fd5b505050909193926200d199565b60405162461bcd60e51b815260048101839052601e60248201527f4172656e613a207374616b696e6720646561646c696e652070617373656400006044820152606490fd5b3462000d8f57602036600319011262000d8f576001600160a01b036200d397620102a3565b16600052601a6020526020604060002054604051908152f35b3462000d8f576200d3c136620105d2565b9060005260346020526040600020805482101562000d8f5760209162002a5d916201061b565b3462000d8f57602036600319011262000d8f57600435600052605f602052602060018060a01b0360406000205416604051908152f35b3462000d8f57602036600319011262000d8f5760043560005260226020526020604060002054604051908152f35b3462000d8f576200d45c3662010590565b916200d46a949394620138f0565b6200d47462012f15565b83600052816004602094603186526200d5006040600020916007830154421015806200d603575b6200d4a69062011d06565b60098301805460ff8160381c166200d4be8162010328565b156200d5ec575b505088600052603388526040600020336000528852620088168a604060002094620087cf8b8a8a6200151c8a5493620087a485151562011d51565b8760028201558360038201550155336000526013835260406000206200d52886825462010d37565b9055336000526010835260406000205460018101809111620011f4576200d550908662010d92565b92670de0b6b3a764000093848102948186041490151715620011f4576200d599827fce0dd88be85558b05c3c7d67916050376fa239b2672282b9d76a8886db5d72409562010da6565b908560005260368152604060002091825481116200d5c757505050620088f160405192839233978462011c57565b90915560359052604060002080546001600160a01b03191633179055858080620088db565b60ff60381b1916600160381b1790558a806200d4c5565b50600883015442106200d49b565b3462000d8f57602036600319011262000d8f5760043560005260156020526020604060002054604051908152f35b3462000d8f57602036600319011262000d8f576001600160a01b036200d664620102a3565b16600052601b60205260606040600020805490600260ff60018301541691015490604051928352151560208301526040820152f35b3462000d8f57602036600319011262000d8f576200d6b6620102a3565b6200d6c062012f79565b6200d6ca62012f15565b60095480156200d7055762000f529160006009557f000000000000000000000000000000000000000000000000000000000000000062012f39565b60405162461bcd60e51b815260206004820152601a6024820152794172656e613a206e6f206665657320746f20776974686472617760301b6044820152606490fd5b3462000d8f5760208060031936011262000d8f576004356200d76862012f15565b6000818152604e8352604090206002808201546001600160a01b03906200d793908216331462011c6d565b600683019485549260ff84166200d7aa816201052a565b6200d8b75785600052605382526200d7c86040600020541562011caf565b60019687809560ff1916179055600392806003870154169387600052605084526040600020866000905b6200d820575b878a600060058c826004820155015560008051602062015c6c833981519152600080a2600055005b81548110156200d8b15780846200d8398a93856201061b565b905490861b1c168b600052604f80895260406000208260005289528360406000200154806200d86e575b50505001876200d7f2565b6200d87b90838c62012f39565b8c60005288526040600020906000528752600086604082208281558285820155015560528752600060408120558c80806200d863565b6200d7f8565b60405162461bcd60e51b8152600481018390526018602482015277105c995b984e88185b1c9958591e48191a5cdcdbdb1d995960421b6044820152606490fd5b3462000d8f57602036600319011262000d8f57600435600052604e6020526040600020805462000d8b60018060a01b03928360028201541693600382015416600482015460058301549060ff600685015416926200d95d60016007870154960162010894565b976040519889988962010535565b3462000d8f57602036600319011262000d8f5760606102406040516200d991816201078c565b60008152600060208201526000604082015260008382015260006080820152600060a0820152600060c0820152600060e08201526000610100820152600061012082015260006101408201526000610160820152600061018082015260006101a082015260006101c082015260006101e0820152600061020082015260006102208201520152600435600052603160205261024060406000206200db28600b604051926200da3f846201078c565b60018060a01b03815416845260018060a01b036001820154166020850152600281015460408501526003810154606085015260048101546080850152600581015460a0850152600681015460c0850152600781015460e0850152600881015461010085015260ff6009820154818116610120870152818160081c16610140870152818160101c16610160870152818160181c16610180870152818160201c166101a0870152818160281c166101c0870152818160301c166101e08701526200db0c828260381c1662010328565b60381c16610200850152600a8101546102208501520162010894565b8282015262000d8b6040519283926020845260018060a01b03815116602085015260018060a01b0360208201511660408501526040810151606085015260608101516080850152608081015160a085015260a081015160c085015260c081015160e085015260e081015161010085015261010081015161012085015260ff6101208201511661014085015260ff6101408201511661016085015260ff6101608201511661018085015260ff610180820151166101a085015260ff6101a0820151166101c085015260ff6101c0820151166101e085015260ff6101e0820151166102008501526102008101516200dc1e8162010328565b610220850152610220810151828501520151610260808401526102808301906201037a565b3462000d8f576200dc54366201050f565b916200dc5f62012f79565b818110156200dd065782156200dcb3576200dcae7f89c0cb7951faaf277ada0bdc62d4c54c7b3c955e723c11e00cbd034c47a086dd938260645583606555806066556040519384938462011c57565b0390a1005b60405162461bcd60e51b815260206004820152602560248201527f4172656e613a20646561646c696e65207468726573686f6c64206d7573742062604482015264065203e20360dc1b6064820152608490fd5b60405162461bcd60e51b8152602060048201526019602482015278082e4cadcc27440d8deee40daeae6e840c4ca407840d0d2ced603b1b6044820152606490fd5b3462000d8f57602036600319011262000d8f576200dd6462012f15565b60043560005260516020526040600020546200dd8281151562010dc7565b600435600052605760205260ff604060002054166200e08a57600435600052600a60205260ff60086040600020015460081c166009811015620013b05760066200ddcd911462011c11565b80600052604e60205260406000209060018060a01b03600383015416600435600052605460205260406000205460556020526200de11604060002054809262010b98565b9160043560005260576020526040600020600160ff1982541617905583600052605360205260406000206200de47815462010be4565b9055836000526050602052604060002090600092600083545b8082106200e03b57505060009260005b8154808210156200dfc45788600052604f60205260406000206200de9583856201061b565b60018060a01b0391549060031b1c166000526020526040600020600181015491826200dec8575b5050506001016200de70565b80600019810111620011f4576000190183036200df82576200deeb878662010b98565b91891515806200df78575b156200df70576200df0d89620013228c8462010d92565b8181106200df5a575050600060018201555b816200df2d575b806200debc565b5491956001926200df51929190620014f19083906001600160a01b03168962012f39565b94908a6200df26565b6200df659162010b98565b60018201556200df1f565b60006200df0d565b508815156200def6565b8715801592906200dfbc576200df9e8962001322888462010d92565b92156200df70576200dfb689620013228c8462010d92565b6200df0d565b60006200df9e565b878960048c01828154808210156000146200e027575050600090555b6004356000526055602052600060408120556040519182527fedbc6ced07c4285c5fbd7ed8bc651c18c1d63197d8968578fa084c4f59d6cc5a602060043593a36001600055005b906200e0339162010b98565b90556200dfe0565b90946200e08160019189600052604f60205260406000206200e05e89896201061b565b858060a01b0391549060031b1c1660005260205282604060002001549062010d37565b9501906200de60565b60405162461bcd60e51b815260206004820152602160248201527f4172656e613a206c6f7373657320616c726561647920646973747269627574656044820152601960fa1b6064820152608490fd5b3462000d8f57620061686200e0ee36620104b9565b9162011a19565b3462000d8f57602036600319011262000d8f576001600160a01b036200e11a620102a3565b1660005260626020526020604060002054604051908152f35b3462000d8f57604036600319011262000d8f5760406200e1676200e156620102a3565b6200e160620102ba565b90620119b4565b825191151582526020820152f35b3462000d8f57604036600319011262000d8f576024356001600160401b0380821162000d8f573660238301121562000d8f57816004013590811162000d8f573660248260051b8401011162000d8f5760246200616892016004356201105f565b3462000d8f57602036600319011262000d8f5760606101606040516200e1fb816201076f565b60008152600060208201526000604082015260008382015260006080820152600060a0820152600060c0820152600060e08201526000610100820152600061012082015260006101408201520152600435600052600a60205260406000206040516200e267816201076f565b81546001600160a01b0390811682526001830154166020820152600282015460408201526003820154606082015260048201546080820152600582015460a0820152600682015460c0820152600782015460e082015260088083015460ff80821661010085015290939160099085901c9091161015620013b057600a6200e30a9160ff6101609560081c1661012085015260098101546101408501520162010894565b8282015262000d8b6040519283926020845260018060a01b03815116602085015260018060a01b0360208201511660408501526040810151606085015260608101516080850152608081015160a085015260a081015160c085015260c081015160e085015260e081015161010085015260ff610100820151166101208501526200e39f6101208201516101408601906201048d565b610140810151828501520151610180808401526101a08301906201037a565b3462000d8f57602036600319011262000d8f57600435600052603260205260e0604060002060018060a01b0381541690600181015490600281015460038201546004830154916006600585015494015494604051968752602087015260408601526060850152608084015260a083015260c0820152f35b3462000d8f57602036600319011262000d8f576200e452620138f0565b6200e45c62012f15565b600435600052600a602052604060002060ff600882015460081c166009811015620013b0578060016200e49992149081156200e8e3575062010e33565b6200e4ab600782015442101562010e7e565b600435600052600d60205260406000206200e4c98154151562010ecb565b6004356000908152601660205260409020546001600160a01b0316916200e4f283151562010f09565b600435600052600c60205260406000208360005260205260406000209160028301546003840154604051916200e5288362010753565b86835260208084019182526040808501938452426060860190815260006080870181815260a08801828152600480358452600b909652938220975188546001600160a01b0319166001600160a01b03919091161788559451600188015594516002870155516003860155915190840155516005929092019190915560088301805461ff0019166102001790555b81548110156200e89c57806200e5ce600192846201061b565b838060a01b0391549060031b1c16600052602e60205260406000206200e5f5815462010be4565b9055600435600052600c60205260406000206200e61382856201061b565b848060a01b0391549060031b1c1660005260205260406000208281015460ff8116806200e887575b6200e64a575b5050016200e5b5565b600282015490848060a01b039060081c1660005260136020526200e675604060002091825462010b98565b9055828060a01b038382015460081c169081600052605260205260406000205491821515806200e86d575b806200e853575b156200e71a57506002015481600052604e6020526200e6d0600460406000200191825462010d37565b9055600435600052605460205260006040812055600052605360205260406000206200e6fd815462010be4565b90556004356000526051602052600060408120555b86806200e641565b9150600435600052605b91826020526040600020816002820154151591826200e83e575b5050156200e81b57506007906000926004358452806020526002604085206200e784888060a01b03898c015416898060a01b038a87015460081c168a8401549162012f39565b01805490878060a01b038885015460081c168652605891826020526200e7b36002604089200191825462010d37565b9055549287808060a01b0391015460081c1685526020526006916200e7e083604087200191825462010b98565b90556004358452602052826040812091818355818784015581600284015581600384015581600484015581600584015582015501556200e712565b6200e83892506002858060a01b0386890154169201549162012f39565b6200e712565b909150868060a01b0390541614818b6200e73e565b50600435600052605160205282604060002054146200e6a7565b50600435600052605460205260406000205415156200e6a0565b5087848060a01b038260081c1614156200e63b565b5050506003600282015491015460405191825260208201527fecadf9225c7ee7046fdf92d73b2fc15e22ce742786a0a6b571a35a84e017ed77604060043592a36001600055005b9050158362008b88565b3462000d8f57602036600319011262000d8f576200e90a62012f79565b6200e91462012f15565b600435600052601960205260ff60406000205416156200ee5f57600435600052600a6020526040600020600b60205260ff6008604060002092015460081c166009811015620013b057600381149081156200ee53575b50156200ee1257600435600052601860205260406000205460058201541460018060a01b0382541690816040518281527f1c154d34886b0cd8da017c12080e1979a432015cdd4a78140e3f689147a169bc602060043592a3156200e9d757505062000f52600435620133d8565b600052601a60205260406000206200e9f0815462010e23565b9055546001600160a01b03166000908152601a6020526040902054600211156200edf7575b600435600052600a6020526040600020600b6020526040600020906008810161060061ff001982541617905560018060a01b03600182015416600183015491611d4c9081840293808504831490151715620011f457600435600052604b602052612710840460406000205560018501546200ea9561271086048262010b98565b92808202908282041482151715620011f45780627270e08302046103e81490151715620011f4576200eb27926305f5e100627270e062001075930204906200eae662001029836127108a0462010b98565b600955600435600090815260516020526040902054156200ed87576004356000526055602052604060002055600260018060a01b0384541693015462010d37565b600183015460018060a01b0384541660005260136020526200eb50604060002091825462010b98565b9055600435600052600e60205260406000209260005b84548110156200ec7c57600260ff816200eb81848962010a9f565b500154166200eb9081620103cf565b036200ebf257806200eba9620010ff6001938862010a9f565b816200ebb6828862010a9f565b5001546200ebc5828862010a9f565b50838060a01b0390541660005260136020526200ebe9604060002091825462010b98565b9055016200eb66565b60016200ec00828762010a9f565b50015490816103e88102046103e81482151715620011f4576200ec306127106103e8600194020460095462010d37565b6009556200ec3f818762010a9f565b50828060a01b03905416826200ec56838962010a9f565b50015460405190815260008051602062015e0c833981519152602060043592a36200eba9565b5080546001600160a01b03166000908152601060205260409020805491945091506005116200ed7d575081546001600160a01b03166000908152604090208054600419810191908211620011f457555b81546001600160a01b0316600090815260126020526040902080546200ecf29062010e23565b905581546001600160a01b03166200ed0a816201442a565b6203f480420190814211620011f45760209360008051602062015e2c83398151915291600052602f85528260406000205560018060a01b03905416938492604051908152a2612710604051910481526003602082015260008051602062015c8c833981519152604060043592a362000f52565b600090556200eccc565b605b602052604060002060020154156200edd2576200edd290600435600052605b602052604060002090600762001328600184015462001322846200131b6002880154809462010d37565b806200eddf575062001060565b87546200136791906001600160a01b03168762012f39565b60146020526040600020805460ff191660011790556200ea15565b60405162461bcd60e51b8152602060048201526019602482015278105c995b984e881d185cdac81b9bdd0819195b1a5d995c9959603a1b6044820152606490fd5b6004915014826200e96a565b60405162461bcd60e51b815260206004820152601a6024820152794172656e613a206e6f74206120686f6e6579706f74207461736b60301b6044820152606490fd5b3462000d8f57602036600319011262000d8f576200eebe62012f15565b60043560005260516020526040600020546200eedc81151562010dc7565b600435600052605660205260ff604060002054166200f18f57600435600052600a60205260ff60086040600020015460081c166009811015620013b05760056200ef27911462010ca5565b60043560005260556020526040600020549081156200f14a5780600052604e60205260018060a01b03600360406000200154169060043560005260566020526040600020600160ff1982541617905580600052605360205260406000206200ef90815462010be4565b9055806000526050602052604060002091600093600084545b8082106200f11e57505084156200f0df5760009060005b8554808210156200f0965785600052604f60205260406000206200efe583896201061b565b60018060a01b0391549060031b1c16600052602052604060002090600182015490816200f019575b5050506001016200efc0565b80600019810111620011f45784918a916000190185036200f07f575050846200f0429162010b98565b905b816200f052575b806200f00d565b5491936001926200f076929190620014f19083906001600160a01b03168962012f39565b9290886200f04b565b6200f08f92620013229162010d92565b906200f044565b82866004356000526055602052600060408120556040519182527f6dacf5974f4206fdde3c045984e129df6c9600c2d0f6febb063f5c6c47a75041602060043593a36001600055005b60405162461bcd60e51b81526020600482015260176024820152764172656e613a206e6f20636f6e747269627574696f6e7360481b6044820152606490fd5b90956200f14160019186600052604f60205260406000206200e05e8a8a6201061b565b9601906200efa9565b60405162461bcd60e51b815260206004820152601e60248201527f4172656e613a206e6f207061796f757420746f206469737472696275746500006044820152606490fd5b60405162461bcd60e51b815260206004820152601a602482015279105c995b984e88185b1c9958591e48191a5cdd1c9a589d5d195960321b6044820152606490fd5b3462000d8f5760208060031936011262000d8f57600435906200f1f362012f15565b81600052600a8152604060002091600b825260406000209160ff600885015460081c166009811015620013b05760056200f22e911462010ca5565b82546001600160a01b03906200f248908216331462010cee565b6200f2616200b42c600486015460048801549062010d37565b82600052601582526040600020549384156200f384578394957fd63d51bde7a9db3b77a43eb9db115f9636d2331351c37d91157de8496605eae99460005260158452600060408120556051845260406000205415156000146200f2ed5750846000526055835260406000206200f2d987825462010d37565b90555b541693604051908152a36001600055005b605b845260406000206002015487908490156200f36f5750506200f3699086600052605b855283600160406000209260066200f33d8c6200132285880154916200131b60028a0154809462010d37565b94016200f34c85825462010d37565b9055015416906200f36285855416918a62010b98565b9162012f39565b6200f2dc565b60016200f36993015416848454169062012f39565b60405162461bcd60e51b81526004810184905260176024820152764172656e613a206e6f20626f6e6420746f20636c61696d60481b6044820152606490fd5b3462000d8f57602036600319011262000d8f576004356000526057602052602060ff604060002054166040519015158152f35b3462000d8f57602036600319011262000d8f577f465fbd1fa43389795bbf607c6db796d9cd497a988d28aad4294fc329408da9d860206004356200f43962012f79565b80602555604051908152a1005b3462000d8f5760208060031936011262000d8f57600435600052600e8152604060002080546200f4768162010c8d565b916200f486604051938462010870565b8183526000908152838120938084015b8383106200f4ae576040518062000d8b8782620103da565b6004826001926040516200f4c28162010737565b848060a01b038a54168152848a01548382015260ff60028b0154166200f4e881620103cf565b604082015260038a015460608201528152019601920191946200f496565b3462000d8f57602036600319011262000d8f576004356000526035602052602060018060a01b0360406000205416604051908152f35b3462000d8f57602036600319011262000d8f576001600160a01b036200f561620102a3565b1660005260276020526020604060002054604051908152f35b3462000d8f57600036600319011262000d8f5760206040516117708152f35b3462000d8f5760208060031936011262000d8f5760a090600060806040516200f5c2816201071b565b828152828482015282604082015282606082015201526004356000526063815262002000604060002091604051926200f5fb846201071b565b549060ff906200f60e8284168662010c38565b8181860191818560081c1683526040870190828660101c168252826060890194818860181c1686526200f64a8260808c0199851c168962010c38565b6200f65a604051809b51620103c1565b5116908801525116604086015251166060840152516080830190620103c1565b3462000d8f5760a036600319011262000d8f576004356024803590600482101562000d8f576044359060ff9182811680910362000d8f576064359183831680930362000d8f576084359380851680950362000d8f5786600052600a906020918083526200f6f660018060a01b0360406000205416331462010bf2565b886000528083528160086040600020015460081c1660098110156200f9d6576200f99b576001851015806200f990575b156200f94f576001861015806200f944575b156200f900576001871015806200f8f5575b156200f8b5578860005282526200f775604060002062001fea60036002830154920154429062010b98565b92604051916200f785836201071b565b6200f791898462010c38565b838301908682526040840188815260608501908a825260808601936200f7b8898662010c38565b8d600052606388526040600020965160048110156200f8a057938093926200f7fa826200f803946200f80c98828d60ff199054169116178c5551168a62010c45565b51168762010c5b565b51168462010c73565b519060048210156200f88c5750815460ff60201b191690831b60ff60201b161790556040517f9fb5fe2a95ed007915d5ccb03910b63f68a8f9513fc5877371803dc967ab5f169660a09691959194919391926200f87a92916200f871908890620103c1565b860190620103c1565b604084015260608301526080820152a2005b634e487b7160e01b60009081526021600452fd5b86634e487b7160e01b60005260216004526000fd5b60405162461bcd60e51b8152600481018490526019818601527804172656e613a20636f7374207072696f7269747920312d313603c1b6044820152606490fd5b50808711156200f74a565b60405162461bcd60e51b815260048101849052601d818601527f4172656e613a207365637572697479207072696f7269747920312d31300000006044820152606490fd5b50808611156200f738565b60405162461bcd60e51b815260048101849052601a818601527904172656e613a207370656564207072696f7269747920312d31360341b6044820152606490fd5b50808511156200f726565b60405162461bcd60e51b8152600481018490526014818601527320b932b7309d103a30b9b5903737ba1037b832b760611b6044820152606490fd5b84634e487b7160e01b60005260216004526000fd5b3462000d8f57604036600319011262000d8f576200fa08620102a3565b6024356200fa168162012fa6565b331515806200fac9575b806200fa9b575b6200fa83576001600160a01b039283169282918491167f8c5be1e5ebec7d5bd14f71427d1e84f3dd0314c0f7b2291e5b200ac8c7c3b925600080a4600090815260066020526040902080546001600160a01b0319169091179055005b60405163a9fbf51f60e01b8152336004820152602490fd5b5060018060a01b038116600052600760205260406000203360005260205260ff60406000205416156200fa27565b506001600160a01b0381163314156200fa20565b3462000d8f57602036600319011262000d8f576004356200fafe8162012fa6565b506000526006602052602060018060a01b0360406000205416604051908152f35b3462000d8f57602036600319011262000d8f576001600160a01b036200fb44620102a3565b16600052605e6020526020604060002054604051908152f35b3462000d8f57600036600319011262000d8f576020602454604051908152f35b3462000d8f57600036600319011262000d8f576040516002546000826200fba483620106c1565b9182825260209360019085600182169182600014620080ec5750506001146200fbd65750620080929250038362010870565b849150600260005281600020906000915b8583106200fc015750506200809293508201018562008083565b805483890185015287945086939092019181016200fbe7565b3462000d8f57604036600319011262000d8f576200fc3762010333565b600435600052603b60205260ff604060002091166000526020526020604060002054604051908152f35b3462000d8f5760c036600319011262000d8f576200fc7e620102a3565b6024356064359063ffffffff821680920362000d8f576084359061ffff82169384830362000d8f5760a435906200fcb462012f79565b6001600160a01b03169485156200fd48577fa7986401ea7f1d760806cecf4a7fc0d0544dfcfe449abe4a29ad64b13087739b946080948760018060a01b0319601e541617601e5584601f55604435602055602154908460245582600160301b9266ffffffffffffff1916179061ffff60201b9060201b161717602155604051938452602084015260408301526060820152a2005b60405162461bcd60e51b815260206004820152601a60248201527920b932b7309d1034b73b30b634b21031b7b7b93234b730ba37b960311b6044820152606490fd5b3462000d8f57600036600319011262000d8f5760208054604051908152f35b3462000d8f57602036600319011262000d8f5760006101406040516200fdcf81620106fe565b8281528260208201528260408201528260608201528260808201528260a08201528260c08201528260e08201528261010082015282610120820152015260043560005260476020526101606040600020600a604051916200fe3083620106fe565b805483526001810154602084015260028101546001600160a01b0390811660408501526003820154811660608501526004820154166080840152600581015460a0840152600681015460c0840152600781015460e08401526008810154610100840152600981015460ff166200fea68162010328565b610120840152015461014082015261014060405191805183526020810151602084015260018060a01b03604082015116604084015260018060a01b03606082015116606084015260018060a01b03608082015116608084015260a081015160a084015260c081015160c084015260e081015160e08401526101008101516101008401526101208101516200ff3a8162010328565b6101208401520151610140820152f35b3462000d8f57602036600319011262000d8f5760043563ffffffff60e01b811680910362000d8f57602090632483248360e11b81149081156200ff93575b506040519015158152f35b6380ac58cd60e01b8114915081156200ffc9575b81156200ffb7575b50826200ff88565b6301ffc9a760e01b149050826200ffaf565b635b5e139f60e01b811491506200ffa7565b3462000d8f57604036600319011262000d8f576200fff8620102a3565b602490602435906201000962012f15565b6201001682151562010b4f565b60018060a01b038091169081600052602090605882526040600020906059835260406000203360005283528460406000205410620102215760028201958562010066885460068601549062010b98565b10620101ce5785968560005260598552604060002033600052855260406000206201009388825462010b98565b9055620100a287825462010b98565b90558460005260598452604060002033600052845260406000205415620100fa575b5093620100ea9160008051602062015d0c83398151915294956001339201541662012f39565b6040519384523393a36001600055005b945083600052605a8352604060002060005b81548881831015620101aa57506201012582846201061b565b905460039291831b1c85163314620101425750506001016201010c565b909192939495969760001982019182116200933f5750836200aea460008051602062015d0c8339815191529897946200aa8688620100ea99966200ae968f9a976201018d986201061b565b600382016201019d815462010be4565b90559195945091620100c4565b9391505060008051602062015d0c833981519152959650620100ea9391506201018d565b60405162461bcd60e51b815260048101859052602560248201527f4172656e613a206361706974616c206c6f636b656420696e20616374697665206044820152647461736b7360d81b6064820152608490fd5b6064836040519062461bcd60e51b825280600483015260248201527f4172656e613a20696e73756666696369656e7420636f6e747269627574696f6e6044820152fd5b3462000d8f57602036600319011262000d8f576020906001600160a01b036201028c620102a3565b166000526014825260ff6040600020541615158152f35b600435906001600160a01b038216820362000d8f57565b602435906001600160a01b038216820362000d8f57565b61010435906001600160a01b038216820362000d8f57565b3462000d8f57600036600319011262000d8f576020604051620151808152f35b3462000d8f57600036600319011262000d8f5760206040516103e88152f35b60051115620013b057565b6024359060ff8216820362000d8f57565b60a4359060ff8216820362000d8f57565b60005b838110620103695750506000910152565b818101518382015260200162010358565b90602091620103958151809281855285808601910162010355565b601f01601f1916010190565b3462000d8f57600036600319011262000d8f5760206040516202a3008152f35b906004821015620013b05752565b60031115620013b057565b60208082019080835283518092528060408094019401926000905b8382106201040557505050505090565b90919293948360806001928851848060a01b0381511682528381015184830152858101516201043481620103cf565b82870152606090810151908201520196019493920190620103f5565b3462000d8f57600036600319011262000d8f5760206040516113888152f35b3462000d8f57600036600319011262000d8f57602060405160148152f35b906009821015620013b05752565b3462000d8f57600036600319011262000d8f57602060405160038152f35b606090600319011262000d8f576001600160a01b0390600435828116810362000d8f5791602435908116810362000d8f579060443590565b3462000d8f57600036600319011262000d8f576020604051600a8152f35b606090600319011262000d8f57600435906024359060443590565b60021115620013b057565b94916201055b9060e09794929a9998959a6101009088528060208901528701906201037a565b6001600160a01b03918216604087015298166060850152608084015260a083015262010587816201052a565b60c08201520152565b60a090600319011262000d8f576004359060243590604435906064359060843590565b3462000d8f57600036600319011262000d8f5760206040516105dc8152f35b604090600319011262000d8f576004359060243590565b601c548110156201060557601c60005260206000200190600090565b634e487b7160e01b600052603260045260246000fd5b8054821015620106055760005260206000200190600090565b3462000d8f57600036600319011262000d8f57602060405162278d008152f35b9260a094919796959260c0850198855215156020850152600180861b03166040840152606083015260808201520152565b3462000d8f57600036600319011262000d8f57602060405160058152f35b604091949392606082019560018060a01b0316825260208201520152565b90600182811c92168015620106f3575b6020831014620106dd57565b634e487b7160e01b600052602260045260246000fd5b91607f1691620106d1565b61016081019081106001600160401b03821117620029e557604052565b60a081019081106001600160401b03821117620029e557604052565b608081019081106001600160401b03821117620029e557604052565b60c081019081106001600160401b03821117620029e557604052565b61018081019081106001600160401b03821117620029e557604052565b61026081019081106001600160401b03821117620029e557604052565b61012081019081106001600160401b03821117620029e557604052565b61022081019081106001600160401b03821117620029e557604052565b606081019081106001600160401b03821117620029e557604052565b602081019081106001600160401b03821117620029e557604052565b60e081019081106001600160401b03821117620029e557604052565b61010081019081106001600160401b03821117620029e557604052565b604081019081106001600160401b03821117620029e557604052565b601f909101601f19168101906001600160401b03821190821017620029e557604052565b90604051918260008254620108a981620106c1565b90818452602094600191600181169081600014620109215750600114620108de575b505050620108dc9250038362010870565b565b600090815285812095935091905b81831062010908575050620108dc9350820101388080620108cb565b85548884018501529485019487945091830191620108ec565b92505050620108dc94925060ff191682840152151560051b820101388080620108cb565b606090600319011262000d8f576004359060243560ff8116810362000d8f579060443590565b9181601f8401121562000d8f578235916001600160401b03831162000d8f576020838186019501011162000d8f57565b6001600160401b038111620029e557601f01601f191660200190565b929192620109c5826201099b565b91620109d5604051938462010870565b82948184528183011162000d8f578281602093846000960137010152565b602090602060408183019282815285518094520193019160005b82811062010a1c575050505090565b83516001600160a01b03168552938101939281019260010162010a0d565b3462000d8f57600036600319011262000d8f5760206040516109c48152f35b3462000d8f57600036600319011262000d8f5760206040516101f48152f35b60c090600319011262000d8f57600435906024359060443590606435906084359060a43590565b8054821015620106055760005260206000209060021b0190600090565b90949392606092608083019660018060a01b03168352602083015262010ae281620103cf565b60408201520152565b60061115620013b057565b3462000d8f57600036600319011262000d8f57602060405160028152f35b3462000d8f57600036600319011262000d8f5760206040516127108152f35b9094939260609260808301968352602083015260408201520152565b1562010b5757565b60405162461bcd60e51b815260206004820152601960248201527804172656e613a20616d6f756e74206d757374206265203e203603c1b6044820152606490fd5b91908203918211620011f457565b919060018060a01b038084549260031b9316831b921b1916179055565b805480156200aa4357600019019062010be16200a9df83836201061b565b55565b8015620011f4576000190190565b1562010bfa57565b60405162461bcd60e51b815260206004820152601660248201527520b932b7309d103737ba103a30b9b5903837b9ba32b960511b6044820152606490fd5b6004821015620013b05752565b9061ff0082549160081b169061ff001916179055565b9062ff000082549160101b169062ff00001916179055565b9063ff00000082549160181b169063ff0000001916179055565b6001600160401b038111620029e55760051b60200190565b1562010cad57565b60405162461bcd60e51b8152602060048201526019602482015278105c995b984e881d185cdac81b9bdd0818dbdb5c1b195d1959603a1b6044820152606490fd5b1562010cf657565b60405162461bcd60e51b8152602060048201526019602482015278105c995b984e881b9bdd08185cdcda59db9959081859d95b9d603a1b6044820152606490fd5b91908201809211620011f457565b1562010d4d57565b60405162461bcd60e51b815260206004820152601f60248201527f4172656e613a20736c6173682077696e646f77206e6f742065787069726564006044820152606490fd5b81810292918115918404141715620011f457565b811562010db1570490565b634e487b7160e01b600052601260045260246000fd5b1562010dcf57565b60405162461bcd60e51b815260206004820152601b60248201527a4172656e613a206e6f7420612073796e646963617465207461736b60281b6044820152606490fd5b9060ff801983541691151516179055565b6000198114620011f45760010190565b1562010e3b57565b60405162461bcd60e51b815260206004820152601b60248201527a4172656e613a206e6f7420696e2061756374696f6e20706861736560281b6044820152606490fd5b1562010e8657565b60405162461bcd60e51b815260206004820152601e60248201527f4172656e613a2072657665616c20706572696f64206e6f7420656e64656400006044820152606490fd5b1562010ed357565b60405162461bcd60e51b815260206004820152600e60248201526d4172656e613a206e6f206269647360901b6044820152606490fd5b1562010f1157565b60405162461bcd60e51b81526020600482015260146024820152734172656e613a206e6f2076616c6964206269647360601b6044820152606490fd5b906009811015620013b05761ff0082549160081b169061ff001916179055565b811562010db1570690565b8051821015620106055760209160051b010190565b9062010f9981620103cf565b60ff80198354169116179055565b8054600160401b811015620029e55762010fc79160018201815562010a9f565b9190916201102257805182546001600160a01b0319166001600160a01b03919091161782556020810151600183015560408101516003916060916201101b906201101181620103cf565b6002860162010f8d565b0151910155565b634e487b7160e01b600052600060045260246000fd5b80549190600160401b831015620029e557826200aa86916001620108dc950181556201061b565b601e549293926001600160a01b0316330362011971578060005260416020526040600020548062011557575060005260226020526040600020549182600052600a60205260406000209360088501549060ff8260081c166009811015620013b057600303620114fd57156201060557601c546000858152600b60205260409020546001600160a01b0316919060ff82168110620114c0576201110760ff839795931662010c8d565b9462011117604051968762010870565b60ff8716808752601f19906201112d9062010c8d565b01366020880137600092600095602554945b60ff8a16811080620114a1575b15620112c7576201118b62011185866040516020810190883582528c6040820152604081526201117c81620107e3565b51902062010f6d565b620105e9565b905460039190911b1c6001600160a01b03168781148015620112b3575b80156201129a575b62011209578615158762011276575b8062011247575b62011209576000805b83811062011216575b50620112095781620111fb91620111f462011202948d62010f78565b5262010e23565b9762010e23565b966201113f565b5096620112029062010e23565b826001600160a01b036201122b838f62010f78565b5116146201123c57600101620111cf565b5050600138620111d8565b508060005260266020526040600020886000526020526201126e8760406000205462010d37565b4210620111c6565b508060005260266020526040600020886000526020526040600020541515620111bf565b5080600052601460205260ff60406000205416620111b0565b508b546001600160a01b03168114620111a8565b95945097915097945060ff91501682036201144b5760005b8281106201134357505050600801805461ff00191661040017905560008281526023602052604090819020429055517faeb2394c89eb0a728ff1cccc04c64557756f2210c1cd48cf0c7c5d524c87e1219181906201133e9082620109f3565b0390a2565b6001906001600160a01b036201135a828862010f78565b511680600052601b6020528760008051602062015eec8339815191526020604060002083600052600b8252600587604060002001540490805480831162011442575b82620113a89162010b98565b905584600052601382526040600020620113c482825462010d37565b9055846000526026825260406000208860005282524260406000205583600052600e82526201141c604060002060405190620114008262010737565b8782528385830152600060408301526000606083015262010fa7565b83600052600f82526201143485604060002062011038565b604051908152a301620112df565b9150816201139c565b60405162461bcd60e51b815260206004820152602860248201527f4172656e613a20636f756c64206e6f742073656c65637420656e6f7567682076604482015267657269666965727360c01b6064820152608490fd5b5084600a810204600a1485151715620011f457600a850288106201114c565b60405162461bcd60e51b8152602060048201526015602482015274105c995b984e881c1bdbdb081d1bdbc81cdb585b1b605a1b6044820152606490fd5b60405162461bcd60e51b815260206004820152602c60248201527f4172656e613a207461736b206e6f7420696e2064656c6976657261626c65207360448201526b3a30ba32903337b9102b292360a11b6064820152608490fd5b929193905015620106055781600052603e602052604060002091600160ff600a85015460281c16620115898162010aeb565b036201192d57601c5460ff600185015416620115a5816201052a565b620118f7576002840154600052600a60205260018060a01b036040600020541690600b60205260018060a01b0360406000205416955b60405194620115ea8662010753565b6005865260a0366020880137600094855b6005811080620118d8575b156201171b576201163662011185866040516020810190883582528b6040820152604081526201117c81620107e3565b90546001600160a01b0360039290921b1c8116908b168114801562011708575b8015620116ef575b620116b157806000526010602052601460406000205410620116b1576000805b838110620116be575b50620116b15781620116a391620111f4620116aa948c62010f78565b9662010e23565b95620115fb565b5095620116aa9062010e23565b826001600160a01b03620116d3838e62010f78565b511614620116e4576001016201167e565b505060013862011687565b5080600052601460205260ff604060002054166201165e565b506001600160a01b038716811462011656565b94509694509650505060058103620118805760005b8181106201179e575060ff600160291b911665ff00000000ff19600a840154161717600a8201556202a300420191824211620011f4577f1d9e3dc02f2527c2deed374e1d6c2ce8987326aeb4392da2400d6fbc3403a3a69260086201133e93015560405191829182620109f3565b6001906001600160a01b03620117b5828762010f78565b511660405190620117c68262010737565b815260208101600081526201183660026040840193600085526060810193600085528b600052603f602052604060002060ff8816600052602052604060002091888060a01b03905116888060a01b031983541617825551878201550192516201182f81620103cf565b8362010f8d565b51151561ff0082549160081b169061ff001916179055856000526040602052620118796040600020838060a01b0362011870848962010f78565b51169062011038565b0162011730565b60405162461bcd60e51b815260206004820152602a60248201527f4172656e613a20636f756c64206e6f742073656c65637420656e6f7567682061604482015269726269747261746f727360b01b6064820152608490fd5b5084600a810204600a1485151715620011f457600a8502871062011606565b6002840154600052603160205260018060a01b036040600020541690603260205260018060a01b036040600020541695620115db565b606460405162461bcd60e51b815260206004820152602060248201527f4172656e613a206e6f742073656c656374696e672061726269747261746f72736044820152fd5b60405162461bcd60e51b815260206004820152601b60248201527a20b932b7309d1037b7363c902b29231031b7b7b93234b730ba37b960291b6044820152606490fd5b919060018060a01b03806000941684526026602052604084209116835260205260408220546025548015801562011a10575b62011a0a57620119f69162010d37565b80421062011a0357508190565b6001925090565b50508190565b508115620119e6565b6001600160a01b0391821693929091841562011bf857600090828252600493602085815260409383858220541615158062011bef575b62011bb1579785918983899a9b528882528587822054169889923315158062011b0b575b509060008051602062015dec83398151915292918462011ae8575b85835260058152898320805460010190558683525287812080546001600160a01b0319168517905580a4169081840362011ac9575050505050565b516364283d7b60e01b8152938401526024830152604482015260649150fd5b62011af38762015601565b84835260058152898320805460001901905562011a8e565b929495509250508062011b6c575b1562011b2c578692918989923862011a73565b8689878a62011b4a57916024925191637e27328960e01b8352820152fd5b5163177e802f60e01b815291829162011b6891903390840162012345565b0390fd5b50338814801562011b94575b8062011b19575086825260068152338587842054161462011b19565b5087825260078152858220338352815260ff868320541662011b78565b845162461bcd60e51b815280880183905260248082015260008051602062015c4c8339815191526044820152631bdd5b9960e21b6064820152608490fd5b50600162011a4f565b604051633250574960e11b815260006004820152602490fd5b1562011c1957565b60405162461bcd60e51b8152602060048201526016602482015275105c995b984e881d185cdac81b9bdd0819985a5b195960521b6044820152606490fd5b6040919493926060820195825260208201520152565b1562011c7557565b60405162461bcd60e51b815260206004820152601260248201527120b932b7309d103737ba1036b0b730b3b2b960711b6044820152606490fd5b1562011cb757565b60405162461bcd60e51b815260206004820152602160248201527f4172656e613a2073796e6469636174652068617320616374697665207461736b6044820152607360f81b6064820152608490fd5b1562011d0e57565b60405162461bcd60e51b815260206004820152601b60248201527a105c995b984e881b9bdd081a5b881c995d99585b081c195c9a5bd9602a1b6044820152606490fd5b1562011d5957565b60405162461bcd60e51b8152602060048201526017602482015276105c995b984e881b9bc8189a590818dbdb5b5a5d1d1959604a1b6044820152606490fd5b1562011da057565b60405162461bcd60e51b8152602060048201526017602482015276105c995b984e88185b1c9958591e481c995d99585b1959604a1b6044820152606490fd5b9391609495939160018060601b03199060601b16855260148501526034840152605483015260748201520190565b1562011e1557565b60405162461bcd60e51b8152602060048201526015602482015274105c995b984e881a5b9d985b1a59081c995d99585b605a1b6044820152606490fd5b1562011e5a57565b60405162461bcd60e51b815260206004820152601a6024820152794172656e613a207374616b652062656c6f77206d696e696d756d60301b6044820152606490fd5b1562011ea457565b60405162461bcd60e51b815260206004820152601b60248201527a4172656e613a207072696365206578636565647320626f756e747960281b6044820152606490fd5b1562011eef57565b60405162461bcd60e51b815260206004820152601660248201527504172656e613a20657461206d757374206265203e20360541b6044820152606490fd5b8054610100600160a81b03191660089290921b610100600160a81b0316919091179055565b1562011f5a57565b60405162461bcd60e51b815260206004820152601b60248201527a4172656e613a206e6f7420696e207374616b696e6720706861736560281b6044820152606490fd5b60ff1660ff8114620011f45760010190565b9062011fbb8162010aeb565b815460ff60281b191660289190911b60ff60281b16179055565b1562011fdd57565b60405162461bcd60e51b815260206004820152601a6024820152794172656e613a206e6f7420696e20766f74696e6720706861736560301b6044820152606490fd5b156201202757565b60405162461bcd60e51b81526020600482015260136024820152724172656e613a20696e76616c696420766f746560681b6044820152606490fd5b156201206a57565b60405162461bcd60e51b8152602060048201526014602482015273105c995b984e88185b1c9958591e481d9bdd195960621b6044820152606490fd5b805460ff60201b191660209290921b60ff60201b16919091179055565b15620120cb57565b60405162461bcd60e51b8152602060048201526016602482015275105c995b984e881859d95b9d081a5cc818985b9b995960521b6044820152606490fd5b156201211157565b60405162461bcd60e51b8152602060048201526019602482015278105c995b984e881b9bc819195b1959d85d1a5bdb881c1bdbdb603a1b6044820152606490fd5b156201215a57565b60405162461bcd60e51b815260206004820152602260248201527f4172656e613a207461736b206e6f7420696e2041737369676e65642073746174604482015261757360f01b6064820152608490fd5b15620121b257565b60405162461bcd60e51b815260206004820152601c60248201527b4172656e613a20706f6c69637920616c72656164792065786973747360201b6044820152606490fd5b9062010f998162010328565b156201220a57565b60405162461bcd60e51b815260206004820152601a6024820152794172656e613a20636f6e7472616374206e6f742061637469766560301b6044820152606490fd5b156201225457565b606460405162461bcd60e51b815260206004820152602060248201527f4172656e613a206e6f7420617574686f72697a656420746f20646973707574656044820152fd5b15620122a057565b60405162461bcd60e51b815260206004820152601d60248201527f4172656e613a206469737075746520616c7265616479206578697374730000006044820152606490fd5b15620122ed57565b60405162461bcd60e51b815260206004820152601d60248201527f4172656e613a2077726f6e6720636865636b706f696e7420696e6465780000006044820152606490fd5b60ff60019116019060ff8211620011f457565b6001600160a01b039091168152602081019190915260400190565b156201236857565b60405162461bcd60e51b81526020600482015260196024820152784172656e613a206e6f20706f6c69637920666f72207461736b60381b6044820152606490fd5b15620123b157565b60405162461bcd60e51b81526020600482015260186024820152774172656e613a20706f6c696379206e6f742061637469766560401b6044820152606490fd5b60405190620124008262010753565b8160a06000918281528260208201528260408201528260608201528260808201520152565b604051906201243482620107e3565b60006040838281528260208201520152565b156201244e57565b60405162461bcd60e51b815260206004820152601a6024820152794172656e613a20696e76616c6964207461736b2073746174757360301b6044820152606490fd5b156201249857565b60405162461bcd60e51b8152602060048201526013602482015272105c995b984e88195b5c1d1e481bdd5d1c1d5d606a1b6044820152606490fd5b60018060a01b03166000526011602052604060002054601260205262012500604060002054809262010d37565b600381101562012522575050610bb8905b60c882106201251c57565b60c89150565b61271091828102928184041490151715620011f457620125429162010da6565b9062012511565b156201255157565b60405162461bcd60e51b815260206004820152601960248201527804172656e613a20626f756e7479206d757374206265203e203603c1b6044820152606490fd5b156201259a57565b60405162461bcd60e51b815260206004820152601d60248201527f4172656e613a20696e76616c696420766572696669657220636f756e740000006044820152606490fd5b15620125e757565b60405162461bcd60e51b815260206004820152601f60248201527f4172656e613a20626964206475726174696f6e206d757374206265203e2030006044820152606490fd5b156201263457565b60405162461bcd60e51b815260206004820152602260248201527f4172656e613a2072657665616c206475726174696f6e206d757374206265203e604482015261020360f41b6064820152608490fd5b156201268c57565b60405162461bcd60e51b815260206004820152601b60248201527a105c995b984e881cdb185cda081dda5b991bddc8195e1c1a5c9959602a1b6044820152606490fd5b15620126d757565b60405162461bcd60e51b8152602060048201526018602482015277105c995b984e881c1bdcdd195c8818d85b9b9bdd08189a5960421b6044820152606490fd5b156201271f57565b60405162461bcd60e51b8152602060048201526015602482015274105c995b984e88189a59191a5b99c818db1bdcd959605a1b6044820152606490fd5b156201276457565b60405162461bcd60e51b8152602060048201526012602482015271105c995b984e88185b1c9958591e48189a5960721b6044820152606490fd5b15620127a657565b60405162461bcd60e51b815260206004820152601a602482015279105c995b984e881b585e08189a5919195c9cc81c995858da195960321b6044820152606490fd5b15620127f057565b60405162461bcd60e51b815260206004820152601b60248201527a4172656e613a20746f6f206d616e7920616374697665206269647360281b6044820152606490fd5b156201283b57565b60405162461bcd60e51b815260206004820152601e60248201527f4172656e613a206167656e74206f6e20736c61736820636f6f6c646f776e00006044820152606490fd5b156201288857565b60405162461bcd60e51b815260206004820152601b60248201527a4172656e613a2073796e646963617465206e6f742061637469766560281b6044820152606490fd5b15620128d357565b60405162461bcd60e51b815260206004820152601f60248201527f4172656e613a20636f6e747269627574696f6e206d757374206265203e2030006044820152606490fd5b156201292057565b60405162461bcd60e51b815260206004820152601d60248201527f4172656e613a20616c726561647920696e20612073796e6469636174650000006044820152606490fd5b156201296d57565b60405162461bcd60e51b815260206004820152602360248201527f4172656e613a206167656e742063616e6e6f7420766572696679206f776e20776044820152626f726b60e81b6064820152608490fd5b15620129c657565b60405162461bcd60e51b815260206004820152601b60248201527a4172656e613a20706f737465722063616e6e6f742076657269667960281b6044820152606490fd5b1562012a1157565b60405162461bcd60e51b815260206004820152601a602482015279105c995b984e881d995c9a599a595c881cdb1bdd1cc8199d5b1b60321b6044820152606490fd5b1562012a5b57565b60405162461bcd60e51b815260206004820152602560248201527f4172656e613a20616c726561647920726567697374657265642061732076657260448201526434b334b2b960d91b6064820152608490fd5b1562012ab657565b60405162461bcd60e51b815260206004820152602a60248201527f4172656e613a207665726966696572206f6e20636f6f6c646f776e20666f72206044820152691d1a1a5cc81859d95b9d60b21b6064820152608490fd5b1562012b1657565b60405162461bcd60e51b815260206004820152601d60248201527f4172656e613a207665726966696572207374616b6520746f6f206c6f770000006044820152606490fd5b1562012b6357565b60405162461bcd60e51b815260206004820152601560248201527420b932b7309d1037b33332b9103737ba1037b832b760591b6044820152606490fd5b1562012ba857565b60405162461bcd60e51b8152602060048201526013602482015272105c995b984e88195b5c1d1e481c995c1bdc9d606a1b6044820152606490fd5b1562012beb57565b606460405162461bcd60e51b815260206004820152602060248201527f4172656e613a206e6f74206120726567697374657265642076657269666965726044820152fd5b6040519062012c3e826201081b565b8160c06000918281528260208201528260408201528260608201528260808201528260a08201520152565b908060209392818452848401376000828201840152601f01601f1916010190565b92909262012c9a83858362011a19565b833b62012ca8575b50505050565b604051630a85bd0160e11b8082523360048301526001600160a01b039283166024830152604482019490945260806064820152949316926020929091859062012cf69060848301906201037a565b039483816000978189895af186918162012dab575b5062012d74575050503d60001462012d6a573d62012d29816201099b565b9062012d39604051928362010870565b81528093823d92013e5b8251928362012d6557604051633250574960e11b815260048101849052602490fd5b019050fd5b6060925062012d43565b919450915063ffffffff60e01b160362012d9357503880808062012ca2565b60249060405190633250574960e11b82526004820152fd5b9091508481813d831162012dee575b62012dc6818362010870565b8101031262012dea57516001600160e01b03198116810362012dea57903862012d0b565b8680fd5b503d62012dba565b1562012dfe57565b60405162461bcd60e51b815260206004820152601e60248201527f4172656e613a20646561646c696e65206d7573742062652066757475726500006044820152606490fd5b9395949060ff9260609462012e6692875260806020880152608087019162012c69565b95604085015216910152565b6040519062012e818262010854565b600682526510905393915160d21b6020830152565b1562012e9e57565b60405162461bcd60e51b815260206004820152601c60248201527b105c995b984e881b9bdd081d1a19481a5b9cdd5c9959081859d95b9d60221b6044820152606490fd5b906066541162012f0f57606554811162012f09576064541162012f0457600090565b600090565b50600190565b50600290565b60026000541462012f27576002600055565b604051633ee5aeb560e01b8152600490fd5b62012f73620108dc939262012f6460405194859263a9059cbb60e01b60208501526024840162012345565b03601f19810184528362010870565b620155a1565b6001546001600160a01b0316330362012f8e57565b60405163118cdaa760e01b8152336004820152602490fd5b6000818152600460205260409020546001600160a01b031690811562012fca575090565b60249060405190637e27328960e01b82526004820152fd5b80600052600a6020526040600020600b6020526040600020916008820161060061ff001982541617905560018060a01b0360018301541693600184018054936113889081860295808704831490151715620011f45784600052604b60205261271086046040600020558254916201305e61271088048462010b98565b92818102918183041481151715620011f457624c4b4002908082046103e81490151715620011f457620130ef926305f5e100620130e7920490620130ab62001029836127108c0462010b98565b600955600088815260516020526040902054156201336357876000526055602052604060002055600260018060a01b0384541693015462010d37565b908862012f39565b5460018060a01b03855416600052601360205262013114604060002091825462010b98565b905581600052600e60205260406000209260005b84548110156201325d57600260ff8162013143848962010a9f565b500154166201315281620103cf565b03620131d657806201318d6201316b6001938862010a9f565b50838060a01b039054168362013182848a62010a9f565b500154908a62012f39565b816201319a828862010a9f565b500154620131a9828862010a9f565b50838060a01b039054166000526013602052620131cd604060002091825462010b98565b90550162013128565b6001620131e4828762010a9f565b50015490816103e88102046103e81482151715620011f457620132146127106103e8600194020460095462010d37565b60095562013223818762010a9f565b50828060a01b039054168560008051602062015e0c8339815191526020856201324d868c62010a9f565b500154604051908152a36201318d565b5084546001600160a01b03166000908152601060205260409020805492965090949293509060051162013359575080546001600160a01b03166000908152604090208054600419810191908211620011f457555b80546001600160a01b031660009081526012602052604090208054620132d79062010e23565b905580546001600160a01b031690620132f0826201442a565b6203f480420193844211620011f45760209460008051602062015e2c83398151915260409360008051602062015c8c83398151915295600052602f885282856000205560018060a01b039054169687928551908152a261271082519104815260026020820152a3565b60009055620132b1565b605b60205260406000206002015415620133ac57620133ac9088600052605b602052604060002090600762001328600184015462001322846200131b6002880154809462010d37565b80620133b9575062001060565b8954620133d191906001600160a01b03168c62012f39565b3862001348565b9081600052600a602052604060002090600b6020526040600020906008830161050061ff001982541617905560018060a01b036001840154169360028301549160fa83029280840460fa1490151715620011f4576201343e612710840460095462010d37565b600955620134556127108404600286015462010b98565b9460018501546107d08181810204811482151715620011f4576127106201348191830204809262010b98565b90846000526015602052604060002055600186015460018060a01b038754166000526013602052620134ba604060002091825462010b98565b9055600084815260516020526040902054156201380f57620134dd908762010d37565b8360005260556020526040600020555b82600052600e6020526040600020946002820154946201351260028301548762010b98565b9561012c8181810204811482151715620011f4576127109102049580871162013806575b87549662013568919088908115620137f7576201356191620135589162010da6565b985b8962010d92565b9062010b98565b80620137d8575b5060005b8754811015620136ea57600160ff60026201358f848c62010a9f565b500154166201359e81620103cf565b036201362e5780620135e589620135dd8a6001620135d486620135c383998762010a9f565b50838060a01b039054169562010a9f565b50015462010d37565b908d62012f39565b81620135f2828b62010a9f565b50015462013601828b62010a9f565b50838060a01b03905416600052601360205262013625604060002091825462010b98565b90550162013573565b60016201363c828a62010a9f565b50015460011c9062013656826001620058a6848d62010a9f565b91600162013665838c62010a9f565b500154926103e88481810204811485151715620011f4576020620136d28f8e62002d078e968993620136b2614e2060008051602062015e0c8339815191529960019e020460095462010d37565b600955620136c1858562010a9f565b508c8060a01b039054169062012f39565b50868060a01b0390541693604051908152a3620135e5565b5093969297509350935060018060a01b0383541660005260106020526040600020805494600a8601809611620011f45760208095620137ae7f843af93d40addceac6932508439844b897d4df9e971db326d557e3cdaa9f3ebf937f8b33e5d3f2111dbe0069093632772b6795dfdaa7282cb1d39582c0ca4127edbb998b965560018060a01b038354166000526011845260406000206201378b815462010e23565b905582546001600160a01b031690620137a790600a0162010894565b906201561f565b546001600160a01b031693620137c4856201442a565b604051908152a361271060405191048152a2565b8354620137f091906001600160a01b03168b62012f39565b386201356f565b5050620135616000986201355a565b95508562013536565b605b60205260406000206002015415620138d157620138b9620138cb9185600052605b60205262000f366040600020620138b28b6007620138926200132262001322886127106201388a6201387e60018b0154986201387460028d0154809b62010d37565b9687918b62010d92565b60038b01549062010d92565b049562010d92565b9382600582015584600682015501600160ff198254161790558c62010b98565b9262010b98565b86546001600160a01b03168962012f39565b620134ed565b8554620138cb9190620138b99089906001600160a01b03168b62012f39565b60ff60015460a01c166201390057565b60405163d93c066560e01b8152600490fd5b6040516323b872dd60e01b60208201526001600160a01b039283166024820152929091166044830152606480830193909352918152620108dc9162012f73826201071b565b80600052603e602052604060002090600a8201549260018060a01b0360048401541660ff8560201c1660ff8660181c161160001462014233576001919392935b6000946000916000956000975b60ff600a8301541660ff8a16101562013ba05783600052603f602052604060002060ff8a166000526020526040600020600281015460ff8160081c1615801562013b93575b62013b845760ff16620139fc89620103cf565b62013a0781620103cf565b80890362013a3b575062013a2f62013a2860ff936001809401549062010d37565b9962010e23565b995b01169796620139a4565b62013a4a819b939a9b620103cf565b62013a5c575b50600160ff9162013a31565b906001820154906109c48281810204811483151715620011f45762013a9b62013a8c612710838602048562010b98565b98612710838602049062010d37565b978062013b65575b5060006001850181905584546001600160a01b03168152601060205260409020805488919060021162013b4057505083546001600160a01b03166000908152604090208054909460011982018210620011f457602060019561271060008051602062015f0c8339815191529360ff998d968a190190555b888060a01b039054169562013b2f876201442a565b6040519202048152a3915062013a50565b602060019561271060ff98600060008051602062015f0c833981519152955562013b1a565b845462013b7d91906001600160a01b03168b62012f39565b3862013aa3565b50509697600160ff9162013a31565b50600182015415620139e9565b50919394979092965060068201549562013bfa62013bc28860011c8962010b98565b9862013bf062013bd88a60011c60095462010d37565b9162013be98160011c809262010b98565b9262010d37565b6009558962010d37565b908015620142285762013c0d9162010da6565b955b60005b60ff600a8501541660ff8216101562013d215785600052603f602052604060002060ff821660005260205260406000208a600282015460ff8160081c1615801562013d14575b62013d065760ff1662013c6b82620103cf565b62013c7681620103cf565b1462013c8c575b50600160ff915b011662013c12565b9060006001830162013cb662013ca48c835462010d37565b85546001600160a01b03168c62012f39565b5560018060a01b0382541660005260106020526040600020908154600381018111620011f457600301909155905460ff9160019162013cfe906001600160a01b03166201442a565b915062013c7d565b505050600160ff9162013c84565b5060018301541562013c58565b509094507f5a246f3d42b317294e0adb825b8f18c8dba2ade70e1bd487e808937bd37d1af79297506040919550839682519160011c82526020820152a260ff60018301541662013d71816201052a565b62013f065760028201908154600052600a602052604060002060ff8260201c1660ff8360181c161160001462013e605760080161050061ff00198254161790558154600052600b60205260018060a01b03604060002054166000526010602052604060002080549060058201809211620011f45760008051602062015dcc8339815191529460609460ff93600a935554600052600b60205262013e2160018060a01b03604060002054166201442a565b6001602a1b8360281b1983830154161791829101556040519282808260201c169160181c16118352818160181c16602084015260201c166040820152a2565b600801805461ff00191661060017905590546000908152600b60209081526040808320546001600160a01b0316808452601090925290912080549092919060051162013ee05782546004198101908111620011f45760008051602062015dcc8339815191529462013eda60ff93600a93606097556201442a565b62013e21565b600a60008051602062015dcc8339815191529462013eda60ff936000606097556201442a565b9060028101549160ff6003830154168360005260376020526040600020906000526020526040600020836000526031602052604060002093603260205260406000209160ff8460201c1660ff8560181c161160ff8560201c1660ff8660181c16116201420c575b15620140895760049062013fb46009880162013f9b62013f9460ff835460181c1662015801565b8262010c73565b62013fad60ff825460101c1662011f9d565b9062010c5b565b01600360ff1982541617905560038501549360fa85029185830460fa1486151715620011f45760008051602062015dcc8339815191529660609660ff95612710600a9604936201401362014009868562010b98565b9560095462010d37565b600955600052603c602052604060002091825490808210156201403d575b50505050505062013e21565b6201407b94600594620140568893620140719562010b98565b90556001015483546001600160a01b03908116911662012f39565b0191825462010d37565b905538808080808062014031565b905060ff836020969394961c1660ff8660181c16111580620141ef575b620140cd575b50505060008051602062015dcc8339815191529160ff600a60609362013e21565b6004906201411160098497959701620140f8620140f160ff835460101c1662015801565b8262010c5b565b6201410a60ff825460181c1662011f9d565b9062010c73565b01600460ff19825416179055600284018054946105dc91828702928784041487151715620011f45761271080930496808811620141e6575b9062014159886006949362010b98565b9055016201416986825462010d37565b905560018201546001600160a01b031693612328868102908782041487151715620011f45760008051602062015dcc8339815191529660609660ff95620141c7620141be600a97620141db9604809562010b98565b60095462010d37565b600955546001600160a01b03169062012f39565b9350829450620140ac565b96508662014149565b50600360ff600483015416620142058162010aeb565b14620140a6565b50600460ff8183015416620142218162010aeb565b1462013f6d565b505060009562013c0f565b60029193929362013997565b60e060a0620142989360208452805160208501526020810151604085015261ffff6040820151166060850152606081015163ffffffff80911660808601526080820151168285015201519160c08082015201906201037a565b90565b906005601c5410620143cc57620142ee9160018060a01b03601e5416602090815490826201433c601f54926021549460409463ffffffff865197620142e089620107ff565b60009c898e809b5262015812565b92885194620142fd8662010753565b85528785015261ffff81881c16888501521660608301526001608083015260a08201528451958680948193634d8e1c2f60e11b8352600483016201423f565b03925af1918215620143c257869262014387575b50838187847f79aa17bbe599c8f49b567719d38b9b5d0358f252b2bc65b7f0ac22c7d6941a369798995260418652205551908152a2565b9591508286813d8311620143ba575b620143a2818362010870565b81010312620143b657945190948362014350565b5080fd5b503d62014396565b81513d88823e3d90fd5b60405162461bcd60e51b815260206004820152603060248201527f4172656e613a206e6f7420656e6f756768206167656e747320696e20706f6f6c60448201526f103337b91030b93134ba3930ba34b7b760811b6064820152608490fd5b6001600160a01b03166000908152605e6020526040902054806201444b5750565b60207ff8e1a15aba9398e019f0b49df1a4fde98ee17ae345cb5f6b5e2c27f5033e8ce791604051908152a1565b806000526031602052604060002060326020526009604060002091015460ff808260281c169160181c1610156201451157600181015461138890818102918183041490151715620011f4576127106002910491015410620144d65750565b604051620108dc91620144e98262010854565b60158252741cdd185ad957d8995b1bddd7dd1a1c995cda1bdb19605a1b60208301526201583a565b50604051620108dc91620145258262010854565b600c82526b6d61785f6661696c7572657360a01b60208301526201583a565b919060018060a01b03809316926000928484526020926027845260409283862062014570815462010e23565b90556201457d83620103cf565b600180931462014854575b868652602985528386209116908186528452828520620145a9815462010e23565b9055858552602b8452828520818652845260ff8386205416156201481a575b858552602784526005838620541015620145e5575b505050505050565b60288452828520548591612710918281029080159082048414171562014806576201461d8991828a5260278952878a20549062010da6565b61251c80821015620147b1575b50508752602986528487209087528552838620548181029181830414901517156201479d5762014667879182885260278752858820549062010da6565b611770808210156201474a575b50505062014684575b80620145dd565b848452602d83528184206201469a815462010e23565b9055848452602c83528184209360ff19948286825416179055602d8452857f028db3c2e87249d4825d4a2b6fee1ecd7cd24d785dc0e9de5fba508b95dcd61685858420548651908152a2858152602d8452600383822054101562014700575b506201467d565b7fdc28892772b46106708045acd12f601e62adc4bebb123b14ef625fbf41c11ffe9483926014865283832091825416179055602d845220549051908152a2388080808080620146f9565b60008051602062015f2c8339815191529293509060a0918651916060835260126060840152713830b4b92fb1b7b731b2b73a3930ba34b7b760711b60808401528883015286820152a28085388062014674565b634e487b7160e01b86526011600452602486fd5b60008051602062015f2c833981519152929395509060a091885191606083526012606084015271686967685f617070726f76616c5f7261746560701b60808401528a83015288820152a282918738806201462a565b634e487b7160e01b88526011600452602488fd5b858552602b845282852081865284528285208260ff19825416179055858552602a84528285206201484c815462010e23565b9055620145c8565b868652602885528386206201486a815462010e23565b905562014588565b156201487a57565b60405162461bcd60e51b815260206004820152602360248201527f4172656e613a206e6f7420616c6c2076657269666965727320726567697374656044820152621c995960ea1b6064820152608490fd5b80600052603160205260406000206038602052604060002060ff841660005260205260406000206000906000926000918054925b838110620150bf5750509060ff60096201492093015460301c161462014872565b111562014d6a5780600052603160205260406000209060326020526040600020936037602052604060002060ff851660005260205260406000209160048301600360ff1982541617905542600284015560018060a01b036001850154169560038501549460fa86029486860460fa1487151715620011f457620149aa612710870460095462010d37565b600955836000526038602052604060002060ff891660005260205260406000209661012c8181810204811482151715620011f45788549081801562014d5f57612710620149fa9285020462010da6565b975b6000600160ff600988015460201c16101562014d3e575b8062014a3762014a3e92620014f18d62013561886200131b6127108a048c62010b98565b9462010d37565b9187600052603c60205260406000205480841162014d0b575b505050819260059187600052603c60205262014a7a604060002091825462010b98565b90558262014cec575b81860162014a9384825462010d37565b9055015560005b875481101562014bcf57600160ff600262014ab6848c62010a9f565b5001541662014ac581620103cf565b0362014b33578062014aea89620135dd8a6001620135d486620135c383998762010a9f565b8162014af7828b62010a9f565b50015462014b06828b62010a9f565b50838060a01b03905416600052601360205262014b2a604060002091825462010b98565b90550162014a9a565b62014b59600162014b45838b62010a9f565b50015460011c6001620058a6848c62010a9f565b90600162014b68828b62010a9f565b500154916103e88381810204811484151715620011f457614e2062014b9591600195020460095462010d37565b6009558062014ba6575b5062014aea565b62014bc89062014bb7838c62010a9f565b50848060a01b039054168d62012f39565b3862014b9f565b50939750935093509362014bfb62014bf160ff600986015460101c1662011f9d565b6009850162010c5b565b62014c1e62014c1460ff600986015460081c1662011f9d565b6009850162010c45565b62014c4162014c3760ff600986015460201c1662011f9d565b60098501620120a6565b83546001600160a01b0316600090815260106020526040902080546002810195908610620011f45760ff879362014cb560609360099960008051602062015e8c833981519152965562014ca560018060a01b03825416620137a7600b8c0162010894565b546001600160a01b03166201442a565b60405195600387526020870152600060408701521693a3015460ff8082169160081c161462014ce15750565b620108dc9062015ac6565b855462014d059084906001600160a01b03168e62012f39565b62014a83565b62014d349294506005935062014d2c81612710620135619397049062010b98565b918b62010d92565b9190388062014a57565b506101f48381810204811484151715620011f4576127109084020462014a13565b5050600097620149fc565b919082600052603160205260406000209160326020526040600020936037602052604060002060ff841660005260205260406000209260048401600460ff1982541617905542600285015560018060a01b036001860154169360028701908154916105dc92838102938185041481151715620011f45762014df19061271085049062010b98565b90556006880162014e086127108404825462010d37565b90556006612710830491015561271081046103e8612710830402046103e8146127108204151715620011f4576127106103e8818304020462014e536200919c82612710850462010b98565b60095580620150a0575b50826000526038602052604060002060ff831660005260205260406000209660005b885481101562014f6a57600260ff8162014e9a848d62010a9f565b5001541662014ea981620103cf565b0362014f23578062014eda8a6001620131828462014ec983978562010a9f565b50838060a01b039054169362010a9f565b8162014ee7828c62010a9f565b50015462014ef6828c62010a9f565b50838060a01b03905416600052601360205262014f1a604060002091825462010b98565b90550162014e7f565b600162014f31828b62010a9f565b50015490816103e88102046103e81482151715620011f45762014f616127106103e8600194020460095462010d37565b60095562014eda565b50929591945092955060018060a01b0382541660005260106020528460406000206003815410156000146201507957505081546001600160a01b03166000908152604090208054600219810193908411620011f457600960008051602062015e8c8339815191529362014fef60ff938a9760609655546001600160a01b03166201442a565b01956201500d6201500683895460181c1662011f9d565b8862010c73565b620150296201502283895460081c1662011f9d565b8862010c45565b8654968260201b19881690556127106040519660048852600060208901520460408701521693a360ff8082169160081c16146000146201506e57620108dc9062015ac6565b620108dc9062014478565b600960008051602062015e8c8339815191529362014fef60609496600060ff955562014ca5565b8654620150b891906001600160a01b03168762012f39565b3862014e5d565b620150cb818362010a9f565b5060ff60028092015416620150e081620103cf565b156201516557600160ff82620150f7858762010a9f565b500154166201510681620103cf565b1462015152575b60ff816201511c848662010a9f565b500154166201512b81620103cf565b146201513b575b600101620148ff565b946201514960019162010e23565b95905062015132565b946201515e9062010e23565b946201510d565b505050505050505050565b600090808252600e60205260408220600a6020526040832090838492859286908054905b818310620152035750505060080192620151b584549360ff85161462014872565b80821115620151ce5750505050620108dc9150620133d8565b1115620151e3575050620108dc915062012fe2565b61ff00191661070017905560008051602062015bec8339815191528280a3565b90919462015212868362010a9f565b5060ff80600280930154166201522881620103cf565b15620152bd57600181836201523e8b8862010a9f565b500154166201524d81620103cf565b14620152aa575b8162015261898662010a9f565b500154166201527081620103cf565b146201528e575b6201528460019162010e23565b9501919062015194565b9562015284620152a060019262010e23565b9791505062015277565b95620152b69062010e23565b9562015254565b5050505050505050505050565b604051906001600160a01b031680620152e383620107e3565b602a835260208084016040368237845115620106055760309053835160019060011015620106055790607860218601536029915b8083116201534a575050506201532b575090565b6044906040519063e22e27eb60e01b8252600482015260146024820152fd5b909192600f811690601082101562015399578651851015620153995762015391916f181899199a1a9b1b9c1cb0b131b232b360811b901a87860185015360041c9362010be4565b919062015317565b60246000634e487b7160e01b81526032600452fd5b90620153ba826201099b565b620153c9604051918262010870565b8281528092620153dc601f19916201099b565b0190602036910137565b6000908072184f03e93ff9f4daa797ed6e38ed64bf6a1f0160401b8082101562015529575b506904ee2d6d415b85acef8160201b8083101562015519575b50662386f26fc100008083101562015509575b506305f5e10080831015620154f9575b5061271080831015620154e9575b506064821015620154d8575b600a80921015620154cd575b6001908160216201548160018701620153ae565b95860101905b62015494575b5050505090565b600019019083906f181899199a1a9b1b9c1cb0b131b232b360811b8282061a835304918215620154c75791908262015487565b6201548d565b91600101916201546d565b919060646002910491019162015461565b6004919392049101913862015455565b6008919392049101913862015447565b6010919392049101913862015437565b6020919392049101913862015424565b6040935081049150386201540b565b60405162014298916201554b82620107e3565b604082527f4142434445464748494a4b4c4d4e4f505152535455565758595a61626364656660208301527f6768696a6b6c6d6e6f707172737475767778797a303132333435363738392b2f6040830152620159b8565b906000602091828151910182855af1156200a88d576000513d620155f757506001600160a01b0381163b155b620155d55750565b604051635274afe760e01b81526001600160a01b039091166004820152602490fd5b60011415620155cd565b600090815260066020526040902080546001600160a01b0319169055565b815115620157fd5760018060a01b031660008181526020606081526040926201568f82858520865182818a5193828c01946201565d81848862010355565b82019081520301902062015672815462010e23565b9055838652606082528686208751809481938b5192839162010355565b820190815203019020549481845260628352848420548611620156b457505050505050565b60618352848420815190916001600160401b038211620157e957620156da8354620106c1565b601f8111620157a1575b508490601f831160011462015735576062959493929187918362015729575b50508160011b916000199060031b1c19161790555b8352522055388080808080620145dd565b01519050388062015703565b8387528587209190601f198416885b81811062015789575091600193918560629998979694106201576f575b505050811b01905562015718565b015160001960f88460031b161c1916905538808062015761565b92938860018192878601518155019501930162015744565b838752858720601f840160051c810191878510620157de575b601f0160051c01905b818110620157d25750620156e4565b878155600101620157c3565b9091508190620157ba565b634e487b7160e01b86526041600452602486fd5b5050565b60ff168015620011f4576000190190565b6040519063125fa26760e31b60208301525115156024820152602481526201429881620107e3565b91909160009281845260206031815260408086206032835281872090600260ff60098301600360381b8260381b198254161781558a60018060a01b03948560018201541690603c8a5288832083815491558781620159a1575b505050848701908154806201596a575b50505050838554168b52603a8752858b20620158c0815462010be4565b90555460181c161015620158fa575b505060008051602062015d2c833981519152939495506201133e90519282849384528301906201037a565b6203f4804201918242116201595657848282858760008051602062015d2c8339815191529b9c9d6201133e99989760008051602062015e2c8339815191529754168152602f865220555416928451908152a290869594620158cf565b634e487b7160e01b89526011600452602489fd5b6201599691888a5416855260138c528a85206201598983825462010b98565b9055888a54169062012f39565b558a388080620158a3565b620159af9254168362012f39565b38808762015893565b91909180511562015aae5780519260029160028501809511620011f4576003948590046001600160fe1b0381168103620011f457620159fd9060029694961b620153ae565b926020840192829183518401976020890192835194600085525b8a811062015a605750505050600393949596505251068060011462015a4d5760021462015a42575090565b603d90600019015390565b50603d9081600019820153600119015390565b836004919b989b019a8b51600190603f9082828260121c16870101518453828282600c1c16870101518385015382828260061c16870101518785015316840101518582015301969962015a17565b50905060405162015abf81620107ff565b6000815290565b7fce4612af63579a7d1fcb97a388b170619b3dafda39f9ea05584eb8fb9dad00bb60008281526020603181526201133e604092838082209160328552601182822095600985016001603a1b60ff60381b1982541617905560018060a01b038060018701541695603c83528585208581549155828162015bd4575b5050508360028901805497888062015b9d575b50505050808854168452603a825284842062015b70815462010be4565b90558754168352522062015b85815462010e23565b90556006600584015493015493519384938462011c57565b62015bc991858d541685526013875289852062015bbc83825462010b98565b9055858d54169062012f39565b558338808862015b53565b62015be29254168862012f39565b38808262015b4056fe4c876e9aba8144edd2840298ef3fd0d8735009124d7a0185a41b12680c0937822aba851d970d57b7f3148cc16fdf63a018b550472cca2f1f83d7d1d88084b68f342220666f6e742d66616d696c793d226d6f6e6f7370616365223e00000000004172656e613a2072657075746174696f6e204e4654732061726520736f756c62f57622f2a9ee9e36827a0662de464b4c811baf658fd251ba972b0803d1c315420719ea5984c8fd92082dd3b009e349c6268986902f103896c2e9f8f918b3e265723d22656e64222066696c6c3d22236666662220666f6e742d73697a653d223120666f6e742d73697a653d2231342220666f6e742d66616d696c793d226d6f6ecdad9a07a3875587527f5ce4c1cebb98222e2c030a27645f2f0c51ee4e88070faa0001b0e2e76b9a1b925257fefa58b756aebc52d2d7c8a85ea5beacc77a21000eb28f5e2f3cc750b82b28d7698955d0f714c501ca227d39839fd5601df5353c9dca5ab8ac0100e68c4344809481d79ec3554f65582c9812d109ac0698f800e88c7cd673767d3d47b36b0e4d605f840a583bb9a0070b498f82a1b91b27882aeb27fd6ade529decb8dee21a7fb42fa12c79eef68c64f2b759afc2faad87776b228be0079c531659141344cd1fd0a4f28419497f9722a3daafe3b4186f6b6457e0ee8084263c942873d3083ff3d54df70caf307e1cdc6a4b81924fdf93b9df10c8ddf252ad1be2c89b69c2b068fc378daa952ba7f163c4a11628f55a4df523b3eff9066b5085ac99f7ff5bf60d7395de46fa2baa2856b29a5617fdc0bc8a61809545f5f2d3694c8819f3c6d9cccd5c2612f1c7af37562efc27483cc1271aaa2427b4fd460e7b81e9f0d0feeb75cf3e4fda7c827b93c219b5feffd8fd522d0856e6154ad3b08b088a9633bd064546e7e0f12284dde7d9201a6448a0dba6806816be20c191f218fbe14d6a9b1a61686fd1dc1f27d840732ae7a401851cadfaad997f409bb6e7f71bdfafbaa435ae0f029c7b6a1a96ec38047bcc2ed67ca6e664e265d39549de9e66b0b67e3696e4d033b914ea92d1fa64a28ee38da6938575214aaa3324abd0c280f6c64524af260d82a07a15655f55b60ff0eda83e75efc4d9b5dfd2a40f76e597ab1f4787bd4dd88da3c6831e92f1cbcd6364f40cab1288c48d2ded21f7063c68034ab6b00408d6acee34c1dbbec2d7268b6ef9f7966027af197ea264697066735822122098b1bf2b0480cc27003d5b1329bba676ea06631e8c1e12963504a0910f7df76964736f6c63430008180033",
  "linkReferences": {},
  "deployedLinkReferences": {}
}